{
  "_format": "hh-sol-artifact-1",
  "contractName": "ERC721Factory",
  "sourceName": "contracts/ERC721Factory.sol",
  "abi": [
    {
      "inputs": [
        {
          "internalType": "address payable",
          "name": "_mintableToken",
          "type": "address"
        }
      ],
      "stateMutability": "nonpayable",
      "type": "constructor"
    },
    {
      "anonymous": false,
      "inputs": [
        {
          "indexed": true,
          "internalType": "address",
          "name": "collection",
          "type": "address"
        },
        {
          "indexed": true,
          "internalType": "address",
          "name": "creator",
          "type": "address"
        },
        {
          "indexed": false,
          "internalType": "uint256",
          "name": "time",
          "type": "uint256"
        }
      ],
      "name": "CollectionCreated",
      "type": "event"
    },
    {
      "anonymous": false,
      "inputs": [
        {
          "indexed": true,
          "internalType": "address",
          "name": "previousOwner",
          "type": "address"
        },
        {
          "indexed": true,
          "internalType": "address",
          "name": "newOwner",
          "type": "address"
        }
      ],
      "name": "OwnershipTransferred",
      "type": "event"
    },
    {
      "inputs": [
        {
          "internalType": "string",
          "name": "name",
          "type": "string"
        },
        {
          "internalType": "string",
          "name": "symbol",
          "type": "string"
        },
        {
          "internalType": "string",
          "name": "contractURI",
          "type": "string"
        },
        {
          "internalType": "string",
          "name": "tokenURIPrefix",
          "type": "string"
        },
        {
          "internalType": "uint96",
          "name": "royaltyLimit",
          "type": "uint96"
        }
      ],
      "name": "createCollection",
      "outputs": [
        {
          "internalType": "address",
          "name": "collectionAddress",
          "type": "address"
        }
      ],
      "stateMutability": "nonpayable",
      "type": "function"
    },
    {
      "inputs": [],
      "name": "getAllCollection",
      "outputs": [
        {
          "internalType": "address[]",
          "name": "",
          "type": "address[]"
        }
      ],
      "stateMutability": "view",
      "type": "function"
    },
    {
      "inputs": [
        {
          "internalType": "address",
          "name": "_user",
          "type": "address"
        }
      ],
      "name": "getUserCollection",
      "outputs": [
        {
          "internalType": "address[]",
          "name": "",
          "type": "address[]"
        }
      ],
      "stateMutability": "view",
      "type": "function"
    },
    {
      "inputs": [],
      "name": "owner",
      "outputs": [
        {
          "internalType": "address",
          "name": "",
          "type": "address"
        }
      ],
      "stateMutability": "view",
      "type": "function"
    },
    {
      "inputs": [],
      "name": "renounceOwnership",
      "outputs": [],
      "stateMutability": "nonpayable",
      "type": "function"
    },
    {
      "inputs": [
        {
          "internalType": "address payable",
          "name": "_mintableToken",
          "type": "address"
        }
      ],
      "name": "setMintableAddress",
      "outputs": [],
      "stateMutability": "nonpayable",
      "type": "function"
    },
    {
      "inputs": [
        {
          "internalType": "address",
          "name": "newOwner",
          "type": "address"
        }
      ],
      "name": "transferOwnership",
      "outputs": [],
      "stateMutability": "nonpayable",
      "type": "function"
    }
  ],
  "bytecode": "0x608060405234801561001057600080fd5b50604051613a2e380380613a2e83398101604081905261002f916100ad565b6100383361005d565b600380546001600160a01b0319166001600160a01b03929092169190911790556100dd565b600080546001600160a01b038381166001600160a01b0319831681178455604051919092169283917f8be0079c531659141344cd1fd0a4f28419497f9722a3daafe3b4186f6b6457e09190a35050565b6000602082840312156100bf57600080fd5b81516001600160a01b03811681146100d657600080fd5b9392505050565b613942806100ec6000396000f3fe60806040523480156200001157600080fd5b5060043610620000875760003560e01c8063c555f8d41162000062578063c555f8d414620000d9578063d6d1c64214620000ff578063eec310421462000116578063f2fde38b146200012057600080fd5b8063715018a6146200008c578063896d517214620000985780638da5cb5b14620000af575b600080fd5b6200009662000137565b005b62000096620000a9366004620004c5565b6200014f565b6000546001600160a01b03165b6040516001600160a01b0390911681526020015b60405180910390f35b620000f0620000ea366004620004c5565b6200017b565b604051620000d09190620004ec565b620000bc62000110366004620005e6565b620001f3565b620000f06200030e565b6200009662000131366004620004c5565b62000372565b62000141620003f5565b6200014d600062000451565b565b62000159620003f5565b600380546001600160a01b0319166001600160a01b0392909216919091179055565b6001600160a01b038116600090815260026020908152604091829020805483518184028101840190945280845260609392830182828015620001e757602002820191906000526020600020905b81546001600160a01b03168152600190910190602001808311620001c8575b50505050509050919050565b6000808686868686600360009054906101000a90046001600160a01b0316336040516200022090620004a1565b62000232979695949392919062000717565b604051809103906000f0801580156200024f573d6000803e3d6000fd5b506001805480820182557fb10e2d527612073b26eecdfd717e6a320cf44b4afac2b0732d9fcbe2b7fa0cf60180546001600160a01b0384166001600160a01b03199182168117909255336000818152600260209081526040808320805497880181558352912090940180549092168317909155915192945084935090917f93a608c8bfcad69f5ee4571770f2e1a9aa36634ac23d49afc1c5085b7bfc2a0d90620002fc9042815260200190565b60405180910390a35095945050505050565b606060018054806020026020016040519081016040528092919081815260200182805480156200036857602002820191906000526020600020905b81546001600160a01b0316815260019091019060200180831162000349575b5050505050905090565b6200037c620003f5565b6001600160a01b038116620003e75760405162461bcd60e51b815260206004820152602660248201527f4f776e61626c653a206e6577206f776e657220697320746865207a65726f206160448201526564647265737360d01b60648201526084015b60405180910390fd5b620003f28162000451565b50565b6000546001600160a01b031633146200014d5760405162461bcd60e51b815260206004820181905260248201527f4f776e61626c653a2063616c6c6572206973206e6f7420746865206f776e65726044820152606401620003de565b600080546001600160a01b038381166001600160a01b0319831681178455604051919092169283917f8be0079c531659141344cd1fd0a4f28419497f9722a3daafe3b4186f6b6457e09190a35050565b61316880620007a583390190565b6001600160a01b0381168114620003f257600080fd5b600060208284031215620004d857600080fd5b8135620004e581620004af565b9392505050565b6020808252825182820181905260009190848201906040850190845b818110156200052f5783516001600160a01b03168352928401929184019160010162000508565b50909695505050505050565b634e487b7160e01b600052604160045260246000fd5b600082601f8301126200056357600080fd5b813567ffffffffffffffff808211156200058157620005816200053b565b604051601f8301601f19908116603f01168101908282118183101715620005ac57620005ac6200053b565b81604052838152866020858801011115620005c657600080fd5b836020870160208301376000602085830101528094505050505092915050565b600080600080600060a08688031215620005ff57600080fd5b853567ffffffffffffffff808211156200061857600080fd5b6200062689838a0162000551565b965060208801359150808211156200063d57600080fd5b6200064b89838a0162000551565b955060408801359150808211156200066257600080fd5b6200067089838a0162000551565b945060608801359150808211156200068757600080fd5b50620006968882890162000551565b92505060808601356bffffffffffffffffffffffff81168114620006b957600080fd5b809150509295509295909350565b6000815180845260005b81811015620006ef57602081850181015186830182015201620006d1565b8181111562000702576000602083870101525b50601f01601f19169290920160200192915050565b60e0815260006200072c60e083018a620006c7565b828103602084015262000740818a620006c7565b90508281036040840152620007568189620006c7565b905082810360608401526200076c8188620006c7565b6bffffffffffffffffffffffff96909616608084015250506001600160a01b0392831660a0820152911660c09091015294935050505056fe608060405260006010556013805460ff191690553480156200002057600080fd5b506040516200316838038062003168833981016040819052620000439162000394565b86868686868484816002908051906020019062000062929190620001ec565b50805162000078906003906020840190620001ec565b505050620000956200008f6200019660201b60201c565b6200019a565b6127106001600160601b03821611156200010a5760405162461bcd60e51b815260206004820152602c60248201527f455243373231426173653a20526f79616c7479206c696d6974206d757374206260448201526b652062656c6f77203130302560a01b606482015260840160405180910390fd5b600d80546001600160a01b0316600160a01b6001600160601b0384160217905582516200013f90600e906020860190620001ec565b5081516200015590600f906020850190620001ec565b505060138054610100600160a81b0319166101006001600160a01b03891602179055506200018992508391506200019a9050565b50505050505050620004c1565b3390565b600d80546001600160a01b038381166001600160a01b0319831681179093556040519116919082907f8be0079c531659141344cd1fd0a4f28419497f9722a3daafe3b4186f6b6457e090600090a35050565b828054620001fa9062000485565b90600052602060002090601f0160209004810192826200021e576000855562000269565b82601f106200023957805160ff191683800117855562000269565b8280016001018555821562000269579182015b82811115620002695782518255916020019190600101906200024c565b50620002779291506200027b565b5090565b5b808211156200027757600081556001016200027c565b634e487b7160e01b600052604160045260246000fd5b600082601f830112620002ba57600080fd5b81516001600160401b0380821115620002d757620002d762000292565b604051601f8301601f19908116603f0116810190828211818310171562000302576200030262000292565b816040528381526020925086838588010111156200031f57600080fd5b600091505b8382101562000343578582018301518183018401529082019062000324565b83821115620003555760008385830101525b9695505050505050565b80516001600160601b03811681146200037757600080fd5b919050565b80516001600160a01b03811681146200037757600080fd5b600080600080600080600060e0888a031215620003b057600080fd5b87516001600160401b0380821115620003c857600080fd5b620003d68b838c01620002a8565b985060208a0151915080821115620003ed57600080fd5b620003fb8b838c01620002a8565b975060408a01519150808211156200041257600080fd5b620004208b838c01620002a8565b965060608a01519150808211156200043757600080fd5b50620004468a828b01620002a8565b94505062000457608089016200035f565b92506200046760a089016200037c565b91506200047760c089016200037c565b905092959891949750929550565b600181811c908216806200049a57607f821691505b602082108103620004bb57634e487b7160e01b600052602260045260246000fd5b50919050565b612c9780620004d16000396000f3fe6080604052600436106102115760003560e01c806380dfe70a11610117578063c87b56dd116100a5578063e985e9c51161006c578063e985e9c514610664578063edec5f27146106ad578063f2fde38b146106cd578063f4f3b200146106ed578063f621cc481461070d57005b8063c87b56dd146105d0578063c9dc5bc6146105f0578063df4c21641461060a578063e1606d111461062f578063e8a3d4851461064f57005b80639717e5c8116100e95780639717e5c81461053b578063a22cb4651461055b578063b2e131111461057b578063b88d4fde1461059b578063c4efa665146105bb57005b806380dfe70a146104d35780638da5cb5b146104e8578063938e3d7b1461050657806395d89b411461052657005b80633ca5528a1161019f57806355f804b31161016657806355f804b31461042e5780636352211e1461044e5780636b3f4b3f1461046e57806370a082311461049e578063715018a6146104be57005b80633ca5528a146103a65780633ccfd60b146103b957806342842e0e146103ce57806342966c68146103ee5780634f6ccce71461040e57005b806318160ddd116101e357806318160ddd146102c95780631fe9f030146102e857806323b872dd146103275780632a55205a146103475780632f745c591461038657005b806301ffc9a71461021a57806306fdde031461024f578063081812fc14610271578063095ea7b3146102a957005b3661021857005b005b34801561022657600080fd5b5061023a6102353660046124bb565b61073d565b60405190151581526020015b60405180910390f35b34801561025b57600080fd5b5061026461074e565b6040516102469190612530565b34801561027d57600080fd5b5061029161028c366004612543565b6107e0565b6040516001600160a01b039091168152602001610246565b3480156102b557600080fd5b506102186102c4366004612571565b610807565b3480156102d557600080fd5b50600a545b604051908152602001610246565b3480156102f457600080fd5b50600d5461030f90600160a01b90046001600160601b031681565b6040516001600160601b039091168152602001610246565b34801561033357600080fd5b5061021861034236600461259d565b610921565b34801561035357600080fd5b506103676103623660046125de565b610953565b604080516001600160a01b039093168352602083019190915201610246565b34801561039257600080fd5b506102da6103a1366004612571565b6109ff565b6102da6103b43660046126db565b610a95565b3480156103c557600080fd5b50610218610c37565b3480156103da57600080fd5b506102186103e936600461259d565b610c6e565b3480156103fa57600080fd5b50610218610409366004612543565b610c89565b34801561041a57600080fd5b506102da610429366004612543565b610cb7565b34801561043a57600080fd5b5061021861044936600461273d565b610d4a565b34801561045a57600080fd5b50610291610469366004612543565b610d69565b34801561047a57600080fd5b5061023a610489366004612543565b60116020526000908152604090205460ff1681565b3480156104aa57600080fd5b506102da6104b9366004612772565b610dc9565b3480156104ca57600080fd5b50610218610e4f565b3480156104df57600080fd5b50610218610e63565b3480156104f457600080fd5b50600d546001600160a01b0316610291565b34801561051257600080fd5b5061021861052136600461273d565b610e7f565b34801561053257600080fd5b50610264610e9a565b34801561054757600080fd5b5061021861055636600461278f565b610ea9565b34801561056757600080fd5b506102186105763660046127b8565b610f49565b34801561058757600080fd5b506102186105963660046127f1565b610f54565b3480156105a757600080fd5b506102186105b63660046128a3565b610fc4565b3480156105c757600080fd5b506102da606481565b3480156105dc57600080fd5b506102646105eb366004612543565b610ffc565b3480156105fc57600080fd5b5060135461023a9060ff1681565b34801561061657600080fd5b506013546102919061010090046001600160a01b031681565b34801561063b57600080fd5b506102da61064a366004612923565b611007565b34801561065b57600080fd5b506102646110fc565b34801561067057600080fd5b5061023a61067f366004612996565b6001600160a01b03918216600090815260076020908152604080832093909416825291909152205460ff1690565b3480156106b957600080fd5b506102186106c83660046127f1565b61118a565b3480156106d957600080fd5b506102186106e8366004612772565b6111fa565b3480156106f957600080fd5b50610218610708366004612772565b611270565b34801561071957600080fd5b5061023a610728366004612772565b60126020526000908152604090205460ff1681565b60006107488261135b565b92915050565b60606002805461075d906129c4565b80601f0160208091040260200160405190810160405280929190818152602001828054610789906129c4565b80156107d65780601f106107ab576101008083540402835291602001916107d6565b820191906000526020600020905b8154815290600101906020018083116107b957829003601f168201915b5050505050905090565b60006107eb82611366565b506000908152600660205260409020546001600160a01b031690565b600061081282610d69565b9050806001600160a01b0316836001600160a01b0316036108845760405162461bcd60e51b815260206004820152602160248201527f4552433732313a20617070726f76616c20746f2063757272656e74206f776e656044820152603960f91b60648201526084015b60405180910390fd5b336001600160a01b03821614806108a057506108a0813361067f565b6109125760405162461bcd60e51b815260206004820152603e60248201527f4552433732313a20617070726f76652063616c6c6572206973206e6f7420746f60448201527f6b656e206f776e6572206e6f7220617070726f76656420666f7220616c6c0000606482015260840161087b565b61091c83836113c5565b505050565b61092c335b82611433565b6109485760405162461bcd60e51b815260040161087b906129fe565b61091c8383836114b1565b60008281526001602090815260408083208151808301909252546001600160a01b038116808352600160a01b9091046001600160601b03169282019290925282916109c85750604080518082019091526000546001600160a01b0381168252600160a01b90046001600160601b031660208201525b6020810151600090612710906109e7906001600160601b031687612a62565b6109f19190612a97565b915196919550909350505050565b6000610a0a83610dc9565b8210610a6c5760405162461bcd60e51b815260206004820152602b60248201527f455243373231456e756d657261626c653a206f776e657220696e646578206f7560448201526a74206f6620626f756e647360a81b606482015260840161087b565b506001600160a01b03919091166000908152600860209081526040808320938352929052205490565b6000601360019054906101000a90046001600160a01b03166001600160a01b0316633148a0f56040518163ffffffff1660e01b8152600401602060405180830381865afa158015610aea573d6000803e3d6000fd5b505050506040513d601f19601f82011682018060405250810190610b0e9190612aab565b341015610b705760405162461bcd60e51b815260206004820152602a60248201527f455243373231436f6c6c656374696f6e3a204d696e74696e67206368617267656044820152691cc81c995c5d5a5c995960b21b606482015260840161087b565b6000610b7d838587611658565b9050601360019054906101000a90046001600160a01b03166001600160a01b031663abff01106040518163ffffffff1660e01b8152600401602060405180830381865afa158015610bd2573d6000803e3d6000fd5b505050506040513d601f19601f82011682018060405250810190610bf69190612ac4565b6001600160a01b03166108fc349081150290604051600060405180830381858888f19350505050158015610c2e573d6000803e3d6000fd5b50949350505050565b610c3f6117cc565b60405133904780156108fc02916000818181858888f19350505050158015610c6b573d6000803e3d6000fd5b50565b61091c83838360405180602001604052806000815250610fc4565b610c9233610926565b610cae5760405162461bcd60e51b815260040161087b906129fe565b610c6b81611826565b6000610cc2600a5490565b8210610d255760405162461bcd60e51b815260206004820152602c60248201527f455243373231456e756d657261626c653a20676c6f62616c20696e646578206f60448201526b7574206f6620626f756e647360a01b606482015260840161087b565b600a8281548110610d3857610d38612ae1565b90600052602060002001549050919050565b610d526117cc565b8051610d6590600f9060208401906123d6565b5050565b6000818152600460205260408120546001600160a01b0316806107485760405162461bcd60e51b8152602060048201526018602482015277115490cdcc8c4e881a5b9d985b1a59081d1bdad95b88125160421b604482015260640161087b565b60006001600160a01b038216610e335760405162461bcd60e51b815260206004820152602960248201527f4552433732313a2061646472657373207a65726f206973206e6f7420612076616044820152683634b21037bbb732b960b91b606482015260840161087b565b506001600160a01b031660009081526005602052604090205490565b610e576117cc565b610e61600061182f565b565b610e6b6117cc565b6013805460ff19811660ff90911615179055565b610e876117cc565b8051610d6590600e9060208401906123d6565b60606003805461075d906129c4565b610eb16117cc565b6127106001600160601b0382161115610f215760405162461bcd60e51b815260206004820152602c60248201527f455243373231426173653a20526f79616c7479206c696d6974206d757374206260448201526b652062656c6f77203130302560a01b606482015260840161087b565b600d80546001600160601b03909216600160a01b026001600160a01b03909216919091179055565b610d65338383611881565b610f5c6117cc565b60005b8151811015610d6557600060126000848481518110610f8057610f80612ae1565b6020908102919091018101516001600160a01b03168252810191909152604001600020805460ff191691151591909117905580610fbc81612af7565b915050610f5f565b610fce3383611433565b610fea5760405162461bcd60e51b815260040161087b906129fe565b610ff68484848461194f565b50505050565b606061074882611982565b601354604051635e0b884560e01b815233600482015260009161010090046001600160a01b031690635e0b884590602401602060405180830381865afa158015611055573d6000803e3d6000fd5b505050506040513d601f19601f820116820180604052508101906110799190612b10565b6110d75760405162461bcd60e51b815260206004820152602960248201527f455243373231436f6c6c656374696f6e3a20496e7465726e616c20636f6e747260448201526861637473206f6e6c7960b81b606482015260840161087b565b60006110e4848688611658565b90506110f18484836114b1565b90505b949350505050565b600e8054611109906129c4565b80601f0160208091040260200160405190810160405280929190818152602001828054611135906129c4565b80156111825780601f1061115757610100808354040283529160200191611182565b820191906000526020600020905b81548152906001019060200180831161116557829003601f168201915b505050505081565b6111926117cc565b60005b8151811015610d65576001601260008484815181106111b6576111b6612ae1565b6020908102919091018101516001600160a01b03168252810191909152604001600020805460ff1916911515919091179055806111f281612af7565b915050611195565b6112026117cc565b6001600160a01b0381166112675760405162461bcd60e51b815260206004820152602660248201527f4f776e61626c653a206e6577206f776e657220697320746865207a65726f206160448201526564647265737360d01b606482015260840161087b565b610c6b8161182f565b6112786117cc565b6040516370a0823160e01b815230600482015281906001600160a01b0382169063a9059cbb90339083906370a0823190602401602060405180830381865afa1580156112c8573d6000803e3d6000fd5b505050506040513d601f19601f820116820180604052508101906112ec9190612aab565b6040516001600160e01b031960e085901b1681526001600160a01b03909216600483015260248201526044016020604051808303816000875af1158015611337573d6000803e3d6000fd5b505050506040513d601f19601f8201168201806040525081019061091c9190612b10565b600061074882611a7d565b6000818152600460205260409020546001600160a01b0316610c6b5760405162461bcd60e51b8152602060048201526018602482015277115490cdcc8c4e881a5b9d985b1a59081d1bdad95b88125160421b604482015260640161087b565b600081815260066020526040902080546001600160a01b0319166001600160a01b03841690811790915581906113fa82610d69565b6001600160a01b03167f8c5be1e5ebec7d5bd14f71427d1e84f3dd0314c0f7b2291e5b200ac8c7c3b92560405160405180910390a45050565b60008061143f83610d69565b9050806001600160a01b0316846001600160a01b0316148061148657506001600160a01b0380821660009081526007602090815260408083209388168352929052205460ff165b806110f45750836001600160a01b031661149f846107e0565b6001600160a01b031614949350505050565b826001600160a01b03166114c482610d69565b6001600160a01b0316146115285760405162461bcd60e51b815260206004820152602560248201527f4552433732313a207472616e736665722066726f6d20696e636f72726563742060448201526437bbb732b960d91b606482015260840161087b565b6001600160a01b03821661158a5760405162461bcd60e51b8152602060048201526024808201527f4552433732313a207472616e7366657220746f20746865207a65726f206164646044820152637265737360e01b606482015260840161087b565b611595838383611aa2565b6115a06000826113c5565b6001600160a01b03831660009081526005602052604081208054600192906115c9908490612b2d565b90915550506001600160a01b03821660009081526005602052604081208054600192906115f7908490612b44565b909155505060008181526004602052604080822080546001600160a01b0319166001600160a01b0386811691821790925591518493918716917fddf252ad1be2c89b69c2b068fc378daa952ba7f163c4a11628f55a4df523b3ef91a4505050565b6001600160a01b038316600090815260126020526040812054849060ff16806116a35750806001600160a01b0316611698600d546001600160a01b031690565b6001600160a01b0316145b806116b0575060135460ff165b6117085760405162461bcd60e51b815260206004820152602360248201527f455243373231426173653a2057686974656c6973746564207573657273206f6e604482015262363c9760e91b606482015260840161087b565b600d546001600160601b03600160a01b909104811690851611156117865760405162461bcd60e51b815260206004820152602f60248201527f455243373231426173653a20526f79616c7479206d7573742062652062656c6f60448201526e1dc81c9bde585b1d1e481b1a5b5a5d608a1b606482015260840161087b565b6010805490600061179683612af7565b91905055506117a785601054611aad565b6117b46010548686611bfb565b6117c060105484611d09565b50506010549392505050565b600d546001600160a01b03163314610e615760405162461bcd60e51b815260206004820181905260248201527f4f776e61626c653a2063616c6c6572206973206e6f7420746865206f776e6572604482015260640161087b565b610c6b81611da3565b600d80546001600160a01b038381166001600160a01b0319831681179093556040519116919082907f8be0079c531659141344cd1fd0a4f28419497f9722a3daafe3b4186f6b6457e090600090a35050565b816001600160a01b0316836001600160a01b0316036118e25760405162461bcd60e51b815260206004820152601960248201527f4552433732313a20617070726f766520746f2063616c6c657200000000000000604482015260640161087b565b6001600160a01b03838116600081815260076020908152604080832094871680845294825291829020805460ff191686151590811790915591519182527f17307eab39ab6107e8899845ad3d59bd9653f200f220920489ca2b5937696c31910160405180910390a3505050565b61195a8484846114b1565b61196684848484611de3565b610ff65760405162461bcd60e51b815260040161087b90612b5c565b606061198d82611366565b6000828152600c6020526040812080546119a6906129c4565b80601f01602080910402602001604051908101604052809291908181526020018280546119d2906129c4565b8015611a1f5780601f106119f457610100808354040283529160200191611a1f565b820191906000526020600020905b815481529060010190602001808311611a0257829003601f168201915b505050505090506000611a30611ee1565b90508051600003611a42575092915050565b815115611a74578082604051602001611a5c929190612bae565b60405160208183030381529060405292505050919050565b6110f484611ef0565b60006001600160e01b0319821663780e9d6360e01b1480610748575061074882611f57565b61091c838383611f97565b6001600160a01b038216611b035760405162461bcd60e51b815260206004820181905260248201527f4552433732313a206d696e7420746f20746865207a65726f2061646472657373604482015260640161087b565b6000818152600460205260409020546001600160a01b031615611b685760405162461bcd60e51b815260206004820152601c60248201527f4552433732313a20746f6b656e20616c7265616479206d696e74656400000000604482015260640161087b565b611b7460008383611aa2565b6001600160a01b0382166000908152600560205260408120805460019290611b9d908490612b44565b909155505060008181526004602052604080822080546001600160a01b0319166001600160a01b03861690811790915590518392907fddf252ad1be2c89b69c2b068fc378daa952ba7f163c4a11628f55a4df523b3ef908290a45050565b6127106001600160601b0382161115611c695760405162461bcd60e51b815260206004820152602a60248201527f455243323938313a20726f79616c7479206665652077696c6c206578636565646044820152692073616c65507269636560b01b606482015260840161087b565b6001600160a01b038216611cbf5760405162461bcd60e51b815260206004820152601b60248201527f455243323938313a20496e76616c696420706172616d65746572730000000000604482015260640161087b565b6040805180820182526001600160a01b0393841681526001600160601b0392831660208083019182526000968752600190529190942093519051909116600160a01b029116179055565b6000828152600460205260409020546001600160a01b0316611d845760405162461bcd60e51b815260206004820152602e60248201527f45524337323155524953746f726167653a2055524920736574206f66206e6f6e60448201526d32bc34b9ba32b73a103a37b5b2b760911b606482015260840161087b565b6000828152600c60209081526040909120825161091c928401906123d6565b611dac8161204f565b6000818152600c602052604090208054611dc5906129c4565b159050610c6b576000818152600c60205260408120610c6b9161245a565b60006001600160a01b0384163b15611ed957604051630a85bd0160e11b81526001600160a01b0385169063150b7a0290611e27903390899088908890600401612bdd565b6020604051808303816000875af1925050508015611e62575060408051601f3d908101601f19168201909252611e5f91810190612c1a565b60015b611ebf573d808015611e90576040519150601f19603f3d011682016040523d82523d6000602084013e611e95565b606091505b508051600003611eb75760405162461bcd60e51b815260040161087b90612b5c565b805181602001fd5b6001600160e01b031916630a85bd0160e11b1490506110f4565b5060016110f4565b6060600f805461075d906129c4565b6060611efb82611366565b6000611f05611ee1565b90506000815111611f255760405180602001604052806000815250611f50565b80611f2f84612069565b604051602001611f40929190612bae565b6040516020818303038152906040525b9392505050565b60006001600160e01b031982166380ac58cd60e01b1480611f8857506001600160e01b03198216635b5e139f60e01b145b8061074857506107488261216a565b6001600160a01b038316611ff257611fed81600a80546000838152600b60205260408120829055600182018355919091527fc65a7bb8d6351c1cf70c95a316cc6a92839c986682d98bc35f958f4883f9d2a80155565b612015565b816001600160a01b0316836001600160a01b03161461201557612015838261219f565b6001600160a01b03821661202c5761091c8161223c565b826001600160a01b0316826001600160a01b03161461091c5761091c82826122eb565b6120588161232f565b600090815260016020526040812055565b6060816000036120905750506040805180820190915260018152600360fc1b602082015290565b8160005b81156120ba57806120a481612af7565b91506120b39050600a83612a97565b9150612094565b60008167ffffffffffffffff8111156120d5576120d5612600565b6040519080825280601f01601f1916602001820160405280156120ff576020820181803683370190505b5090505b84156110f457612114600183612b2d565b9150612121600a86612c37565b61212c906030612b44565b60f81b81838151811061214157612141612ae1565b60200101906001600160f81b031916908160001a905350612163600a86612a97565b9450612103565b60006001600160e01b0319821663152a902d60e11b148061074857506301ffc9a760e01b6001600160e01b0319831614610748565b600060016121ac84610dc9565b6121b69190612b2d565b600083815260096020526040902054909150808214612209576001600160a01b03841660009081526008602090815260408083208584528252808320548484528184208190558352600990915290208190555b5060009182526009602090815260408084208490556001600160a01b039094168352600881528383209183525290812055565b600a5460009061224e90600190612b2d565b6000838152600b6020526040812054600a805493945090928490811061227657612276612ae1565b9060005260206000200154905080600a838154811061229757612297612ae1565b6000918252602080832090910192909255828152600b9091526040808220849055858252812055600a8054806122cf576122cf612c4b565b6001900381819060005260206000200160009055905550505050565b60006122f683610dc9565b6001600160a01b039093166000908152600860209081526040808320868452825280832085905593825260099052919091209190915550565b600061233a82610d69565b905061234881600084611aa2565b6123536000836113c5565b6001600160a01b038116600090815260056020526040812080546001929061237c908490612b2d565b909155505060008281526004602052604080822080546001600160a01b0319169055518391906001600160a01b038416907fddf252ad1be2c89b69c2b068fc378daa952ba7f163c4a11628f55a4df523b3ef908390a45050565b8280546123e2906129c4565b90600052602060002090601f016020900481019282612404576000855561244a565b82601f1061241d57805160ff191683800117855561244a565b8280016001018555821561244a579182015b8281111561244a57825182559160200191906001019061242f565b50612456929150612490565b5090565b508054612466906129c4565b6000825580601f10612476575050565b601f016020900490600052602060002090810190610c6b91905b5b808211156124565760008155600101612491565b6001600160e01b031981168114610c6b57600080fd5b6000602082840312156124cd57600080fd5b8135611f50816124a5565b60005b838110156124f35781810151838201526020016124db565b83811115610ff65750506000910152565b6000815180845261251c8160208601602086016124d8565b601f01601f19169290920160200192915050565b602081526000611f506020830184612504565b60006020828403121561255557600080fd5b5035919050565b6001600160a01b0381168114610c6b57600080fd5b6000806040838503121561258457600080fd5b823561258f8161255c565b946020939093013593505050565b6000806000606084860312156125b257600080fd5b83356125bd8161255c565b925060208401356125cd8161255c565b929592945050506040919091013590565b600080604083850312156125f157600080fd5b50508035926020909101359150565b634e487b7160e01b600052604160045260246000fd5b604051601f8201601f1916810167ffffffffffffffff8111828210171561263f5761263f612600565b604052919050565b600067ffffffffffffffff83111561266157612661612600565b612674601f8401601f1916602001612616565b905082815283838301111561268857600080fd5b828260208301376000602084830101529392505050565b600082601f8301126126b057600080fd5b611f5083833560208501612647565b80356001600160601b03811681146126d657600080fd5b919050565b6000806000606084860312156126f057600080fd5b833567ffffffffffffffff81111561270757600080fd5b6127138682870161269f565b935050612722602085016126bf565b915060408401356127328161255c565b809150509250925092565b60006020828403121561274f57600080fd5b813567ffffffffffffffff81111561276657600080fd5b6110f48482850161269f565b60006020828403121561278457600080fd5b8135611f508161255c565b6000602082840312156127a157600080fd5b611f50826126bf565b8015158114610c6b57600080fd5b600080604083850312156127cb57600080fd5b82356127d68161255c565b915060208301356127e6816127aa565b809150509250929050565b6000602080838503121561280457600080fd5b823567ffffffffffffffff8082111561281c57600080fd5b818501915085601f83011261283057600080fd5b81358181111561284257612842612600565b8060051b9150612853848301612616565b818152918301840191848101908884111561286d57600080fd5b938501935b8385101561289757843592506128878361255c565b8282529385019390850190612872565b98975050505050505050565b600080600080608085870312156128b957600080fd5b84356128c48161255c565b935060208501356128d48161255c565b925060408501359150606085013567ffffffffffffffff8111156128f757600080fd5b8501601f8101871361290857600080fd5b61291787823560208401612647565b91505092959194509250565b6000806000806080858703121561293957600080fd5b843567ffffffffffffffff81111561295057600080fd5b61295c8782880161269f565b94505061296b602086016126bf565b9250604085013561297b8161255c565b9150606085013561298b8161255c565b939692955090935050565b600080604083850312156129a957600080fd5b82356129b48161255c565b915060208301356127e68161255c565b600181811c908216806129d857607f821691505b6020821081036129f857634e487b7160e01b600052602260045260246000fd5b50919050565b6020808252602e908201527f4552433732313a2063616c6c6572206973206e6f7420746f6b656e206f776e6560408201526d1c881b9bdc88185c1c1c9bdd995960921b606082015260800190565b634e487b7160e01b600052601160045260246000fd5b6000816000190483118215151615612a7c57612a7c612a4c565b500290565b634e487b7160e01b600052601260045260246000fd5b600082612aa657612aa6612a81565b500490565b600060208284031215612abd57600080fd5b5051919050565b600060208284031215612ad657600080fd5b8151611f508161255c565b634e487b7160e01b600052603260045260246000fd5b600060018201612b0957612b09612a4c565b5060010190565b600060208284031215612b2257600080fd5b8151611f50816127aa565b600082821015612b3f57612b3f612a4c565b500390565b60008219821115612b5757612b57612a4c565b500190565b60208082526032908201527f4552433732313a207472616e7366657220746f206e6f6e20455243373231526560408201527131b2b4bb32b91034b6b83632b6b2b73a32b960711b606082015260800190565b60008351612bc08184602088016124d8565b835190830190612bd48183602088016124d8565b01949350505050565b6001600160a01b0385811682528416602082015260408101839052608060608201819052600090612c1090830184612504565b9695505050505050565b600060208284031215612c2c57600080fd5b8151611f50816124a5565b600082612c4657612c46612a81565b500690565b634e487b7160e01b600052603160045260246000fdfea264697066735822122016aca875dfc2d6d1ff77fe4f35ccfe1f0da092a43a8604b98cb7841d59b19fe564736f6c634300080d0033a264697066735822122079ec3cd377b8c499e08d31cab4060787413c407b487edc8aee00ba74a4146bdd64736f6c634300080d0033",
  "linkReferences": {},
  "deployedLinkReferences": {}
}