{
  "_format": "hh-sol-artifact-1",
  "contractName": "ERC721BaseUpgradeable",
  "sourceName": "contracts/ERC721BaseUpgradeable.sol",
  "abi": [
    {
      "anonymous": false,
      "inputs": [
        {
          "indexed": true,
          "internalType": "address",
          "name": "owner",
          "type": "address"
        },
        {
          "indexed": true,
          "internalType": "address",
          "name": "approved",
          "type": "address"
        },
        {
          "indexed": true,
          "internalType": "uint256",
          "name": "tokenId",
          "type": "uint256"
        }
      ],
      "name": "Approval",
      "type": "event"
    },
    {
      "anonymous": false,
      "inputs": [
        {
          "indexed": true,
          "internalType": "address",
          "name": "owner",
          "type": "address"
        },
        {
          "indexed": true,
          "internalType": "address",
          "name": "operator",
          "type": "address"
        },
        {
          "indexed": false,
          "internalType": "bool",
          "name": "approved",
          "type": "bool"
        }
      ],
      "name": "ApprovalForAll",
      "type": "event"
    },
    {
      "anonymous": false,
      "inputs": [
        {
          "indexed": false,
          "internalType": "uint8",
          "name": "version",
          "type": "uint8"
        }
      ],
      "name": "Initialized",
      "type": "event"
    },
    {
      "anonymous": false,
      "inputs": [
        {
          "indexed": true,
          "internalType": "address",
          "name": "previousOwner",
          "type": "address"
        },
        {
          "indexed": true,
          "internalType": "address",
          "name": "newOwner",
          "type": "address"
        }
      ],
      "name": "OwnershipTransferred",
      "type": "event"
    },
    {
      "anonymous": false,
      "inputs": [
        {
          "indexed": true,
          "internalType": "address",
          "name": "from",
          "type": "address"
        },
        {
          "indexed": true,
          "internalType": "address",
          "name": "to",
          "type": "address"
        },
        {
          "indexed": true,
          "internalType": "uint256",
          "name": "tokenId",
          "type": "uint256"
        }
      ],
      "name": "Transfer",
      "type": "event"
    },
    {
      "stateMutability": "payable",
      "type": "fallback"
    },
    {
      "inputs": [
        {
          "internalType": "address",
          "name": "to",
          "type": "address"
        },
        {
          "internalType": "uint256",
          "name": "tokenId",
          "type": "uint256"
        }
      ],
      "name": "approve",
      "outputs": [],
      "stateMutability": "nonpayable",
      "type": "function"
    },
    {
      "inputs": [
        {
          "internalType": "address",
          "name": "owner",
          "type": "address"
        }
      ],
      "name": "balanceOf",
      "outputs": [
        {
          "internalType": "uint256",
          "name": "",
          "type": "uint256"
        }
      ],
      "stateMutability": "view",
      "type": "function"
    },
    {
      "inputs": [
        {
          "internalType": "uint256",
          "name": "tokenId",
          "type": "uint256"
        }
      ],
      "name": "burn",
      "outputs": [],
      "stateMutability": "nonpayable",
      "type": "function"
    },
    {
      "inputs": [],
      "name": "contractURI",
      "outputs": [
        {
          "internalType": "string",
          "name": "",
          "type": "string"
        }
      ],
      "stateMutability": "view",
      "type": "function"
    },
    {
      "inputs": [
        {
          "internalType": "uint256",
          "name": "tokenId",
          "type": "uint256"
        }
      ],
      "name": "getApproved",
      "outputs": [
        {
          "internalType": "address",
          "name": "",
          "type": "address"
        }
      ],
      "stateMutability": "view",
      "type": "function"
    },
    {
      "inputs": [
        {
          "internalType": "address",
          "name": "owner",
          "type": "address"
        },
        {
          "internalType": "address",
          "name": "operator",
          "type": "address"
        }
      ],
      "name": "isApprovedForAll",
      "outputs": [
        {
          "internalType": "bool",
          "name": "",
          "type": "bool"
        }
      ],
      "stateMutability": "view",
      "type": "function"
    },
    {
      "inputs": [
        {
          "internalType": "uint256",
          "name": "",
          "type": "uint256"
        }
      ],
      "name": "isNonceProcessed",
      "outputs": [
        {
          "internalType": "bool",
          "name": "",
          "type": "bool"
        }
      ],
      "stateMutability": "view",
      "type": "function"
    },
    {
      "inputs": [],
      "name": "name",
      "outputs": [
        {
          "internalType": "string",
          "name": "",
          "type": "string"
        }
      ],
      "stateMutability": "view",
      "type": "function"
    },
    {
      "inputs": [],
      "name": "openForAll",
      "outputs": [
        {
          "internalType": "bool",
          "name": "",
          "type": "bool"
        }
      ],
      "stateMutability": "view",
      "type": "function"
    },
    {
      "inputs": [],
      "name": "owner",
      "outputs": [
        {
          "internalType": "address",
          "name": "",
          "type": "address"
        }
      ],
      "stateMutability": "view",
      "type": "function"
    },
    {
      "inputs": [
        {
          "internalType": "uint256",
          "name": "tokenId",
          "type": "uint256"
        }
      ],
      "name": "ownerOf",
      "outputs": [
        {
          "internalType": "address",
          "name": "",
          "type": "address"
        }
      ],
      "stateMutability": "view",
      "type": "function"
    },
    {
      "inputs": [
        {
          "internalType": "address[]",
          "name": "users",
          "type": "address[]"
        }
      ],
      "name": "removeWhitelistUsers",
      "outputs": [],
      "stateMutability": "nonpayable",
      "type": "function"
    },
    {
      "inputs": [],
      "name": "renounceOwnership",
      "outputs": [],
      "stateMutability": "nonpayable",
      "type": "function"
    },
    {
      "inputs": [
        {
          "internalType": "uint256",
          "name": "_tokenId",
          "type": "uint256"
        },
        {
          "internalType": "uint256",
          "name": "_salePrice",
          "type": "uint256"
        }
      ],
      "name": "royaltyInfo",
      "outputs": [
        {
          "internalType": "address",
          "name": "",
          "type": "address"
        },
        {
          "internalType": "uint256",
          "name": "",
          "type": "uint256"
        }
      ],
      "stateMutability": "view",
      "type": "function"
    },
    {
      "inputs": [],
      "name": "royaltyLimit",
      "outputs": [
        {
          "internalType": "uint96",
          "name": "",
          "type": "uint96"
        }
      ],
      "stateMutability": "view",
      "type": "function"
    },
    {
      "inputs": [
        {
          "internalType": "address",
          "name": "from",
          "type": "address"
        },
        {
          "internalType": "address",
          "name": "to",
          "type": "address"
        },
        {
          "internalType": "uint256",
          "name": "tokenId",
          "type": "uint256"
        }
      ],
      "name": "safeTransferFrom",
      "outputs": [],
      "stateMutability": "nonpayable",
      "type": "function"
    },
    {
      "inputs": [
        {
          "internalType": "address",
          "name": "from",
          "type": "address"
        },
        {
          "internalType": "address",
          "name": "to",
          "type": "address"
        },
        {
          "internalType": "uint256",
          "name": "tokenId",
          "type": "uint256"
        },
        {
          "internalType": "bytes",
          "name": "data",
          "type": "bytes"
        }
      ],
      "name": "safeTransferFrom",
      "outputs": [],
      "stateMutability": "nonpayable",
      "type": "function"
    },
    {
      "inputs": [
        {
          "internalType": "address",
          "name": "operator",
          "type": "address"
        },
        {
          "internalType": "bool",
          "name": "approved",
          "type": "bool"
        }
      ],
      "name": "setApprovalForAll",
      "outputs": [],
      "stateMutability": "nonpayable",
      "type": "function"
    },
    {
      "inputs": [
        {
          "internalType": "string",
          "name": "_baseURI_",
          "type": "string"
        }
      ],
      "name": "setBaseURI",
      "outputs": [],
      "stateMutability": "nonpayable",
      "type": "function"
    },
    {
      "inputs": [
        {
          "internalType": "string",
          "name": "_contractURI",
          "type": "string"
        }
      ],
      "name": "setContractURI",
      "outputs": [],
      "stateMutability": "nonpayable",
      "type": "function"
    },
    {
      "inputs": [
        {
          "internalType": "uint96",
          "name": "_royaltyLimit",
          "type": "uint96"
        }
      ],
      "name": "setRoyaltyLimit",
      "outputs": [],
      "stateMutability": "nonpayable",
      "type": "function"
    },
    {
      "inputs": [
        {
          "internalType": "bytes4",
          "name": "interfaceId",
          "type": "bytes4"
        }
      ],
      "name": "supportsInterface",
      "outputs": [
        {
          "internalType": "bool",
          "name": "",
          "type": "bool"
        }
      ],
      "stateMutability": "view",
      "type": "function"
    },
    {
      "inputs": [],
      "name": "symbol",
      "outputs": [
        {
          "internalType": "string",
          "name": "",
          "type": "string"
        }
      ],
      "stateMutability": "view",
      "type": "function"
    },
    {
      "inputs": [],
      "name": "toggleOpenForAll",
      "outputs": [],
      "stateMutability": "nonpayable",
      "type": "function"
    },
    {
      "inputs": [
        {
          "internalType": "uint256",
          "name": "index",
          "type": "uint256"
        }
      ],
      "name": "tokenByIndex",
      "outputs": [
        {
          "internalType": "uint256",
          "name": "",
          "type": "uint256"
        }
      ],
      "stateMutability": "view",
      "type": "function"
    },
    {
      "inputs": [
        {
          "internalType": "address",
          "name": "owner",
          "type": "address"
        },
        {
          "internalType": "uint256",
          "name": "index",
          "type": "uint256"
        }
      ],
      "name": "tokenOfOwnerByIndex",
      "outputs": [
        {
          "internalType": "uint256",
          "name": "",
          "type": "uint256"
        }
      ],
      "stateMutability": "view",
      "type": "function"
    },
    {
      "inputs": [
        {
          "internalType": "uint256",
          "name": "tokenId",
          "type": "uint256"
        }
      ],
      "name": "tokenURI",
      "outputs": [
        {
          "internalType": "string",
          "name": "",
          "type": "string"
        }
      ],
      "stateMutability": "view",
      "type": "function"
    },
    {
      "inputs": [],
      "name": "totalSupply",
      "outputs": [
        {
          "internalType": "uint256",
          "name": "",
          "type": "uint256"
        }
      ],
      "stateMutability": "view",
      "type": "function"
    },
    {
      "inputs": [
        {
          "internalType": "address",
          "name": "from",
          "type": "address"
        },
        {
          "internalType": "address",
          "name": "to",
          "type": "address"
        },
        {
          "internalType": "uint256",
          "name": "tokenId",
          "type": "uint256"
        }
      ],
      "name": "transferFrom",
      "outputs": [],
      "stateMutability": "nonpayable",
      "type": "function"
    },
    {
      "inputs": [
        {
          "internalType": "address",
          "name": "newOwner",
          "type": "address"
        }
      ],
      "name": "transferOwnership",
      "outputs": [],
      "stateMutability": "nonpayable",
      "type": "function"
    },
    {
      "inputs": [
        {
          "internalType": "address[]",
          "name": "users",
          "type": "address[]"
        }
      ],
      "name": "whitelistUsers",
      "outputs": [],
      "stateMutability": "nonpayable",
      "type": "function"
    },
    {
      "inputs": [
        {
          "internalType": "address",
          "name": "",
          "type": "address"
        }
      ],
      "name": "whitelistedUsers",
      "outputs": [
        {
          "internalType": "bool",
          "name": "",
          "type": "bool"
        }
      ],
      "stateMutability": "view",
      "type": "function"
    },
    {
      "inputs": [],
      "name": "withdraw",
      "outputs": [],
      "stateMutability": "nonpayable",
      "type": "function"
    },
    {
      "inputs": [
        {
          "internalType": "address",
          "name": "_erc20",
          "type": "address"
        }
      ],
      "name": "withdrawERC20",
      "outputs": [],
      "stateMutability": "nonpayable",
      "type": "function"
    },
    {
      "stateMutability": "payable",
      "type": "receive"
    }
  ],
  "bytecode": "0x608060405234801561001057600080fd5b506123f7806100206000396000f3fe6080604052600436106101e55760003560e01c8063715018a611610101578063b88d4fde1161009a578063e985e9c51161006c578063e985e9c5146105c8578063edec5f2714610611578063f2fde38b14610631578063f4f3b20014610651578063f621cc481461067157005b8063b88d4fde14610558578063c87b56dd14610578578063c9dc5bc614610598578063e8a3d485146105b357005b806395d89b41116100d357806395d89b41146104e35780639717e5c8146104f8578063a22cb46514610518578063b2e131111461053857005b8063715018a61461047a57806380dfe70a1461048f5780638da5cb5b146104a4578063938e3d7b146104c357005b80632f745c591161017e5780634f6ccce7116101505780634f6ccce7146103c957806355f804b3146103e95780636352211e146104095780636b3f4b3f1461042957806370a082311461045a57005b80632f745c59146103545780633ccfd60b1461037457806342842e0e1461038957806342966c68146103a957005b806318160ddd116101b757806318160ddd1461029d5780631fe9f030146102bc57806323b872dd146102f55780632a55205a1461031557005b806301ffc9a7146101ee57806306fdde0314610223578063081812fc14610245578063095ea7b31461027d57005b366101ec57005b005b3480156101fa57600080fd5b5061020e610209366004611d2f565b6106a2565b60405190151581526020015b60405180910390f35b34801561022f57600080fd5b506102386106b3565b60405161021a9190611da4565b34801561025157600080fd5b50610265610260366004611db7565b610745565b6040516001600160a01b03909116815260200161021a565b34801561028957600080fd5b506101ec610298366004611dec565b61076c565b3480156102a957600080fd5b5060cb545b60405190815260200161021a565b3480156102c857600080fd5b506101c3546102dd906001600160601b031681565b6040516001600160601b03909116815260200161021a565b34801561030157600080fd5b506101ec610310366004611e16565b610886565b34801561032157600080fd5b50610335610330366004611e52565b6108b8565b604080516001600160a01b03909316835260208301919091520161021a565b34801561036057600080fd5b506102ae61036f366004611dec565b610964565b34801561038057600080fd5b506101ec6109fa565b34801561039557600080fd5b506101ec6103a4366004611e16565b610a31565b3480156103b557600080fd5b506101ec6103c4366004611db7565b610a4c565b3480156103d557600080fd5b506102ae6103e4366004611db7565b610a7a565b3480156103f557600080fd5b506101ec610404366004611f13565b610b0d565b34801561041557600080fd5b50610265610424366004611db7565b610b2d565b34801561043557600080fd5b5061020e610444366004611db7565b6101c76020526000908152604090205460ff1681565b34801561046657600080fd5b506102ae610475366004611f5c565b610b8d565b34801561048657600080fd5b506101ec610c13565b34801561049b57600080fd5b506101ec610c27565b3480156104b057600080fd5b50610191546001600160a01b0316610265565b3480156104cf57600080fd5b506101ec6104de366004611f13565b610c44565b3480156104ef57600080fd5b50610238610c60565b34801561050457600080fd5b506101ec610513366004611f77565b610c6f565b34801561052457600080fd5b506101ec610533366004611fae565b610d0f565b34801561054457600080fd5b506101ec610553366004611fe5565b610d1a565b34801561056457600080fd5b506101ec610573366004612092565b610d8b565b34801561058457600080fd5b50610238610593366004611db7565b610dc3565b3480156105a457600080fd5b506101c95461020e9060ff1681565b3480156105bf57600080fd5b50610238610dce565b3480156105d457600080fd5b5061020e6105e336600461210e565b6001600160a01b039182166000908152609c6020908152604080832093909416825291909152205460ff1690565b34801561061d57600080fd5b506101ec61062c366004611fe5565b610e5d565b34801561063d57600080fd5b506101ec61064c366004611f5c565b610ece565b34801561065d57600080fd5b506101ec61066c366004611f5c565b610f44565b34801561067d57600080fd5b5061020e61068c366004611f5c565b6101c86020526000908152604090205460ff1681565b60006106ad8261102f565b92915050565b6060609780546106c290612141565b80601f01602080910402602001604051908101604052809291908181526020018280546106ee90612141565b801561073b5780601f106107105761010080835404028352916020019161073b565b820191906000526020600020905b81548152906001019060200180831161071e57829003601f168201915b5050505050905090565b60006107508261103a565b506000908152609b60205260409020546001600160a01b031690565b600061077782610b2d565b9050806001600160a01b0316836001600160a01b0316036107e95760405162461bcd60e51b815260206004820152602160248201527f4552433732313a20617070726f76616c20746f2063757272656e74206f776e656044820152603960f91b60648201526084015b60405180910390fd5b336001600160a01b0382161480610805575061080581336105e3565b6108775760405162461bcd60e51b815260206004820152603e60248201527f4552433732313a20617070726f76652063616c6c6572206973206e6f7420746f60448201527f6b656e206f776e6572206e6f7220617070726f76656420666f7220616c6c000060648201526084016107e0565b6108818383611099565b505050565b610891335b82611107565b6108ad5760405162461bcd60e51b81526004016107e09061217b565b610881838383611186565b60008281526066602090815260408083208151808301909252546001600160a01b038116808352600160a01b9091046001600160601b031692820192909252829161092d5750604080518082019091526065546001600160a01b0381168252600160a01b90046001600160601b031660208201525b60208101516000906127109061094c906001600160601b0316876121df565b6109569190612214565b915196919550909350505050565b600061096f83610b8d565b82106109d15760405162461bcd60e51b815260206004820152602b60248201527f455243373231456e756d657261626c653a206f776e657220696e646578206f7560448201526a74206f6620626f756e647360a81b60648201526084016107e0565b506001600160a01b0391909116600090815260c960209081526040808320938352929052205490565b610a0261132d565b60405133904780156108fc02916000818181858888f19350505050158015610a2e573d6000803e3d6000fd5b50565b61088183838360405180602001604052806000815250610d8b565b610a553361088b565b610a715760405162461bcd60e51b81526004016107e09061217b565b610a2e81611388565b6000610a8560cb5490565b8210610ae85760405162461bcd60e51b815260206004820152602c60248201527f455243373231456e756d657261626c653a20676c6f62616c20696e646578206f60448201526b7574206f6620626f756e647360a01b60648201526084016107e0565b60cb8281548110610afb57610afb612228565b90600052602060002001549050919050565b610b1561132d565b8051610b29906101c5906020840190611c4a565b5050565b6000818152609960205260408120546001600160a01b0316806106ad5760405162461bcd60e51b8152602060048201526018602482015277115490cdcc8c4e881a5b9d985b1a59081d1bdad95b88125160421b60448201526064016107e0565b60006001600160a01b038216610bf75760405162461bcd60e51b815260206004820152602960248201527f4552433732313a2061646472657373207a65726f206973206e6f7420612076616044820152683634b21037bbb732b960b91b60648201526084016107e0565b506001600160a01b03166000908152609a602052604090205490565b610c1b61132d565b610c256000611391565b565b610c2f61132d565b6101c9805460ff19811660ff90911615179055565b610c4c61132d565b8051610b29906101c4906020840190611c4a565b6060609880546106c290612141565b610c7761132d565b6127106001600160601b0382161115610ce75760405162461bcd60e51b815260206004820152602c60248201527f455243373231426173653a20526f79616c7479206c696d6974206d757374206260448201526b652062656c6f77203130302560a01b60648201526084016107e0565b6101c380546bffffffffffffffffffffffff19166001600160601b0392909216919091179055565b610b293383836113e4565b610d2261132d565b60005b8151811015610b295760006101c86000848481518110610d4757610d47612228565b6020908102919091018101516001600160a01b03168252810191909152604001600020805460ff191691151591909117905580610d838161223e565b915050610d25565b610d953383611107565b610db15760405162461bcd60e51b81526004016107e09061217b565b610dbd848484846114b2565b50505050565b60606106ad826114e5565b6101c48054610ddc90612141565b80601f0160208091040260200160405190810160405280929190818152602001828054610e0890612141565b8015610e555780601f10610e2a57610100808354040283529160200191610e55565b820191906000526020600020905b815481529060010190602001808311610e3857829003601f168201915b505050505081565b610e6561132d565b60005b8151811015610b295760016101c86000848481518110610e8a57610e8a612228565b6020908102919091018101516001600160a01b03168252810191909152604001600020805460ff191691151591909117905580610ec68161223e565b915050610e68565b610ed661132d565b6001600160a01b038116610f3b5760405162461bcd60e51b815260206004820152602660248201527f4f776e61626c653a206e6577206f776e657220697320746865207a65726f206160448201526564647265737360d01b60648201526084016107e0565b610a2e81611391565b610f4c61132d565b6040516370a0823160e01b815230600482015281906001600160a01b0382169063a9059cbb90339083906370a0823190602401602060405180830381865afa158015610f9c573d6000803e3d6000fd5b505050506040513d601f19601f82011682018060405250810190610fc09190612257565b6040516001600160e01b031960e085901b1681526001600160a01b03909216600483015260248201526044016020604051808303816000875af115801561100b573d6000803e3d6000fd5b505050506040513d601f19601f820116820180604052508101906108819190612270565b60006106ad826115e1565b6000818152609960205260409020546001600160a01b0316610a2e5760405162461bcd60e51b8152602060048201526018602482015277115490cdcc8c4e881a5b9d985b1a59081d1bdad95b88125160421b60448201526064016107e0565b6000818152609b6020526040902080546001600160a01b0319166001600160a01b03841690811790915581906110ce82610b2d565b6001600160a01b03167f8c5be1e5ebec7d5bd14f71427d1e84f3dd0314c0f7b2291e5b200ac8c7c3b92560405160405180910390a45050565b60008061111383610b2d565b9050806001600160a01b0316846001600160a01b0316148061115a57506001600160a01b038082166000908152609c602090815260408083209388168352929052205460ff165b8061117e5750836001600160a01b031661117384610745565b6001600160a01b0316145b949350505050565b826001600160a01b031661119982610b2d565b6001600160a01b0316146111fd5760405162461bcd60e51b815260206004820152602560248201527f4552433732313a207472616e736665722066726f6d20696e636f72726563742060448201526437bbb732b960d91b60648201526084016107e0565b6001600160a01b03821661125f5760405162461bcd60e51b8152602060048201526024808201527f4552433732313a207472616e7366657220746f20746865207a65726f206164646044820152637265737360e01b60648201526084016107e0565b61126a838383611606565b611275600082611099565b6001600160a01b0383166000908152609a6020526040812080546001929061129e90849061228d565b90915550506001600160a01b0382166000908152609a602052604081208054600192906112cc9084906122a4565b909155505060008181526099602052604080822080546001600160a01b0319166001600160a01b0386811691821790925591518493918716917fddf252ad1be2c89b69c2b068fc378daa952ba7f163c4a11628f55a4df523b3ef91a4505050565b610191546001600160a01b03163314610c255760405162461bcd60e51b815260206004820181905260248201527f4f776e61626c653a2063616c6c6572206973206e6f7420746865206f776e657260448201526064016107e0565b610a2e81611611565b61019180546001600160a01b038381166001600160a01b0319831681179093556040519116919082907f8be0079c531659141344cd1fd0a4f28419497f9722a3daafe3b4186f6b6457e090600090a35050565b816001600160a01b0316836001600160a01b0316036114455760405162461bcd60e51b815260206004820152601960248201527f4552433732313a20617070726f766520746f2063616c6c65720000000000000060448201526064016107e0565b6001600160a01b038381166000818152609c6020908152604080832094871680845294825291829020805460ff191686151590811790915591519182527f17307eab39ab6107e8899845ad3d59bd9653f200f220920489ca2b5937696c31910160405180910390a3505050565b6114bd848484611186565b6114c984848484611653565b610dbd5760405162461bcd60e51b81526004016107e0906122bc565b60606114f08261103a565b600082815261015f60205260408120805461150a90612141565b80601f016020809104026020016040519081016040528092919081815260200182805461153690612141565b80156115835780601f1061155857610100808354040283529160200191611583565b820191906000526020600020905b81548152906001019060200180831161156657829003601f168201915b505050505090506000611594611754565b905080516000036115a6575092915050565b8151156115d85780826040516020016115c092919061230e565b60405160208183030381529060405292505050919050565b61117e84611764565b60006001600160e01b0319821663780e9d6360e01b14806106ad57506106ad826117cb565b61088183838361180b565b61161a816118c3565b600081815261015f60205260409020805461163490612141565b159050610a2e57600081815261015f60205260408120610a2e91611cce565b60006001600160a01b0384163b1561174957604051630a85bd0160e11b81526001600160a01b0385169063150b7a029061169790339089908890889060040161233d565b6020604051808303816000875af19250505080156116d2575060408051601f3d908101601f191682019092526116cf9181019061237a565b60015b61172f573d808015611700576040519150601f19603f3d011682016040523d82523d6000602084013e611705565b606091505b5080516000036117275760405162461bcd60e51b81526004016107e0906122bc565b805181602001fd5b6001600160e01b031916630a85bd0160e11b14905061117e565b506001949350505050565b60606101c580546106c290612141565b606061176f8261103a565b6000611779611754565b9050600081511161179957604051806020016040528060008152506117c4565b806117a3846118dd565b6040516020016117b492919061230e565b6040516020818303038152906040525b9392505050565b60006001600160e01b031982166380ac58cd60e01b14806117fc57506001600160e01b03198216635b5e139f60e01b145b806106ad57506106ad826119de565b6001600160a01b038316611866576118618160cb8054600083815260cc60205260408120829055600182018355919091527fa7ce836d032b2bf62b7e2097a8e0a6d8aeb35405ad15271e96d3b0188a1d06fb0155565b611889565b816001600160a01b0316836001600160a01b031614611889576118898382611a13565b6001600160a01b0382166118a05761088181611ab0565b826001600160a01b0316826001600160a01b031614610881576108818282611b5f565b6118cc81611ba3565b600090815260666020526040812055565b6060816000036119045750506040805180820190915260018152600360fc1b602082015290565b8160005b811561192e57806119188161223e565b91506119279050600a83612214565b9150611908565b60008167ffffffffffffffff81111561194957611949611e74565b6040519080825280601f01601f191660200182016040528015611973576020820181803683370190505b5090505b841561117e5761198860018361228d565b9150611995600a86612397565b6119a09060306122a4565b60f81b8183815181106119b5576119b5612228565b60200101906001600160f81b031916908160001a9053506119d7600a86612214565b9450611977565b60006001600160e01b0319821663152a902d60e11b14806106ad57506301ffc9a760e01b6001600160e01b03198316146106ad565b60006001611a2084610b8d565b611a2a919061228d565b600083815260ca6020526040902054909150808214611a7d576001600160a01b038416600090815260c960209081526040808320858452825280832054848452818420819055835260ca90915290208190555b50600091825260ca602090815260408084208490556001600160a01b03909416835260c981528383209183525290812055565b60cb54600090611ac29060019061228d565b600083815260cc602052604081205460cb8054939450909284908110611aea57611aea612228565b906000526020600020015490508060cb8381548110611b0b57611b0b612228565b600091825260208083209091019290925582815260cc909152604080822084905585825281205560cb805480611b4357611b436123ab565b6001900381819060005260206000200160009055905550505050565b6000611b6a83610b8d565b6001600160a01b03909316600090815260c960209081526040808320868452825280832085905593825260ca9052919091209190915550565b6000611bae82610b2d565b9050611bbc81600084611606565b611bc7600083611099565b6001600160a01b0381166000908152609a60205260408120805460019290611bf090849061228d565b909155505060008281526099602052604080822080546001600160a01b0319169055518391906001600160a01b038416907fddf252ad1be2c89b69c2b068fc378daa952ba7f163c4a11628f55a4df523b3ef908390a45050565b828054611c5690612141565b90600052602060002090601f016020900481019282611c785760008555611cbe565b82601f10611c9157805160ff1916838001178555611cbe565b82800160010185558215611cbe579182015b82811115611cbe578251825591602001919060010190611ca3565b50611cca929150611d04565b5090565b508054611cda90612141565b6000825580601f10611cea575050565b601f016020900490600052602060002090810190610a2e91905b5b80821115611cca5760008155600101611d05565b6001600160e01b031981168114610a2e57600080fd5b600060208284031215611d4157600080fd5b81356117c481611d19565b60005b83811015611d67578181015183820152602001611d4f565b83811115610dbd5750506000910152565b60008151808452611d90816020860160208601611d4c565b601f01601f19169290920160200192915050565b6020815260006117c46020830184611d78565b600060208284031215611dc957600080fd5b5035919050565b80356001600160a01b0381168114611de757600080fd5b919050565b60008060408385031215611dff57600080fd5b611e0883611dd0565b946020939093013593505050565b600080600060608486031215611e2b57600080fd5b611e3484611dd0565b9250611e4260208501611dd0565b9150604084013590509250925092565b60008060408385031215611e6557600080fd5b50508035926020909101359150565b634e487b7160e01b600052604160045260246000fd5b604051601f8201601f1916810167ffffffffffffffff81118282101715611eb357611eb3611e74565b604052919050565b600067ffffffffffffffff831115611ed557611ed5611e74565b611ee8601f8401601f1916602001611e8a565b9050828152838383011115611efc57600080fd5b828260208301376000602084830101529392505050565b600060208284031215611f2557600080fd5b813567ffffffffffffffff811115611f3c57600080fd5b8201601f81018413611f4d57600080fd5b61117e84823560208401611ebb565b600060208284031215611f6e57600080fd5b6117c482611dd0565b600060208284031215611f8957600080fd5b81356001600160601b03811681146117c457600080fd5b8015158114610a2e57600080fd5b60008060408385031215611fc157600080fd5b611fca83611dd0565b91506020830135611fda81611fa0565b809150509250929050565b60006020808385031215611ff857600080fd5b823567ffffffffffffffff8082111561201057600080fd5b818501915085601f83011261202457600080fd5b81358181111561203657612036611e74565b8060051b9150612047848301611e8a565b818152918301840191848101908884111561206157600080fd5b938501935b838510156120865761207785611dd0565b82529385019390850190612066565b98975050505050505050565b600080600080608085870312156120a857600080fd5b6120b185611dd0565b93506120bf60208601611dd0565b925060408501359150606085013567ffffffffffffffff8111156120e257600080fd5b8501601f810187136120f357600080fd5b61210287823560208401611ebb565b91505092959194509250565b6000806040838503121561212157600080fd5b61212a83611dd0565b915061213860208401611dd0565b90509250929050565b600181811c9082168061215557607f821691505b60208210810361217557634e487b7160e01b600052602260045260246000fd5b50919050565b6020808252602e908201527f4552433732313a2063616c6c6572206973206e6f7420746f6b656e206f776e6560408201526d1c881b9bdc88185c1c1c9bdd995960921b606082015260800190565b634e487b7160e01b600052601160045260246000fd5b60008160001904831182151516156121f9576121f96121c9565b500290565b634e487b7160e01b600052601260045260246000fd5b600082612223576122236121fe565b500490565b634e487b7160e01b600052603260045260246000fd5b600060018201612250576122506121c9565b5060010190565b60006020828403121561226957600080fd5b5051919050565b60006020828403121561228257600080fd5b81516117c481611fa0565b60008282101561229f5761229f6121c9565b500390565b600082198211156122b7576122b76121c9565b500190565b60208082526032908201527f4552433732313a207472616e7366657220746f206e6f6e20455243373231526560408201527131b2b4bb32b91034b6b83632b6b2b73a32b960711b606082015260800190565b60008351612320818460208801611d4c565b835190830190612334818360208801611d4c565b01949350505050565b6001600160a01b038581168252841660208201526040810183905260806060820181905260009061237090830184611d78565b9695505050505050565b60006020828403121561238c57600080fd5b81516117c481611d19565b6000826123a6576123a66121fe565b500690565b634e487b7160e01b600052603160045260246000fdfea2646970667358221220b8f2cfd0039e158ac5a3165758e506a40158bbb254957d985936d1d0ecf258ff64736f6c634300080d0033",
  "linkReferences": {},
  "deployedLinkReferences": {}
}