{
  "_format": "hh-sol-artifact-1",
  "contractName": "ERC721MarketPlace",
  "sourceName": "contracts/ERC721Marketplace.sol",
  "abi": [
    {
      "inputs": [],
      "stateMutability": "nonpayable",
      "type": "constructor"
    },
    {
      "anonymous": false,
      "inputs": [
        {
          "indexed": false,
          "internalType": "address",
          "name": "previousAdmin",
          "type": "address"
        },
        {
          "indexed": false,
          "internalType": "address",
          "name": "newAdmin",
          "type": "address"
        }
      ],
      "name": "AdminChanged",
      "type": "event"
    },
    {
      "anonymous": false,
      "inputs": [
        {
          "indexed": true,
          "internalType": "address",
          "name": "beacon",
          "type": "address"
        }
      ],
      "name": "BeaconUpgraded",
      "type": "event"
    },
    {
      "anonymous": false,
      "inputs": [
        {
          "indexed": true,
          "internalType": "address",
          "name": "collection",
          "type": "address"
        },
        {
          "indexed": true,
          "internalType": "uint256",
          "name": "tokenId",
          "type": "uint256"
        },
        {
          "indexed": true,
          "internalType": "address",
          "name": "seller",
          "type": "address"
        },
        {
          "indexed": false,
          "internalType": "address",
          "name": "bidder",
          "type": "address"
        },
        {
          "indexed": false,
          "internalType": "uint256",
          "name": "amouont",
          "type": "uint256"
        },
        {
          "indexed": false,
          "internalType": "uint256",
          "name": "time",
          "type": "uint256"
        },
        {
          "indexed": false,
          "internalType": "address",
          "name": "ERC20Address",
          "type": "address"
        }
      ],
      "name": "Bid",
      "type": "event"
    },
    {
      "anonymous": false,
      "inputs": [
        {
          "indexed": false,
          "internalType": "uint8",
          "name": "version",
          "type": "uint8"
        }
      ],
      "name": "Initialized",
      "type": "event"
    },
    {
      "anonymous": false,
      "inputs": [
        {
          "indexed": true,
          "internalType": "address",
          "name": "collection",
          "type": "address"
        },
        {
          "indexed": true,
          "internalType": "uint256",
          "name": "tokenId",
          "type": "uint256"
        },
        {
          "indexed": true,
          "internalType": "address",
          "name": "seller",
          "type": "address"
        },
        {
          "indexed": false,
          "internalType": "address",
          "name": "buyer",
          "type": "address"
        },
        {
          "indexed": false,
          "internalType": "address",
          "name": "ERC20Address",
          "type": "address"
        },
        {
          "indexed": false,
          "internalType": "uint256",
          "name": "price",
          "type": "uint256"
        },
        {
          "indexed": false,
          "internalType": "uint256",
          "name": "time",
          "type": "uint256"
        }
      ],
      "name": "LazyAuction",
      "type": "event"
    },
    {
      "anonymous": false,
      "inputs": [
        {
          "indexed": true,
          "internalType": "address",
          "name": "collection",
          "type": "address"
        },
        {
          "indexed": true,
          "internalType": "uint256",
          "name": "tokenId",
          "type": "uint256"
        },
        {
          "indexed": true,
          "internalType": "address",
          "name": "seller",
          "type": "address"
        },
        {
          "indexed": false,
          "internalType": "address",
          "name": "buyer",
          "type": "address"
        },
        {
          "indexed": false,
          "internalType": "address",
          "name": "ERC20Address",
          "type": "address"
        },
        {
          "indexed": false,
          "internalType": "uint256",
          "name": "price",
          "type": "uint256"
        },
        {
          "indexed": false,
          "internalType": "uint256",
          "name": "time",
          "type": "uint256"
        }
      ],
      "name": "LazyMinted",
      "type": "event"
    },
    {
      "anonymous": false,
      "inputs": [
        {
          "indexed": true,
          "internalType": "address",
          "name": "collection",
          "type": "address"
        },
        {
          "indexed": true,
          "internalType": "uint256",
          "name": "tokenId",
          "type": "uint256"
        },
        {
          "indexed": true,
          "internalType": "address",
          "name": "seller",
          "type": "address"
        },
        {
          "indexed": false,
          "internalType": "address",
          "name": "buyer",
          "type": "address"
        },
        {
          "indexed": false,
          "internalType": "uint256",
          "name": "amount",
          "type": "uint256"
        },
        {
          "indexed": false,
          "internalType": "uint256",
          "name": "time",
          "type": "uint256"
        },
        {
          "indexed": false,
          "internalType": "address",
          "name": "ERC20Address",
          "type": "address"
        }
      ],
      "name": "LazyOfferAccepted",
      "type": "event"
    },
    {
      "anonymous": false,
      "inputs": [
        {
          "indexed": true,
          "internalType": "address",
          "name": "collection",
          "type": "address"
        },
        {
          "indexed": true,
          "internalType": "uint256",
          "name": "tokenId",
          "type": "uint256"
        },
        {
          "indexed": true,
          "internalType": "address",
          "name": "seller",
          "type": "address"
        },
        {
          "indexed": false,
          "internalType": "uint256",
          "name": "time",
          "type": "uint256"
        },
        {
          "indexed": false,
          "internalType": "uint256",
          "name": "nonce",
          "type": "uint256"
        }
      ],
      "name": "OffSale",
      "type": "event"
    },
    {
      "anonymous": false,
      "inputs": [
        {
          "indexed": true,
          "internalType": "address",
          "name": "collection",
          "type": "address"
        },
        {
          "indexed": true,
          "internalType": "uint256",
          "name": "tokenId",
          "type": "uint256"
        },
        {
          "indexed": true,
          "internalType": "address",
          "name": "seller",
          "type": "address"
        },
        {
          "indexed": false,
          "internalType": "address",
          "name": "buyer",
          "type": "address"
        },
        {
          "indexed": false,
          "internalType": "uint256",
          "name": "amount",
          "type": "uint256"
        },
        {
          "indexed": false,
          "internalType": "uint256",
          "name": "time",
          "type": "uint256"
        },
        {
          "indexed": false,
          "internalType": "address",
          "name": "ERC20Address",
          "type": "address"
        }
      ],
      "name": "OfferAccepted",
      "type": "event"
    },
    {
      "anonymous": false,
      "inputs": [
        {
          "indexed": true,
          "internalType": "address",
          "name": "collection",
          "type": "address"
        },
        {
          "indexed": true,
          "internalType": "uint256",
          "name": "tokenId",
          "type": "uint256"
        },
        {
          "indexed": true,
          "internalType": "address",
          "name": "seller",
          "type": "address"
        },
        {
          "indexed": false,
          "internalType": "uint256",
          "name": "auctionType",
          "type": "uint256"
        },
        {
          "indexed": false,
          "internalType": "uint256",
          "name": "amount",
          "type": "uint256"
        },
        {
          "indexed": false,
          "internalType": "uint256",
          "name": "time",
          "type": "uint256"
        },
        {
          "indexed": false,
          "internalType": "address",
          "name": "ERC20Address",
          "type": "address"
        }
      ],
      "name": "OnSale",
      "type": "event"
    },
    {
      "anonymous": false,
      "inputs": [
        {
          "indexed": true,
          "internalType": "address",
          "name": "previousOwner",
          "type": "address"
        },
        {
          "indexed": true,
          "internalType": "address",
          "name": "newOwner",
          "type": "address"
        }
      ],
      "name": "OwnershipTransferred",
      "type": "event"
    },
    {
      "anonymous": false,
      "inputs": [
        {
          "indexed": true,
          "internalType": "address",
          "name": "collection",
          "type": "address"
        },
        {
          "indexed": true,
          "internalType": "uint256",
          "name": "tokenId",
          "type": "uint256"
        },
        {
          "indexed": true,
          "internalType": "address",
          "name": "seller",
          "type": "address"
        },
        {
          "indexed": false,
          "internalType": "uint256",
          "name": "auctionType",
          "type": "uint256"
        },
        {
          "indexed": false,
          "internalType": "uint256",
          "name": "oldAmount",
          "type": "uint256"
        },
        {
          "indexed": false,
          "internalType": "uint256",
          "name": "amount",
          "type": "uint256"
        },
        {
          "indexed": false,
          "internalType": "uint256",
          "name": "time",
          "type": "uint256"
        },
        {
          "indexed": false,
          "internalType": "address",
          "name": "ERC20Address",
          "type": "address"
        }
      ],
      "name": "PriceUpdated",
      "type": "event"
    },
    {
      "anonymous": false,
      "inputs": [
        {
          "indexed": true,
          "internalType": "address",
          "name": "collection",
          "type": "address"
        },
        {
          "indexed": true,
          "internalType": "uint256",
          "name": "tokenId",
          "type": "uint256"
        },
        {
          "indexed": true,
          "internalType": "address",
          "name": "seller",
          "type": "address"
        },
        {
          "indexed": false,
          "internalType": "address",
          "name": "buyer",
          "type": "address"
        },
        {
          "indexed": false,
          "internalType": "uint256",
          "name": "amount",
          "type": "uint256"
        },
        {
          "indexed": false,
          "internalType": "address",
          "name": "collector",
          "type": "address"
        },
        {
          "indexed": false,
          "internalType": "uint256",
          "name": "auctionType",
          "type": "uint256"
        },
        {
          "indexed": false,
          "internalType": "uint256",
          "name": "time",
          "type": "uint256"
        },
        {
          "indexed": false,
          "internalType": "address",
          "name": "ERC20Address",
          "type": "address"
        }
      ],
      "name": "Sold",
      "type": "event"
    },
    {
      "anonymous": false,
      "inputs": [
        {
          "indexed": true,
          "internalType": "address",
          "name": "implementation",
          "type": "address"
        }
      ],
      "name": "Upgraded",
      "type": "event"
    },
    {
      "inputs": [],
      "name": "WETH",
      "outputs": [
        {
          "internalType": "address",
          "name": "",
          "type": "address"
        }
      ],
      "stateMutability": "view",
      "type": "function"
    },
    {
      "inputs": [
        {
          "components": [
            {
              "internalType": "address",
              "name": "to",
              "type": "address"
            },
            {
              "internalType": "uint96",
              "name": "royalty",
              "type": "uint96"
            },
            {
              "internalType": "string",
              "name": "tokenURI",
              "type": "string"
            },
            {
              "internalType": "uint256",
              "name": "nonce",
              "type": "uint256"
            },
            {
              "internalType": "address",
              "name": "erc721",
              "type": "address"
            },
            {
              "internalType": "uint256",
              "name": "price",
              "type": "uint256"
            },
            {
              "internalType": "address",
              "name": "erc20Token",
              "type": "address"
            },
            {
              "internalType": "bytes",
              "name": "sign",
              "type": "bytes"
            }
          ],
          "internalType": "struct ERC721MarketPlace.lazySellerVoucher",
          "name": "_sellerVoucher",
          "type": "tuple"
        },
        {
          "components": [
            {
              "internalType": "address",
              "name": "buyer",
              "type": "address"
            },
            {
              "internalType": "uint256",
              "name": "amount",
              "type": "uint256"
            },
            {
              "internalType": "uint256",
              "name": "time",
              "type": "uint256"
            }
          ],
          "internalType": "struct ERC721MarketPlace.buyerVoucher",
          "name": "_buyerVoucher",
          "type": "tuple"
        },
        {
          "internalType": "uint256",
          "name": "_nonce",
          "type": "uint256"
        },
        {
          "internalType": "bytes",
          "name": "_sign",
          "type": "bytes"
        }
      ],
      "name": "acceptLazyOffer",
      "outputs": [
        {
          "internalType": "uint256",
          "name": "",
          "type": "uint256"
        }
      ],
      "stateMutability": "nonpayable",
      "type": "function"
    },
    {
      "inputs": [
        {
          "internalType": "uint256",
          "name": "_tokenId",
          "type": "uint256"
        },
        {
          "internalType": "address",
          "name": "_erc721",
          "type": "address"
        },
        {
          "internalType": "uint256",
          "name": "_amount",
          "type": "uint256"
        },
        {
          "internalType": "uint256",
          "name": "_validTill",
          "type": "uint256"
        },
        {
          "internalType": "address",
          "name": "_bidder",
          "type": "address"
        },
        {
          "internalType": "contract IERC20Upgradeable",
          "name": "_erc20Token",
          "type": "address"
        },
        {
          "internalType": "uint256",
          "name": "_nonce",
          "type": "uint256"
        },
        {
          "internalType": "bytes",
          "name": "_sign",
          "type": "bytes"
        }
      ],
      "name": "acceptOffer",
      "outputs": [],
      "stateMutability": "nonpayable",
      "type": "function"
    },
    {
      "inputs": [
        {
          "internalType": "address",
          "name": "_erc20Token",
          "type": "address"
        },
        {
          "components": [
            {
              "internalType": "uint256",
              "name": "seller",
              "type": "uint256"
            },
            {
              "internalType": "uint256",
              "name": "buyer",
              "type": "uint256"
            }
          ],
          "internalType": "struct ERC721MarketPlace._brokerage",
          "name": "brokerage_",
          "type": "tuple"
        }
      ],
      "name": "addERC20TokenPayment",
      "outputs": [],
      "stateMutability": "nonpayable",
      "type": "function"
    },
    {
      "inputs": [
        {
          "internalType": "uint256",
          "name": "",
          "type": "uint256"
        }
      ],
      "name": "auctionNonceStatus",
      "outputs": [
        {
          "internalType": "bool",
          "name": "",
          "type": "bool"
        }
      ],
      "stateMutability": "view",
      "type": "function"
    },
    {
      "inputs": [
        {
          "internalType": "address",
          "name": "_erc721",
          "type": "address"
        },
        {
          "internalType": "uint256",
          "name": "_tokenId",
          "type": "uint256"
        }
      ],
      "name": "auctions",
      "outputs": [
        {
          "components": [
            {
              "internalType": "address payable",
              "name": "seller",
              "type": "address"
            },
            {
              "internalType": "uint256",
              "name": "currentBid",
              "type": "uint256"
            },
            {
              "internalType": "address payable",
              "name": "highestBidder",
              "type": "address"
            },
            {
              "internalType": "uint256",
              "name": "auctionType",
              "type": "uint256"
            },
            {
              "internalType": "uint256",
              "name": "startingPrice",
              "type": "uint256"
            },
            {
              "internalType": "uint256",
              "name": "startingTime",
              "type": "uint256"
            },
            {
              "internalType": "uint256",
              "name": "closingTime",
              "type": "uint256"
            },
            {
              "internalType": "address",
              "name": "erc20Token",
              "type": "address"
            }
          ],
          "internalType": "struct ERC721MarketPlace.auction",
          "name": "",
          "type": "tuple"
        }
      ],
      "stateMutability": "view",
      "type": "function"
    },
    {
      "inputs": [
        {
          "internalType": "uint256",
          "name": "_tokenId",
          "type": "uint256"
        },
        {
          "internalType": "address",
          "name": "_erc721",
          "type": "address"
        },
        {
          "internalType": "uint256",
          "name": "amount",
          "type": "uint256"
        },
        {
          "internalType": "address payable",
          "name": "bidder",
          "type": "address"
        },
        {
          "components": [
            {
              "internalType": "address payable",
              "name": "seller",
              "type": "address"
            },
            {
              "internalType": "uint256",
              "name": "currentBid",
              "type": "uint256"
            },
            {
              "internalType": "address payable",
              "name": "highestBidder",
              "type": "address"
            },
            {
              "internalType": "uint256",
              "name": "auctionType",
              "type": "uint256"
            },
            {
              "internalType": "uint256",
              "name": "startingPrice",
              "type": "uint256"
            },
            {
              "internalType": "uint256",
              "name": "startingTime",
              "type": "uint256"
            },
            {
              "internalType": "uint256",
              "name": "closingTime",
              "type": "uint256"
            },
            {
              "internalType": "address",
              "name": "erc20Token",
              "type": "address"
            }
          ],
          "internalType": "struct ERC721MarketPlace.auction",
          "name": "_auction",
          "type": "tuple"
        },
        {
          "internalType": "uint256",
          "name": "_nonce",
          "type": "uint256"
        },
        {
          "internalType": "bytes",
          "name": "sign",
          "type": "bytes"
        }
      ],
      "name": "bid",
      "outputs": [],
      "stateMutability": "payable",
      "type": "function"
    },
    {
      "inputs": [
        {
          "components": [
            {
              "internalType": "address payable",
              "name": "seller",
              "type": "address"
            },
            {
              "internalType": "uint256",
              "name": "currentBid",
              "type": "uint256"
            },
            {
              "internalType": "address payable",
              "name": "highestBidder",
              "type": "address"
            },
            {
              "internalType": "uint256",
              "name": "auctionType",
              "type": "uint256"
            },
            {
              "internalType": "uint256",
              "name": "startingPrice",
              "type": "uint256"
            },
            {
              "internalType": "uint256",
              "name": "startingTime",
              "type": "uint256"
            },
            {
              "internalType": "uint256",
              "name": "closingTime",
              "type": "uint256"
            },
            {
              "internalType": "address",
              "name": "erc20Token",
              "type": "address"
            }
          ],
          "internalType": "struct ERC721MarketPlace.auction",
          "name": "_auction",
          "type": "tuple"
        },
        {
          "components": [
            {
              "internalType": "uint256",
              "name": "_tokenId",
              "type": "uint256"
            },
            {
              "internalType": "address",
              "name": "_erc721",
              "type": "address"
            },
            {
              "internalType": "uint256",
              "name": "amount",
              "type": "uint256"
            },
            {
              "internalType": "address payable",
              "name": "bidder",
              "type": "address"
            },
            {
              "internalType": "uint256",
              "name": "_nonce",
              "type": "uint256"
            },
            {
              "internalType": "bytes",
              "name": "sign",
              "type": "bytes"
            },
            {
              "internalType": "bytes32",
              "name": "root",
              "type": "bytes32"
            },
            {
              "internalType": "bytes32[]",
              "name": "proof",
              "type": "bytes32[]"
            }
          ],
          "internalType": "struct ERC721MarketPlace.bidInput",
          "name": "_bidInput",
          "type": "tuple"
        }
      ],
      "name": "bidBatch",
      "outputs": [],
      "stateMutability": "payable",
      "type": "function"
    },
    {
      "inputs": [],
      "name": "broker",
      "outputs": [
        {
          "internalType": "address payable",
          "name": "",
          "type": "address"
        }
      ],
      "stateMutability": "view",
      "type": "function"
    },
    {
      "inputs": [
        {
          "internalType": "address",
          "name": "",
          "type": "address"
        }
      ],
      "name": "brokerage",
      "outputs": [
        {
          "internalType": "uint256",
          "name": "seller",
          "type": "uint256"
        },
        {
          "internalType": "uint256",
          "name": "buyer",
          "type": "uint256"
        }
      ],
      "stateMutability": "view",
      "type": "function"
    },
    {
      "inputs": [
        {
          "internalType": "uint256",
          "name": "_tokenId",
          "type": "uint256"
        },
        {
          "internalType": "address",
          "name": "_erc721",
          "type": "address"
        },
        {
          "internalType": "uint256",
          "name": "price",
          "type": "uint256"
        },
        {
          "internalType": "uint256",
          "name": "_nonce",
          "type": "uint256"
        },
        {
          "internalType": "bytes",
          "name": "sign",
          "type": "bytes"
        },
        {
          "internalType": "address",
          "name": "_erc20Token",
          "type": "address"
        },
        {
          "internalType": "address",
          "name": "buyer",
          "type": "address"
        }
      ],
      "name": "buy",
      "outputs": [],
      "stateMutability": "payable",
      "type": "function"
    },
    {
      "inputs": [
        {
          "internalType": "uint256",
          "name": "_tokenId",
          "type": "uint256"
        },
        {
          "internalType": "address",
          "name": "_erc721",
          "type": "address"
        },
        {
          "internalType": "uint256",
          "name": "price",
          "type": "uint256"
        },
        {
          "internalType": "uint256",
          "name": "_nonce",
          "type": "uint256"
        },
        {
          "internalType": "bytes",
          "name": "sign",
          "type": "bytes"
        },
        {
          "internalType": "address",
          "name": "_erc20Token",
          "type": "address"
        },
        {
          "internalType": "address",
          "name": "buyer",
          "type": "address"
        },
        {
          "internalType": "bytes32",
          "name": "root",
          "type": "bytes32"
        },
        {
          "internalType": "bytes32[]",
          "name": "proof",
          "type": "bytes32[]"
        }
      ],
      "name": "buyBatch",
      "outputs": [],
      "stateMutability": "payable",
      "type": "function"
    },
    {
      "inputs": [
        {
          "internalType": "uint256",
          "name": "_tokenId",
          "type": "uint256"
        },
        {
          "internalType": "address",
          "name": "_erc721",
          "type": "address"
        },
        {
          "internalType": "uint256",
          "name": "_amount",
          "type": "uint256"
        },
        {
          "internalType": "uint256",
          "name": "_validTill",
          "type": "uint256"
        },
        {
          "internalType": "address",
          "name": "_seller",
          "type": "address"
        },
        {
          "internalType": "address",
          "name": "_erc20Token",
          "type": "address"
        },
        {
          "internalType": "uint256",
          "name": "_nonce",
          "type": "uint256"
        },
        {
          "internalType": "bytes",
          "name": "_sign",
          "type": "bytes"
        }
      ],
      "name": "cancelOffer",
      "outputs": [],
      "stateMutability": "nonpayable",
      "type": "function"
    },
    {
      "inputs": [
        {
          "internalType": "uint256",
          "name": "_tokenId",
          "type": "uint256"
        },
        {
          "internalType": "address",
          "name": "_erc721",
          "type": "address"
        }
      ],
      "name": "collect",
      "outputs": [],
      "stateMutability": "nonpayable",
      "type": "function"
    },
    {
      "inputs": [],
      "name": "decimalPrecision",
      "outputs": [
        {
          "internalType": "uint256",
          "name": "",
          "type": "uint256"
        }
      ],
      "stateMutability": "view",
      "type": "function"
    },
    {
      "inputs": [
        {
          "components": [
            {
              "internalType": "address payable",
              "name": "seller",
              "type": "address"
            },
            {
              "internalType": "uint256",
              "name": "currentBid",
              "type": "uint256"
            },
            {
              "internalType": "address payable",
              "name": "highestBidder",
              "type": "address"
            },
            {
              "internalType": "uint256",
              "name": "auctionType",
              "type": "uint256"
            },
            {
              "internalType": "uint256",
              "name": "startingPrice",
              "type": "uint256"
            },
            {
              "internalType": "uint256",
              "name": "startingTime",
              "type": "uint256"
            },
            {
              "internalType": "uint256",
              "name": "closingTime",
              "type": "uint256"
            },
            {
              "internalType": "address",
              "name": "erc20Token",
              "type": "address"
            }
          ],
          "internalType": "struct ERC721MarketPlace.auction",
          "name": "_auction",
          "type": "tuple"
        },
        {
          "components": [
            {
              "internalType": "uint256",
              "name": "_tokenId",
              "type": "uint256"
            },
            {
              "internalType": "address",
              "name": "_erc721",
              "type": "address"
            },
            {
              "internalType": "uint256",
              "name": "amount",
              "type": "uint256"
            },
            {
              "internalType": "address payable",
              "name": "bidder",
              "type": "address"
            },
            {
              "internalType": "uint256",
              "name": "_nonce",
              "type": "uint256"
            },
            {
              "internalType": "bytes",
              "name": "sign",
              "type": "bytes"
            },
            {
              "internalType": "bytes32",
              "name": "root",
              "type": "bytes32"
            },
            {
              "internalType": "bytes32[]",
              "name": "proof",
              "type": "bytes32[]"
            }
          ],
          "internalType": "struct ERC721MarketPlace.bidInput",
          "name": "_bidInput",
          "type": "tuple"
        }
      ],
      "name": "discardRootWithBid",
      "outputs": [],
      "stateMutability": "nonpayable",
      "type": "function"
    },
    {
      "inputs": [
        {
          "internalType": "uint256",
          "name": "_tokenId",
          "type": "uint256"
        },
        {
          "internalType": "address",
          "name": "_erc721",
          "type": "address"
        },
        {
          "internalType": "uint256",
          "name": "price",
          "type": "uint256"
        },
        {
          "internalType": "uint256",
          "name": "_nonce",
          "type": "uint256"
        },
        {
          "internalType": "bytes",
          "name": "sign",
          "type": "bytes"
        },
        {
          "internalType": "address",
          "name": "_erc20Token",
          "type": "address"
        },
        {
          "internalType": "bytes32",
          "name": "root",
          "type": "bytes32"
        },
        {
          "internalType": "bytes32[]",
          "name": "proof",
          "type": "bytes32[]"
        }
      ],
      "name": "discardRootWithBuy",
      "outputs": [],
      "stateMutability": "nonpayable",
      "type": "function"
    },
    {
      "inputs": [
        {
          "internalType": "address payable",
          "name": "_broker",
          "type": "address"
        }
      ],
      "name": "initialize",
      "outputs": [],
      "stateMutability": "nonpayable",
      "type": "function"
    },
    {
      "inputs": [
        {
          "internalType": "address",
          "name": "",
          "type": "address"
        },
        {
          "internalType": "uint256",
          "name": "",
          "type": "uint256"
        }
      ],
      "name": "isNonceProcessed",
      "outputs": [
        {
          "internalType": "bool",
          "name": "",
          "type": "bool"
        }
      ],
      "stateMutability": "view",
      "type": "function"
    },
    {
      "inputs": [
        {
          "internalType": "bytes32",
          "name": "",
          "type": "bytes32"
        }
      ],
      "name": "isRootDiscarded",
      "outputs": [
        {
          "internalType": "bool",
          "name": "",
          "type": "bool"
        }
      ],
      "stateMutability": "view",
      "type": "function"
    },
    {
      "inputs": [
        {
          "internalType": "address",
          "name": "collection",
          "type": "address"
        },
        {
          "internalType": "address",
          "name": "to",
          "type": "address"
        },
        {
          "internalType": "uint96",
          "name": "_royalty",
          "type": "uint96"
        },
        {
          "internalType": "string",
          "name": "_tokenURI",
          "type": "string"
        },
        {
          "internalType": "uint256",
          "name": "nonce",
          "type": "uint256"
        },
        {
          "internalType": "uint256",
          "name": "price",
          "type": "uint256"
        },
        {
          "internalType": "bytes",
          "name": "sign",
          "type": "bytes"
        },
        {
          "internalType": "address",
          "name": "buyer",
          "type": "address"
        }
      ],
      "name": "lazyMint",
      "outputs": [
        {
          "internalType": "uint256",
          "name": "",
          "type": "uint256"
        }
      ],
      "stateMutability": "payable",
      "type": "function"
    },
    {
      "inputs": [
        {
          "components": [
            {
              "internalType": "address",
              "name": "to",
              "type": "address"
            },
            {
              "internalType": "uint96",
              "name": "royalty",
              "type": "uint96"
            },
            {
              "internalType": "string",
              "name": "tokenURI",
              "type": "string"
            },
            {
              "internalType": "uint256",
              "name": "nonce",
              "type": "uint256"
            },
            {
              "internalType": "address",
              "name": "erc721",
              "type": "address"
            },
            {
              "internalType": "uint256",
              "name": "startingPrice",
              "type": "uint256"
            },
            {
              "internalType": "uint256",
              "name": "startingTime",
              "type": "uint256"
            },
            {
              "internalType": "uint256",
              "name": "endingTime",
              "type": "uint256"
            },
            {
              "internalType": "address",
              "name": "erc20Token",
              "type": "address"
            }
          ],
          "internalType": "struct ERC721MarketPlace.sellerVoucher",
          "name": "_sellerVoucher",
          "type": "tuple"
        },
        {
          "components": [
            {
              "internalType": "address",
              "name": "buyer",
              "type": "address"
            },
            {
              "internalType": "uint256",
              "name": "amount",
              "type": "uint256"
            },
            {
              "internalType": "uint256",
              "name": "time",
              "type": "uint256"
            }
          ],
          "internalType": "struct ERC721MarketPlace.buyerVoucher",
          "name": "_buyerVoucher",
          "type": "tuple"
        },
        {
          "internalType": "bytes",
          "name": "globalSign",
          "type": "bytes"
        }
      ],
      "name": "lazyMintAuction",
      "outputs": [],
      "stateMutability": "nonpayable",
      "type": "function"
    },
    {
      "inputs": [],
      "name": "mintingCharge",
      "outputs": [
        {
          "internalType": "uint256",
          "name": "",
          "type": "uint256"
        }
      ],
      "stateMutability": "view",
      "type": "function"
    },
    {
      "inputs": [
        {
          "internalType": "address",
          "name": "",
          "type": "address"
        },
        {
          "internalType": "address",
          "name": "",
          "type": "address"
        },
        {
          "internalType": "uint256",
          "name": "",
          "type": "uint256"
        },
        {
          "internalType": "bytes",
          "name": "",
          "type": "bytes"
        }
      ],
      "name": "onERC721Received",
      "outputs": [
        {
          "internalType": "bytes4",
          "name": "",
          "type": "bytes4"
        }
      ],
      "stateMutability": "nonpayable",
      "type": "function"
    },
    {
      "inputs": [],
      "name": "owner",
      "outputs": [
        {
          "internalType": "address",
          "name": "",
          "type": "address"
        }
      ],
      "stateMutability": "view",
      "type": "function"
    },
    {
      "inputs": [],
      "name": "proxiableUUID",
      "outputs": [
        {
          "internalType": "bytes32",
          "name": "",
          "type": "bytes32"
        }
      ],
      "stateMutability": "view",
      "type": "function"
    },
    {
      "inputs": [
        {
          "internalType": "uint256",
          "name": "_tokenId",
          "type": "uint256"
        },
        {
          "internalType": "address",
          "name": "_erc721",
          "type": "address"
        },
        {
          "internalType": "uint256",
          "name": "_nonce",
          "type": "uint256"
        }
      ],
      "name": "putSaleOff",
      "outputs": [],
      "stateMutability": "nonpayable",
      "type": "function"
    },
    {
      "inputs": [
        {
          "internalType": "address",
          "name": "_erc20Token",
          "type": "address"
        }
      ],
      "name": "removeERC20TokenPayment",
      "outputs": [],
      "stateMutability": "nonpayable",
      "type": "function"
    },
    {
      "inputs": [],
      "name": "renounceOwnership",
      "outputs": [],
      "stateMutability": "nonpayable",
      "type": "function"
    },
    {
      "inputs": [
        {
          "internalType": "uint256",
          "name": "_mintingCharge",
          "type": "uint256"
        }
      ],
      "name": "setMintingCharge",
      "outputs": [],
      "stateMutability": "nonpayable",
      "type": "function"
    },
    {
      "inputs": [
        {
          "internalType": "address",
          "name": "signer_",
          "type": "address"
        }
      ],
      "name": "setSigner",
      "outputs": [],
      "stateMutability": "nonpayable",
      "type": "function"
    },
    {
      "inputs": [
        {
          "internalType": "address",
          "name": "_WETH",
          "type": "address"
        }
      ],
      "name": "setWETH",
      "outputs": [],
      "stateMutability": "nonpayable",
      "type": "function"
    },
    {
      "inputs": [],
      "name": "signer",
      "outputs": [
        {
          "internalType": "address",
          "name": "",
          "type": "address"
        }
      ],
      "stateMutability": "view",
      "type": "function"
    },
    {
      "inputs": [
        {
          "internalType": "address",
          "name": "",
          "type": "address"
        }
      ],
      "name": "tokenAllowed",
      "outputs": [
        {
          "internalType": "bool",
          "name": "",
          "type": "bool"
        }
      ],
      "stateMutability": "view",
      "type": "function"
    },
    {
      "inputs": [
        {
          "internalType": "address",
          "name": "newOwner",
          "type": "address"
        }
      ],
      "name": "transferOwnership",
      "outputs": [],
      "stateMutability": "nonpayable",
      "type": "function"
    },
    {
      "inputs": [
        {
          "internalType": "address payable",
          "name": "_broker",
          "type": "address"
        }
      ],
      "name": "updateBroker",
      "outputs": [],
      "stateMutability": "nonpayable",
      "type": "function"
    },
    {
      "inputs": [
        {
          "internalType": "address",
          "name": "newImplementation",
          "type": "address"
        }
      ],
      "name": "upgradeTo",
      "outputs": [],
      "stateMutability": "nonpayable",
      "type": "function"
    },
    {
      "inputs": [
        {
          "internalType": "address",
          "name": "newImplementation",
          "type": "address"
        },
        {
          "internalType": "bytes",
          "name": "data",
          "type": "bytes"
        }
      ],
      "name": "upgradeToAndCall",
      "outputs": [],
      "stateMutability": "payable",
      "type": "function"
    },
    {
      "inputs": [
        {
          "internalType": "uint256",
          "name": "amount",
          "type": "uint256"
        }
      ],
      "name": "withdraw",
      "outputs": [],
      "stateMutability": "nonpayable",
      "type": "function"
    },
    {
      "inputs": [
        {
          "internalType": "address",
          "name": "_erc20Token",
          "type": "address"
        },
        {
          "internalType": "uint256",
          "name": "amount",
          "type": "uint256"
        }
      ],
      "name": "withdrawERC20",
      "outputs": [],
      "stateMutability": "nonpayable",
      "type": "function"
    }
  ],
  "bytecode": "0x60a0604052306080523480156200001557600080fd5b50600054610100900460ff1615808015620000375750600054600160ff909116105b8062000067575062000054306200014160201b62003b0a1760201c565b15801562000067575060005460ff166001145b620000cf5760405162461bcd60e51b815260206004820152602e60248201527f496e697469616c697a61626c653a20636f6e747261637420697320616c72656160448201526d191e481a5b9a5d1a585b1a5e995960921b606482015260840160405180910390fd5b6000805460ff191660011790558015620000f3576000805461ff0019166101001790555b80156200013a576000805461ff0019169055604051600181527f7f26b83ff96e1f2b6a682f133852f6798a09c465da95921460cefb38474024989060200160405180910390a15b5062000150565b6001600160a01b03163b151590565b608051615a506200018860003960008181610b5a01528181610b9a01528181610df101528181610e310152610ec00152615a506000f3fe60806040526004361061023b5760003560e01c806390bb075d1161012e578063c4d66de8116100ab578063e75d745c1161006f578063e75d745c146106d8578063e8a1449814610709578063f2fde38b14610753578063f557088014610773578063f6a8fada1461078657600080fd5b8063c4d66de814610650578063c4efa66514610670578063d8106f5014610685578063e328078a146106a5578063e467682d146106b857600080fd5b8063abff0110116100f2578063abff0110146105ae578063ad5c4648146105cf578063b19d7dc9146105f0578063bc6f5ed814610610578063c260940e1461063057600080fd5b806390bb075d146104f257806390ede3f71461052e578063a1db97821461054e578063a26d15f81461056e578063a4363d571461058e57600080fd5b806352d1902d116101bc578063715018a611610180578063715018a61461045f5780637275f64a146104745780637a52e3d1146104945780638d3c100a146104b45780638da5cb5b146104d457600080fd5b806352d1902d146103c657806355219d5a146103db5780635b769f3c1461040c5780636bca8bc91461042c5780636c19e7831461043f57600080fd5b806331b58f441161020357806331b58f44146103055780633659cfe61461034657806344f91c1e1461036657806345d3d21e146103935780634f1ef286146103b357600080fd5b8063150b7a0214610240578063238ac9331461027e5780632e1a7d4d146102ab5780632e2102d8146102cd5780633148a0f5146102e0575b600080fd5b34801561024c57600080fd5b5061026061025b36600461410b565b610799565b6040516001600160e01b031990911681526020015b60405180910390f35b34801561028a57600080fd5b506102936107aa565b6040516001600160a01b039091168152602001610275565b3480156102b757600080fd5b506102cb6102c6366004614176565b6107c5565b005b6102cb6102db3660046141d7565b6107fe565b3480156102ec57600080fd5b506102f76101335481565b604051908152602001610275565b34801561031157600080fd5b50610336610320366004614176565b6101376020526000908152604090205460ff1681565b6040519015158152602001610275565b34801561035257600080fd5b506102cb61036136600461426f565b610b50565b34801561037257600080fd5b5061038661038136600461428c565b610c2f565b6040516102759190614311565b34801561039f57600080fd5b506102cb6103ae366004614176565b610dd9565b6102cb6103c1366004614320565b610de7565b3480156103d257600080fd5b506102f7610eb3565b3480156103e757600080fd5b506103366103f636600461426f565b61012e6020526000908152604090205460ff1681565b34801561041857600080fd5b506102cb61042736600461426f565b610f66565b6102cb61043a3660046143f7565b610fb7565b34801561044b57600080fd5b506102cb61045a36600461426f565b61150d565b34801561046b57600080fd5b506102cb61155e565b34801561048057600080fd5b506102cb61048f366004614490565b611572565b3480156104a057600080fd5b506102cb6104af3660046144d1565b6115c8565b3480156104c057600080fd5b506102cb6104cf366004614575565b611694565b3480156104e057600080fd5b5060c9546001600160a01b0316610293565b3480156104fe57600080fd5b5061033661050d36600461428c565b61013160209081526000928352604080842090915290825290205460ff1681565b34801561053a57600080fd5b506102cb6105493660046145a5565b6119eb565b34801561055a57600080fd5b506102cb61056936600461428c565b611b5d565b34801561057a57600080fd5b506102cb610589366004614658565b611bd8565b34801561059a57600080fd5b506102cb6105a936600461426f565b611fa9565b3480156105ba57600080fd5b5061013054610293906001600160a01b031681565b3480156105db57600080fd5b5061013454610293906001600160a01b031681565b3480156105fc57600080fd5b506102cb61060b3660046144d1565b611fd4565b34801561061c57600080fd5b506102f761062b366004614768565b612277565b34801561063c57600080fd5b506102cb61064b3660046148dc565b612894565b34801561065c57600080fd5b506102cb61066b36600461426f565b612a6b565b34801561067c57600080fd5b506102f7606481565b34801561069157600080fd5b506102cb6106a036600461499c565b612ba0565b6102cb6106b336600461499c565b612d54565b3480156106c457600080fd5b506102cb6106d336600461426f565b6132d5565b3480156106e457600080fd5b506103366106f3366004614176565b6101356020526000908152604090205460ff1681565b34801561071557600080fd5b5061073e61072436600461426f565b61012f602052600090815260409020805460019091015482565b60408051928352602083019190915201610275565b34801561075f57600080fd5b506102cb61076e36600461426f565b61334d565b6102cb6107813660046149f4565b6133c3565b6102f7610794366004614acf565b613768565b630a85bd0160e11b5b949350505050565b60006107b4613b19565b50610132546001600160a01b031690565b6107cd613b19565b604051339082156108fc029083906000818181858888f193505050501580156107fa573d6000803e3d6000fd5b5050565b600260fb54036108295760405162461bcd60e51b815260040161082090614b7f565b60405180910390fd5b600260fb556000858152610135602052604090205460ff161561085e5760405162461bcd60e51b815260040161082090614bb6565b6040516331a9108f60e11b8152600481018990526000906001600160a01b03891690636352211e90602401602060405180830381865afa1580156108a6573d6000803e3d6000fd5b505050506040513d601f19601f820116820180604052508101906108ca9190614c16565b60405163f7445cdf60e01b815290915073__$ac9cb1596ef11141f90e9211ba7eee8c95$__9063f7445cdf90610912908c908c908c908c908c908c908c908b90600401614c5c565b60006040518083038186803b15801561092a57600080fd5b505af415801561093e573d6000803e3d6000fd5b5050505061095f604051806040016040528060008152602001600081525090565b61096a606480614cc4565b6001600160a01b038516600090815261012f602052604090205461098f908a90614cc4565b6109999190614ce3565b81526109a6606480614cc4565b6001600160a01b038516600090815261012f60205260409020600101546109ce908a90614cc4565b6109d89190614ce3565b6020820152610130546040516365339eed60e01b815273__$ac9cb1596ef11141f90e9211ba7eee8c95$__916365339eed91610a2e918e918e918e918b918b918a916001600160a01b0316908c90600401614d05565b60006040518083038186803b158015610a4657600080fd5b505af4158015610a5a573d6000803e3d6000fd5b5050506000888152610135602052604090819020805460ff1916600190811790915590516001600160a01b0380861693508d92908d16917f83c4dd4560cd593f19225e712d9634aad993d9f2988c4f21994089de2b719fae91610ac79189918f9183919042908e90614d6b565b60405180910390a45050506001600160a01b03909516600090815261012d6020908152604080832098835297905295862080546001600160a01b03199081168255600180830189905560028301805483169055600383018990556004830189905560058301899055600683019890985560079091018054909116905550505060fb929092555050565b6001600160a01b037f0000000000000000000000000000000000000000000000000000000000000000163003610b985760405162461bcd60e51b815260040161082090614da3565b7f00000000000000000000000000000000000000000000000000000000000000006001600160a01b0316610be16000805160206159d4833981519152546001600160a01b031690565b6001600160a01b031614610c075760405162461bcd60e51b815260040161082090614def565b610c1081613b73565b60408051600080825260208201909252610c2c91839190613b7b565b50565b610c9260405180610100016040528060006001600160a01b031681526020016000815260200160006001600160a01b031681526020016000815260200160008152602001600081526020016000815260200160006001600160a01b031681525090565b6040516331a9108f60e11b8152600481018390526000906001600160a01b03851690636352211e90602401602060405180830381865afa158015610cda573d6000803e3d6000fd5b505050506040513d601f19601f82011682018060405250810190610cfe9190614c16565b6001600160a01b03808616600090815261012d6020908152604080832088845290915290205491925080831691161480610d4057506001600160a01b03811630145b15610dd15750506001600160a01b03808316600090815261012d6020908152604080832085845282529182902082516101008101845281548516815260018201549281019290925260028101548416928201929092526003820154606082015260048201546080820152600582015460a0820152600682015460c082015260079091015490911660e0820152610dd3565b505b92915050565b610de1613b19565b61013355565b6001600160a01b037f0000000000000000000000000000000000000000000000000000000000000000163003610e2f5760405162461bcd60e51b815260040161082090614da3565b7f00000000000000000000000000000000000000000000000000000000000000006001600160a01b0316610e786000805160206159d4833981519152546001600160a01b031690565b6001600160a01b031614610e9e5760405162461bcd60e51b815260040161082090614def565b610ea782613b73565b6107fa82826001613b7b565b6000306001600160a01b037f00000000000000000000000000000000000000000000000000000000000000001614610f535760405162461bcd60e51b815260206004820152603860248201527f555550535570677261646561626c653a206d757374206e6f742062652063616c60448201527f6c6564207468726f7567682064656c656761746563616c6c00000000000000006064820152608401610820565b506000805160206159d483398151915290565b610f6e613b19565b6001600160a01b038116610f945760405162461bcd60e51b815260040161082090614e3b565b61013480546001600160a01b0319166001600160a01b0392909216919091179055565b600260fb5403610fd95760405162461bcd60e51b815260040161082090614b7f565b600260fb556040516331a9108f60e11b81526004810189905287906000906001600160a01b03831690636352211e90602401602060405180830381865afa158015611028573d6000803e3d6000fd5b505050506040513d601f19601f8201168201806040525081019061104c9190614c16565b6000868152610135602052604090205490915060ff161561113a576001600160a01b03808a16600090815261012d602090815260408083208e84528252918290208251610100810184528154851680825260018301549382019390935260028201548516938101939093526003810154606084015260048101546080840152600581015460a0840152600681015460c08401526007015490921660e0820152965015801590611119575085516001600160a01b038281169116148061111957506001600160a01b03811630145b6111355760405162461bcd60e51b815260040161082090614e8a565b611210565b60405163cdca45fd60e01b815273__$ac9cb1596ef11141f90e9211ba7eee8c95$__9063cdca45fd9061117d9089908d908f908b9088908c908c90600401614ecf565b60006040518083038186803b15801561119557600080fd5b505af41580156111a9573d6000803e3d6000fd5b505050506064806111ba9190614cc4565b608087015160e08801516001600160a01b0316600090815261012f60205260409020600101546111ea9190614cc4565b6111f49190614ce3565b86608001516112039190614f2a565b6020870152600260608701525b8560a00151421015801561122857508560c001514211155b6112445760405162461bcd60e51b815260040161082090614f42565b506000848152610135602052604090819020805460ff1916600117905551630adc0dd360e11b815273__$ac9cb1596ef11141f90e9211ba7eee8c95$__906315b81ba69061129e9088908b9086908f908d90600401614f87565b61010060405180830381865af41580156112bc573d6000803e3d6000fd5b505050506040513d601f19601f820116820180604052508101906112e09190614fc8565b61012d60008a6001600160a01b03166001600160a01b0316815260200190815260200160002060008b815260200190815260200160002060008201518160000160006101000a8154816001600160a01b0302191690836001600160a01b031602179055506020820151816001015560408201518160020160006101000a8154816001600160a01b0302191690836001600160a01b03160217905550606082015181600301556080820151816004015560a0820151816005015560c0820151816006015560e08201518160070160006101000a8154816001600160a01b0302191690836001600160a01b0316021790555090505061012d6000896001600160a01b03166001600160a01b0316815260200190815260200160002060008a815260200190815260200160002060000160009054906101000a90046001600160a01b03166001600160a01b031689896001600160a01b03167fc47f35ccd7c07e8a8a68419f2150e2a62c012eed08ade47b9d264d7a091275e061012d60008d6001600160a01b03166001600160a01b0316815260200190815260200160002060008e815260200190815260200160002060020160009054906101000a90046001600160a01b031661012d60008e6001600160a01b03166001600160a01b0316815260200190815260200160002060008f815260200190815260200160002060010154428b60e001516040516114f5949392919061506e565b60405180910390a45050600160fb5550505050505050565b611515613b19565b6001600160a01b03811661153b5760405162461bcd60e51b815260040161082090614e3b565b61013280546001600160a01b0319166001600160a01b0392909216919091179055565b611566613b19565b6115706000613ceb565b565b61157a613b19565b6001600160a01b038216600090815261012e60209081526040808320805460ff1916600117905561012f909152902081906115c2828281358155602082013560018201555050565b50505050565b604051635317d30760e01b815273__$ac9cb1596ef11141f90e9211ba7eee8c95$__90635317d3079061160f908c908c908c908c908c908c908c908c908c90600401615099565b60006040518083038186803b15801561162757600080fd5b505af415801561163b573d6000803e3d6000fd5b5050506000848152610136602052604090205460ff161590506116705760405162461bcd60e51b8152600401610820906150fa565b5050600090815261013660205260409020805460ff19166001179055505050505050565b818160006116a28284610c2f565b516001600160a01b0316036116c95760405162461bcd60e51b815260040161082090614e8a565b83836116d58183610c2f565b606001516002146117375760405162461bcd60e51b815260206004820152602660248201527f4552433732314d61726b6574706c6163653a2041756374696f6e204e6f7420466044820152651bdc88109a5960d21b6064820152608401610820565b600260fb54036117595760405162461bcd60e51b815260040161082090614b7f565b600260fb8190556001600160a01b03808716600090815261012d602090815260408083208b84528252808320815161010081018352815486168152600182015481850152958101548516868301526003810154606087015260048101546080870152600581015460a0870152600681015460c08701526007015490931660e085015282518084019093528183528201526117f4606480614cc4565b60208084015160e08501516001600160a01b0316600090815261012f9092526040909120546118239190614cc4565b61182d9190614ce3565b815261183a606480614cc4565b60208084015160e08501516001600160a01b0316600090815261012f90925260409091206001015461186c9190614cc4565b6118769190614ce3565b602082015261013054604051632803704160e21b815273__$ac9cb1596ef11141f90e9211ba7eee8c95$__9163a00dc104916118c6918c918c91889188916001600160a01b031690600401615148565b60006040518083038186803b1580156118de57600080fd5b505af41580156118f2573d6000803e3d6000fd5b5050505081600001516001600160a01b031688886001600160a01b03167f83c4dd4560cd593f19225e712d9634aad993d9f2988c4f21994089de2b719fae8560400151856020015187602001516119499190615195565b338860600151428a60e0015160405161196796959493929190614d6b565b60405180910390a45050506001600160a01b03909316600090815261012d6020908152604080832096835295905293842080546001600160a01b03199081168255600180830187905560028301805483169055600383018790556004830187905560058301879055600683019690965560079091018054909116905550505060fb55565b6040516331a9108f60e11b8152600481018490528390839033906001600160a01b03831690636352211e90602401602060405180830381865afa158015611a36573d6000803e3d6000fd5b505050506040513d601f19601f82011682018060405250810190611a5a9190614c16565b6001600160a01b031614611a805760405162461bcd60e51b8152600401610820906151ac565b6000838152610135602052604090819020805460ff1916600117905551339086906001600160a01b038716907fcd2e2ac1d1d9ae08ef2a9b9403722e4f0cedb4ae4ffe7aa6ac29963c552f399a90611ae49042908990918252602082015260400190565b60405180910390a45050506001600160a01b0316600090815261012d6020908152604080832093835292905290812080546001600160a01b031990811682556001820183905560028201805482169055600382018390556004820183905560058201839055600682019290925560070180549091169055565b611b65613b19565b60405163a9059cbb60e01b81523360048201526024810182905282906001600160a01b0382169063a9059cbb906044016020604051808303816000875af1158015611bb4573d6000803e3d6000fd5b505050506040513d601f19601f820116820180604052508101906115c29190615218565b600260fb5403611bfa5760405162461bcd60e51b815260040161082090614b7f565b600260fb556101008301516001600160a01b038116600090815261012e602052604090205460ff16611c3e5760405162461bcd60e51b81526004016108209061523a565b60808401516001600160a01b03166000908152610131602090815260408083206060880151845290915290205460ff1615611c8b5760405162461bcd60e51b81526004016108209061527e565b61013254604051630cd7437560e11b815273__$ac9cb1596ef11141f90e9211ba7eee8c95$__916319ae86ea91611cd6918891889188916001600160a01b03909116906004016153ce565b60006040518083038186803b158015611cee57600080fd5b505af4158015611d02573d6000803e3d6000fd5b5050506101008501516001600160a01b0316600090815261012f6020908152604080832081518083019092528054825260010154918101919091529150611d4a606480614cc4565b8660a001518360200151611d5e9190614cc4565b611d689190614ce3565b90508460200151818760a00151611d7f9190614f2a565b1115611df35760405162461bcd60e51b815260206004820152603760248201527f4552433732314d61726b6574706c6163653a20416d6f756e74206d757374206960448201527f6e636c75646520427579696e672042726f6b65726167650000000000000000006064820152608401610820565b611dfe606480614cc4565b85602001518360200151611e129190614cc4565b611e1c9190614ce3565b90506000611e2b606480614cc4565b60208701518451611e3c9190614cc4565b611e469190614ce3565b6101345461013354610130546040516331ee3afb60e01b815293945060009373__$ac9cb1596ef11141f90e9211ba7eee8c95$__936331ee3afb93611ea4938e938e936001600160a01b03908116939216908a908c90600401615437565b602060405180830381865af4158015611ec1573d6000803e3d6000fd5b505050506040513d601f19601f82011682018060405250810190611ee591906154ac565b6080890180516001600160a01b0390811660009081526101316020908152604080832060608f01518452825291829020805460ff191660011790558c5193518c516101008f0151928e0151935196975094841695879591909416937f2ae8cfae80e3ca53e6df3ae8faaa6fc8f7f4299792561da8b4d3b629b5c97af293611f92939142906001600160a01b0394851681529290931660208301526040820152606081019190915260800190565b60405180910390a45050600160fb55505050505050565b611fb1613b19565b61013080546001600160a01b0319166001600160a01b0392909216919091179055565b600260fb5403611ff65760405162461bcd60e51b815260040161082090614b7f565b600260fb556040516331a9108f60e11b8152600481018a90528990899033906001600160a01b03831690636352211e90602401602060405180830381865afa158015612046573d6000803e3d6000fd5b505050506040513d601f19601f8201168201806040525081019061206a9190614c16565b6001600160a01b0316146120905760405162461bcd60e51b8152600401610820906151ac565b6000858152610136602052604090205460ff16156120c05760405162461bcd60e51b8152600401610820906150fa565b60408051808201909152600080825260208201526120df606480614cc4565b6001600160a01b038816600090815261012f6020526040902054612104908c90614cc4565b61210e9190614ce3565b815261211b606480614cc4565b6001600160a01b038816600090815261012f6020526040902060010154612143908c90614cc4565b61214d9190614ce3565b81602001818152505073__$ac9cb1596ef11141f90e9211ba7eee8c95$__63d95d6d8f8d8d8d8d8d8d8d8d8d8b61013060009054906101000a90046001600160a01b03166040518c63ffffffff1660e01b81526004016121b79b9a999897969594939291906154c5565b60006040518083038186803b1580156121cf57600080fd5b505af41580156121e3573d6000803e3d6000fd5b50505060208201516121f691508b615195565b9950336001600160a01b03168c8c6001600160a01b03167fa1580da1df2e622f6d02a1e3bfa8c0cf1e36260d4221d05acbd5b4132e2545168b8e428d604051612242949392919061506e565b60405180910390a45050506000928352505061013660205260409020805460ff1916600190811790915560fb55505050505050565b6000600260fb540361229b5760405162461bcd60e51b815260040161082090614b7f565b600260fb5560808601516001600160a01b031660009081526101316020908152604080832060608a0151845290915290205460ff16156122ed5760405162461bcd60e51b81526004016108209061527e565b6101345460405163669539e960e11b815273__$ac9cb1596ef11141f90e9211ba7eee8c95$__9163cd2a73d29161233c918a918a918a918a918a916001600160a01b0390911690600401615541565b60006040518083038186803b15801561235457600080fd5b505af4158015612368573d6000803e3d6000fd5b5050506000858152610136602052604090205460ff1615905061239d5760405162461bcd60e51b8152600401610820906150fa565b6101345460408051808201909152600080825260208201526001600160a01b03909116906101335487602001516123d49190614f2a565b8751604051636eb1769f60e11b81526001600160a01b0391821660048201523060248201529084169063dd62ed3e90604401602060405180830381865afa158015612423573d6000803e3d6000fd5b505050506040513d601f19601f8201168201806040525081019061244791906154ac565b101580156124d357506101335487602001516124639190614f2a565b87516040516370a0823160e01b81526001600160a01b039182166004820152908416906370a0823190602401602060405180830381865afa1580156124ac573d6000803e3d6000fd5b505050506040513d601f19601f820116820180604052508101906124d091906154ac565b10155b6125565760405162461bcd60e51b815260206004820152604860248201527f4552433732314d61726b6574706c6163653a204973756666696369656e74206160448201527f6c6c6f77616e6365206f722062616c616e636520696e2062696464657227732060648201526730b1b1b7bab73a1760c11b608482015260a401610820565b612561606480614cc4565b6020808901516001600160a01b038516600090815261012f90925260409091205461258c9190614cc4565b6125969190614ce3565b81526125a3606480614cc4565b6020808901516001600160a01b038516600090815261012f9092526040909120600101546125d19190614cc4565b6125db9190614ce3565b6020808301829052825190890151600092916125f691615195565b6126009190615195565b88516040516323b872dd60e01b81526001600160a01b039182166004820152336024820152604481018390529192508416906323b872dd906064016020604051808303816000875af115801561265a573d6000803e3d6000fd5b505050506040513d601f19601f8201168201806040525081019061267e9190615218565b5087516101305461013354602085015185516001600160a01b03808916956323b872dd95909491169290916126b39190614f2a565b6126bd9190614f2a565b6040516001600160e01b031960e086901b1681526001600160a01b03938416600482015292909116602483015260448201526064016020604051808303816000875af1158015612711573d6000803e3d6000fd5b505050506040513d601f19601f820116820180604052508101906127359190615218565b5081602001518860200181815161274c9190615195565b9052505050608087015160408089015160208a01518a518a51935163e1606d1160e01b8152600096506001600160a01b039095169463e1606d11946127969493929160040161565e565b6020604051808303816000875af11580156127b5573d6000803e3d6000fd5b505050506040513d601f19601f820116820180604052508101906127d991906154ac565b6080880180516001600160a01b0390811660009081526101316020908152604080832060608e0151845282528083208054600160ff1991821681179092558c85526101368452938290208054909416179092558b5193518b51918c0151610134549351969750948416958795918516947fb2933e25372c552f01148cba6d40ca541a566285a2dc16abbb039b504e7609489461287d9493924292919091169061506e565b60405180910390a4600160fb559695505050505050565b6040516331a9108f60e11b8152600481018b90528a908a9033906001600160a01b03831690636352211e90602401602060405180830381865afa1580156128df573d6000803e3d6000fd5b505050506040513d601f19601f820116820180604052508101906129039190614c16565b6001600160a01b0316146129295760405162461bcd60e51b8152600401610820906151ac565b6000898152610135602052604090205460ff16156129595760405162461bcd60e51b815260040161082090614bb6565b6040516331a9108f60e11b8152600481018d90526000906001600160a01b038d1690636352211e90602401602060405180830381865afa1580156129a1573d6000803e3d6000fd5b505050506040513d601f19601f820116820180604052508101906129c59190614c16565b905073__$ac9cb1596ef11141f90e9211ba7eee8c95$__63bb4ee4bf8e8e8e8e8e8e8e898f8f8f6040518c63ffffffff1660e01b8152600401612a129b9a999897969594939291906156d6565b60006040518083038186803b158015612a2a57600080fd5b505af4158015612a3e573d6000803e3d6000fd5b5050506000968752505061013760205250506040909220805460ff19166001179055505050505050505050565b600054610100900460ff1615808015612a8b5750600054600160ff909116105b80612aa55750303b158015612aa5575060005460ff166001145b612b085760405162461bcd60e51b815260206004820152602e60248201527f496e697469616c697a61626c653a20636f6e747261637420697320616c72656160448201526d191e481a5b9a5d1a585b1a5e995960921b6064820152608401610820565b6000805460ff191660011790558015612b2b576000805461ff0019166101001790555b61013080546001600160a01b0319166001600160a01b038416179055612b4f613d3d565b612b57613d6c565b80156107fa576000805461ff0019169055604051600181527f7f26b83ff96e1f2b6a682f133852f6798a09c465da95921460cefb38474024989060200160405180910390a15050565b8035612bb2604083016020840161426f565b6040516331a9108f60e11b81526004810183905233906001600160a01b03831690636352211e90602401602060405180830381865afa158015612bf9573d6000803e3d6000fd5b505050506040513d601f19601f82011682018060405250810190612c1d9190614c16565b6001600160a01b031614612c435760405162461bcd60e51b8152600401610820906151ac565b6000612c55604085016020860161426f565b6040516331a9108f60e11b8152853560048201526001600160a01b039190911690636352211e90602401602060405180830381865afa158015612c9c573d6000803e3d6000fd5b505050506040513d601f19601f82011682018060405250810190612cc09190614c16565b604051631867057f60e11b815290915073__$ac9cb1596ef11141f90e9211ba7eee8c95$__906330ce0afe90612cfe908890889086906004016157d8565b60006040518083038186803b158015612d1657600080fd5b505af4158015612d2a573d6000803e3d6000fd5b5050505060c090930135600090815261013760205260409020805460ff1916600117905550505050565b600260fb5403612d765760405162461bcd60e51b815260040161082090614b7f565b600260fb5560c08101356000818152610137602052604090205460ff1615612db05760405162461bcd60e51b8152600401610820906158be565b6000612dc2604084016020850161426f565b6040516331a9108f60e11b8152843560048201529091506000906001600160a01b03831690636352211e90602401602060405180830381865afa158015612e0d573d6000803e3d6000fd5b505050506040513d601f19601f82011682018060405250810190612e319190614c16565b60808501356000908152610135602052604090205490915060ff1615612f3a5761012d6000612e66604087016020880161426f565b6001600160a01b039081168252602080830193909352604091820160009081208835825284528290208251610100810184528154831680825260018301549582019590955260028201548316938101939093526003810154606084015260048101546080840152600581015460a0840152600681015460c0840152600701541660e0820152955015801590612f19575084516001600160a01b0382811691161480612f1957506001600160a01b03811630145b612f355760405162461bcd60e51b815260040161082090614e8a565b613008565b604051631867057f60e11b815273__$ac9cb1596ef11141f90e9211ba7eee8c95$__906330ce0afe90612f75908890889086906004016157d8565b60006040518083038186803b158015612f8d57600080fd5b505af4158015612fa1573d6000803e3d6000fd5b50505050606480612fb29190614cc4565b608086015160e08701516001600160a01b0316600090815261012f6020526040902060010154612fe29190614cc4565b612fec9190614ce3565b8560800151612ffb9190614f2a565b6020860152600260608601525b8460a00151421015801561302057508460c001514211155b61303c5760405162461bcd60e51b815260040161082090614f42565b506080830180356000908152610135602052604090819020805460ff1916600117905573__$ac9cb1596ef11141f90e9211ba7eee8c95$__916315b81ba6918791908701359085908835906130949060608b0161426f565b6040518663ffffffff1660e01b81526004016130b4959493929190614f87565b61010060405180830381865af41580156130d2573d6000803e3d6000fd5b505050506040513d601f19601f820116820180604052508101906130f69190614fc8565b61012d600061310b604087016020880161426f565b6001600160a01b03908116825260208083019390935260409182016000908120883582528452828120855181549084166001600160a01b031991821617825586860151600183015586850151600283018054918616918316919091179055606087015160038301556080870151600483015560a0870151600583015560c0870151600683015560e0909601516007909101805491909316951694909417905561012d92916131bd91870190870161426f565b6001600160a01b03908116825260208083019390935260409182016000908120873580835290855290839020549091169290916131ff9190870190870161426f565b6001600160a01b03167fc47f35ccd7c07e8a8a68419f2150e2a62c012eed08ade47b9d264d7a091275e061012d600061323e60408a0160208b0161426f565b6001600160a01b039081168252602080830193909352604091820160009081208b3582528452828120600201549091169261012d9261328291908c01908c0161426f565b6001600160a01b03168152602080820192909252604090810160009081208b358252909252908190206001015460e08b015191516132c29392429161506e565b60405180910390a45050600160fb555050565b6001600160a01b038116600090815261012e6020526040902054819060ff166133105760405162461bcd60e51b81526004016108209061523a565b613318613b19565b506001600160a01b0316600090815261012e60209081526040808320805460ff1916905561012f909152812081815560010155565b613355613b19565b6001600160a01b0381166133ba5760405162461bcd60e51b815260206004820152602660248201527f4f776e61626c653a206e6577206f776e657220697320746865207a65726f206160448201526564647265737360d01b6064820152608401610820565b610c2c81613ceb565b600260fb54036133e55760405162461bcd60e51b815260040161082090614b7f565b600260fb5560008381526101376020526040902054839060ff161561341c5760405162461bcd60e51b8152600401610820906158be565b6000898152610135602052604090205460ff161561344c5760405162461bcd60e51b815260040161082090614bb6565b6040516331a9108f60e11b8152600481018d90526000906001600160a01b038d1690636352211e90602401602060405180830381865afa158015613494573d6000803e3d6000fd5b505050506040513d601f19601f820116820180604052508101906134b89190614c16565b905073__$ac9cb1596ef11141f90e9211ba7eee8c95$__63bb4ee4bf8e8e8e8e8e8e8e898e8e8e6040518c63ffffffff1660e01b81526004016135059b9a999897969594939291906156d6565b60006040518083038186803b15801561351d57600080fd5b505af4158015613531573d6000803e3d6000fd5b50505050613552604051806040016040528060008152602001600081525090565b61355d606480614cc4565b6001600160a01b038916600090815261012f6020526040902054613582908e90614cc4565b61358c9190614ce3565b8152613599606480614cc4565b6001600160a01b038916600090815261012f60205260409020600101546135c1908e90614cc4565b6135cb9190614ce3565b81602001818152505073__$ac9cb1596ef11141f90e9211ba7eee8c95$__6365339eed8f8f8f8c8c8761013060009054906101000a90046001600160a01b03168a6040518963ffffffff1660e01b815260040161362f989796959493929190614d05565b60006040518083038186803b15801561364757600080fd5b505af415801561365b573d6000803e3d6000fd5b5050505050600161013560008c815260200190815260200160002060006101000a81548160ff021916908315150217905550806001600160a01b03168d8d6001600160a01b03167f83c4dd4560cd593f19225e712d9634aad993d9f2988c4f21994089de2b719fae898f8b6001428f6040516136dc96959493929190614d6b565b60405180910390a45050506001600160a01b03909816600090815261012d602090815260408083209b83529a905298892080546001600160a01b0319908116825560018083018c905560028301805483169055600383018c9055600483018c9055600583018c9055600683019b909b5560079091018054909116905550505060fb959095555050505050565b6000600260fb540361378c5760405162461bcd60e51b815260040161082090614b7f565b600260fb556001600160a01b03891660009081526101316020908152604080832088845290915290205460ff16156137d65760405162461bcd60e51b81526004016108209061527e565b604051639219d88b60e01b815273__$ac9cb1596ef11141f90e9211ba7eee8c95$__90639219d88b90613819908c908c908c908c908c908c908c90600401615900565b60006040518083038186803b15801561383157600080fd5b505af4158015613845573d6000803e3d6000fd5b5050600080805261012f6020908152604080518082019091527fe9104285c6851efcbc5e0e70440200efbdcab556a1c8784776780f8bb44f29315481527fe9104285c6851efcbc5e0e70440200efbdcab556a1c8784776780f8bb44f29325491810191909152925090506138ba606480614cc4565b8683602001516138ca9190614cc4565b6138d49190614ce3565b905060006138e3606480614cc4565b83516138f0908990614cc4565b6138fa9190614ce3565b6101335490915061390b8389614f2a565b6139159190614f2a565b3410156139705760405162461bcd60e51b8152602060048201526024808201527f4552433732314d61726b6574706c6163653a204973756666696369656e7420666044820152633ab7321760e11b6064820152608401610820565b6001600160a01b038b166108fc613987838a615195565b6040518115909202916000818181858888f193505050501580156139af573d6000803e3d6000fd5b50610130546001600160a01b03166108fc6139ca838a615195565b6139d49034615195565b6040518115909202916000818181858888f193505050501580156139fc573d6000803e3d6000fd5b5060008c6001600160a01b031663e1606d118b8d8f8a6040518563ffffffff1660e01b8152600401613a31949392919061565e565b6020604051808303816000875af1158015613a50573d6000803e3d6000fd5b505050506040513d601f19601f82011682018060405250810190613a7491906154ac565b6001600160a01b038e81166000818152610131602090815260408083208f84528252808320805460ff1916600117905580518c86168152918201929092529081018c9052426060820152929350908e16918391907fed9073cebd9b59b66a3728b77a62683c1320ce8ce5c4452d0e2e8f9ea0dcab309060800160405180910390a4600160fb559c9b505050505050505050505050565b6001600160a01b03163b151590565b60c9546001600160a01b031633146115705760405162461bcd60e51b815260206004820181905260248201527f4f776e61626c653a2063616c6c6572206973206e6f7420746865206f776e65726044820152606401610820565b610c2c613b19565b7f4910fdfa16fed3260ed0e7147f7cc6da11a60208b5b9406d12a635614ffd91435460ff1615613bb357613bae83613d93565b505050565b826001600160a01b03166352d1902d6040518163ffffffff1660e01b8152600401602060405180830381865afa925050508015613c0d575060408051601f3d908101601f19168201909252613c0a918101906154ac565b60015b613c705760405162461bcd60e51b815260206004820152602e60248201527f45524331393637557067726164653a206e657720696d706c656d656e7461746960448201526d6f6e206973206e6f74205555505360901b6064820152608401610820565b6000805160206159d48339815191528114613cdf5760405162461bcd60e51b815260206004820152602960248201527f45524331393637557067726164653a20756e737570706f727465642070726f786044820152681a58589b195555525160ba1b6064820152608401610820565b50613bae838383613e2f565b60c980546001600160a01b038381166001600160a01b0319831681179093556040519116919082907f8be0079c531659141344cd1fd0a4f28419497f9722a3daafe3b4186f6b6457e090600090a35050565b600054610100900460ff16613d645760405162461bcd60e51b815260040161082090615959565b611570613e54565b600054610100900460ff166115705760405162461bcd60e51b815260040161082090615959565b6001600160a01b0381163b613e005760405162461bcd60e51b815260206004820152602d60248201527f455243313936373a206e657720696d706c656d656e746174696f6e206973206e60448201526c1bdd08184818dbdb9d1c9858dd609a1b6064820152608401610820565b6000805160206159d483398151915280546001600160a01b0319166001600160a01b0392909216919091179055565b613e3883613e84565b600082511180613e455750805b15613bae576115c28383613ec4565b600054610100900460ff16613e7b5760405162461bcd60e51b815260040161082090615959565b61157033613ceb565b613e8d81613d93565b6040516001600160a01b038216907fbc7cd75a20ee27fd9adebab32041f755214dbc6bffa90cc0225b39da2e5c2d3b90600090a250565b60606001600160a01b0383163b613f2c5760405162461bcd60e51b815260206004820152602660248201527f416464726573733a2064656c65676174652063616c6c20746f206e6f6e2d636f6044820152651b9d1c9858dd60d21b6064820152608401610820565b600080846001600160a01b031684604051613f4791906159a4565b600060405180830381855af49150503d8060008114613f82576040519150601f19603f3d011682016040523d82523d6000602084013e613f87565b606091505b5091509150613faf82826040518060600160405280602781526020016159f460279139613fb8565b95945050505050565b60608315613fc7575081613ff1565b825115613fd75782518084602001fd5b8160405162461bcd60e51b815260040161082091906159c0565b9392505050565b6001600160a01b0381168114610c2c57600080fd5b803561401881613ff8565b919050565b634e487b7160e01b600052604160045260246000fd5b60405161010081016001600160401b03811182821017156140565761405661401d565b60405290565b60405161012081016001600160401b03811182821017156140565761405661401d565b600082601f83011261409057600080fd5b81356001600160401b03808211156140aa576140aa61401d565b604051601f8301601f19908116603f011681019082821181831017156140d2576140d261401d565b816040528381528660208588010111156140eb57600080fd5b836020870160208301376000602085830101528094505050505092915050565b6000806000806080858703121561412157600080fd5b843561412c81613ff8565b9350602085013561413c81613ff8565b92506040850135915060608501356001600160401b0381111561415e57600080fd5b61416a8782880161407f565b91505092959194509250565b60006020828403121561418857600080fd5b5035919050565b60008083601f8401126141a157600080fd5b5081356001600160401b038111156141b857600080fd5b6020830191508360208285010111156141d057600080fd5b9250929050565b60008060008060008060008060e0898b0312156141f357600080fd5b88359750602089013561420581613ff8565b9650604089013595506060890135945060808901356001600160401b0381111561422e57600080fd5b61423a8b828c0161418f565b90955093505060a089013561424e81613ff8565b915060c089013561425e81613ff8565b809150509295985092959890939650565b60006020828403121561428157600080fd5b8135613ff181613ff8565b6000806040838503121561429f57600080fd5b82356142aa81613ff8565b946020939093013593505050565b80516001600160a01b03908116835260208083015190840152604080830151821690840152606080830151908401526080808301519084015260a0828101519084015260c0808301519084015260e09182015116910152565b6101008101610dd382846142b8565b6000806040838503121561433357600080fd5b823561433e81613ff8565b915060208301356001600160401b0381111561435957600080fd5b6143658582860161407f565b9150509250929050565b6000610100828403121561438257600080fd5b61438a614033565b9050813561439781613ff8565b81526020828101359082015260408201356143b181613ff8565b80604083015250606082013560608201526080820135608082015260a082013560a082015260c082013560c08201526143ec60e0830161400d565b60e082015292915050565b6000806000806000806000806101c0898b03121561441457600080fd5b88359750602089013561442681613ff8565b965060408901359550606089013561443d81613ff8565b945061444c8a60808b0161436f565b935061018089013592506101a08901356001600160401b0381111561447057600080fd5b61447c8b828c0161418f565b999c989b5096995094979396929594505050565b60008082840360608112156144a457600080fd5b83356144af81613ff8565b92506040601f19820112156144c357600080fd5b506020830190509250929050565b60008060008060008060008060006101008a8c0312156144f057600080fd5b8935985060208a013561450281613ff8565b975060408a0135965060608a0135955060808a013561452081613ff8565b945060a08a013561453081613ff8565b935060c08a0135925060e08a01356001600160401b0381111561455257600080fd5b61455e8c828d0161418f565b915080935050809150509295985092959850929598565b6000806040838503121561458857600080fd5b82359150602083013561459a81613ff8565b809150509250929050565b6000806000606084860312156145ba57600080fd5b8335925060208401356145cc81613ff8565b929592945050506040919091013590565b80356001600160601b038116811461401857600080fd5b60006060828403121561460657600080fd5b604051606081018181106001600160401b03821117156146285761462861401d565b604052905080823561463981613ff8565b8082525060208301356020820152604083013560408201525092915050565b600080600060a0848603121561466d57600080fd5b83356001600160401b038082111561468457600080fd5b90850190610120828803121561469957600080fd5b6146a161405c565b6146aa8361400d565b81526146b8602084016145dd565b60208201526040830135828111156146cf57600080fd5b6146db8982860161407f565b604083015250606083013560608201526146f76080840161400d565b608082015260a083013560a082015260c083013560c082015260e083013560e082015261010061472881850161400d565b90820152945061473b87602088016145f4565b9350608086013591508082111561475157600080fd5b5061475e8682870161407f565b9150509250925092565b600080600080600060c0868803121561478057600080fd5b85356001600160401b038082111561479757600080fd5b90870190610100828a0312156147ac57600080fd5b6147b4614033565b6147bd8361400d565b81526147cb602084016145dd565b60208201526040830135828111156147e257600080fd5b6147ee8b82860161407f565b6040830152506060830135606082015261480a6080840161400d565b608082015260a083013560a082015261482560c0840161400d565b60c082015260e08301358281111561483c57600080fd5b6148488b82860161407f565b60e083015250965061485d8960208a016145f4565b95506080880135945060a088013591508082111561487a57600080fd5b506148878882890161418f565b969995985093965092949392505050565b60008083601f8401126148aa57600080fd5b5081356001600160401b038111156148c157600080fd5b6020830191508360208260051b85010111156141d057600080fd5b6000806000806000806000806000806101008b8d0312156148fc57600080fd5b8a35995060208b013561490e81613ff8565b985060408b0135975060608b0135965060808b01356001600160401b038082111561493857600080fd5b6149448e838f0161418f565b909850965060a08d0135915061495982613ff8565b90945060c08c0135935060e08c0135908082111561497657600080fd5b506149838d828e01614898565b915080935050809150509295989b9194979a5092959850565b60008061012083850312156149b057600080fd5b6149ba848461436f565b9150610100808401356001600160401b038111156149d757600080fd5b84018086038213156149e857600080fd5b80925050509250929050565b60008060008060008060008060008060006101208c8e031215614a1657600080fd5b8b359a50614a2760208d0135613ff8565b60208c0135995060408c0135985060608c013597506001600160401b038060808e01351115614a5557600080fd5b614a658e60808f01358f0161418f565b9098509650614a7760a08e0135613ff8565b60a08d01359550614a8a60c08e0161400d565b945060e08d01359350806101008e01351115614aa557600080fd5b50614ab78d6101008e01358e01614898565b81935080925050509295989b509295989b9093969950565b600080600080600080600080610100898b031215614aec57600080fd5b8835614af781613ff8565b97506020890135614b0781613ff8565b9650614b1560408a016145dd565b955060608901356001600160401b0380821115614b3157600080fd5b614b3d8c838d0161407f565b965060808b0135955060a08b0135945060c08b0135915080821115614b6157600080fd5b50614b6e8b828c0161407f565b92505060e089013561425e81613ff8565b6020808252601f908201527f5265656e7472616e637947756172643a207265656e7472616e742063616c6c00604082015260600190565b60208082526035908201527f4552433732314d61726b6574706c6163653a204e6f6e6365206861766520626560408201527432b71030b63932b0b23c90383937b1b2b9b9b2b21760591b606082015260800190565b805161401881613ff8565b600060208284031215614c2857600080fd5b8151613ff181613ff8565b81835281816020850137506000828201602090810191909152601f909101601f19169091010190565b888152600060018060a01b03808a16602084015288604084015287606084015260e06080840152614c9160e084018789614c33565b94811660a08401529290921660c090910152509695505050505050565b634e487b7160e01b600052601160045260246000fd5b6000816000190483118215151615614cde57614cde614cae565b500290565b600082614d0057634e487b7160e01b600052601260045260246000fd5b500490565b8881526001600160a01b0388811660208301526040820188905286811660608301528581166080830152610120820190614d4c60a084018780518252602090810151910152565b80851660e0840152808416610100840152509998505050505050505050565b6001600160a01b039687168152602081019590955292851660408501526060840191909152608083015290911660a082015260c00190565b6020808252602c908201527f46756e6374696f6e206d7573742062652063616c6c6564207468726f7567682060408201526b19195b1959d85d1958d85b1b60a21b606082015260800190565b6020808252602c908201527f46756e6374696f6e206d7573742062652063616c6c6564207468726f7567682060408201526b6163746976652070726f787960a01b606082015260800190565b6020808252602f908201527f4552433732314d61726b6574506c6163653a205369676e65722063616e27742060408201526e6265206e756c6c206164647265737360881b606082015260800190565b60208082526025908201527f4552433732314d61726b6574706c6163653a20546f6b656e204e6f7420466f726040820152642053616c6560d81b606082015260800190565b60006101a0614ede838b6142b8565b6001600160a01b038981166101008501526101208401899052610140840188905286166101608401526101808301819052614f1c8184018587614c33565b9a9950505050505050505050565b60008219821115614f3d57614f3d614cae565b500190565b60208082526025908201527f4552433732314d61726b6574706c6163653a2041756374696f6e2054696d65206040820152644f7665722160d81b606082015260800190565b6101808101614f9682886142b8565b6101008201959095526001600160a01b0393841661012082015261014081019290925290911661016090910152919050565b6000610100808385031215614fdc57600080fd5b604051908101906001600160401b0382118183101715614ffe57614ffe61401d565b816040528351915061500f82613ff8565b8181526020840151602082015261502860408501614c0b565b6040820152606084015160608201526080840151608082015260a084015160a082015260c084015160c082015261506160e08501614c0b565b60e0820152949350505050565b6001600160a01b03948516815260208101939093526040830191909152909116606082015260800190565b8981526001600160a01b03898116602083015260408201899052606082018890528681166080830152851660a082015260c0810184905261010060e082018190526000906150ea8382018587614c33565b9c9b505050505050505050505050565b6020808252602e908201527f4552433732314d61726b6574706c6163653a204f6666657220697320616c726560408201526d30b23c90383937b1b2b9b9b2b21760911b606082015260800190565b8581526001600160a01b0385811660208301526101a082019061516e60408401876142b8565b84516101408401526020850151610160840152808416610180840152509695505050505050565b6000828210156151a7576151a7614cae565b500390565b60208082526046908201527f4552433732314d61726b6574706c6163653a20596f75206d757374206265206f60408201527f776e657220616e6420546f6b656e2073686f756c64206e6f74206861766520616060820152651b9e48189a5960d21b608082015260a00190565b60006020828403121561522a57600080fd5b81518015158114613ff157600080fd5b60208082526024908201527f4552433732314d61726b6574706c6163653a204552433230206e6f7420616c6c6040820152631bddd95960e21b606082015260800190565b6020808252602a908201527f4552433732314d61726b6574706c6163653a204e6f6e636520616c7265616479604082015269081c1c9bd8d95cdcd95960b21b606082015260800190565b60005b838110156152e35781810151838201526020016152cb565b838111156115c25750506000910152565b6000815180845261530c8160208601602086016152c8565b601f01601f19169290920160200192915050565b600061012060018060a01b038351168452602083015161534b60208601826001600160601b03169052565b506040830151816040860152615363828601826152f4565b91505060608301516060850152608083015161538a60808601826001600160a01b03169052565b5060a083015160a085015260c083015160c085015260e083015160e0850152610100808401516153c4828701826001600160a01b03169052565b5090949350505050565b60c0815260006153e160c0830187615320565b61540b602084018780516001600160a01b0316825260208082015190830152604090810151910152565b828103608084015261541d81866152f4565b91505060018060a01b03831660a083015295945050505050565b600061012080835261544b8184018b615320565b915050615478602083018980516001600160a01b0316825260208082015190830152604090810151910152565b6001600160a01b03968716608083015260a08201959095529290941660c083015260e0820152610100019190915292915050565b6000602082840312156154be57600080fd5b5051919050565b60006101608d835260018060a01b03808e1660208501528c60408501528b6060850152808b166080850152808a1660a08501528860c08501528160e0850152615511828501888a614c33565b86516101008601526020870151610120860152925080851661014085015250509c9b505050505050505050505050565b60e080825287516001600160a01b0316908201526020870151600090610100615574818501836001600160601b03169052565b60408a0151915080610120850152506155916101e08401826152f4565b9050606089015161014084015260808901516155b96101608501826001600160a01b03169052565b5060a089015161018084015260c08901516001600160a01b03166101a084015260e089015183820360df19016101c08501526155f582826152f4565b915050615622602084018980516001600160a01b0316825260208082015190830152604090810151910152565b86608084015282810360a084015261563b818688614c33565b91505061565360c08301846001600160a01b03169052565b979650505050505050565b60808152600061567160808301876152f4565b6001600160601b03959095166020830152506001600160a01b0392831660408201529116606090910152919050565b81835260006001600160fb1b038311156156b957600080fd5b8260051b8083602087013760009401602001938452509192915050565b60006101208d835260018060a01b03808e1660208501528c60408501528b606085015281608085015261570c8285018b8d614c33565b915080891660a085015280881660c0850152508560e08401528281036101008401526157398185876156a0565b9e9d5050505050505050505050505050565b6000808335601e1984360301811261576257600080fd5b83016020810192503590506001600160401b0381111561578157600080fd5b8036038313156141d057600080fd5b6000808335601e198436030181126157a757600080fd5b83016020810192503590506001600160401b038111156157c657600080fd5b8060051b36038313156141d057600080fd5b60006101406157e783876142b8565b61010081818501528535828501526020860135915061580582613ff8565b6001600160a01b038216610160850152604086013561018085015261582c6060870161400d565b6001600160a01b0381166101a0860152915060808601356101c085015261585660a087018761574b565b9250816101e086015261586e61024086018483614c33565b9250505060c085013561020084015261588a60e0860186615790565b84830361013f19016102208601526158a38382846156a0565b93505050506107a26101208301846001600160a01b03169052565b60208082526022908201527f4552433732314d61726b6574706c6163653a20526f6f74204469736361726465604082015261321760f11b606082015260800190565b6001600160a01b038881168252871660208201526001600160601b038616604082015260e06060820181905260009061593b908301876152f4565b8560808401528460a084015282810360c0840152614f1c81856152f4565b6020808252602b908201527f496e697469616c697a61626c653a20636f6e7472616374206973206e6f74206960408201526a6e697469616c697a696e6760a81b606082015260800190565b600082516159b68184602087016152c8565b9190910192915050565b602081526000613ff160208301846152f456fe360894a13ba1a3210667c828492db98dca3e2076cc3735a920a3ca505d382bbc416464726573733a206c6f772d6c6576656c2064656c65676174652063616c6c206661696c6564a26469706673582212204563d8aa11de96f4526917deec26a1893c8b1fee530599142a0181444782953764736f6c634300080d0033",
  "linkReferences": {
    "contracts/libraries/ERC721MarketplaceHelper.sol": {
      "ERC721MarketplaceHelper": [
        {
          "length": 20,
          "start": 2660
        },
        {
          "length": 20,
          "start": 2936
        },
        {
          "length": 20,
          "start": 4817
        },
        {
          "length": 20,
          "start": 5110
        },
        {
          "length": 20,
          "start": 5983
        },
        {
          "length": 20,
          "start": 6678
        },
        {
          "length": 20,
          "start": 7718
        },
        {
          "length": 20,
          "start": 8175
        },
        {
          "length": 20,
          "start": 8928
        },
        {
          "length": 20,
          "start": 9352
        },
        {
          "length": 20,
          "start": 11089
        },
        {
          "length": 20,
          "start": 11866
        },
        {
          "length": 20,
          "start": 12497
        },
        {
          "length": 20,
          "start": 12777
        },
        {
          "length": 20,
          "start": 13892
        },
        {
          "length": 20,
          "start": 14174
        },
        {
          "length": 20,
          "start": 14701
        }
      ]
    }
  },
  "deployedLinkReferences": {
    "contracts/libraries/ERC721MarketplaceHelper.sol": {
      "ERC721MarketplaceHelper": [
        {
          "length": 20,
          "start": 2268
        },
        {
          "length": 20,
          "start": 2544
        },
        {
          "length": 20,
          "start": 4425
        },
        {
          "length": 20,
          "start": 4718
        },
        {
          "length": 20,
          "start": 5591
        },
        {
          "length": 20,
          "start": 6286
        },
        {
          "length": 20,
          "start": 7326
        },
        {
          "length": 20,
          "start": 7783
        },
        {
          "length": 20,
          "start": 8536
        },
        {
          "length": 20,
          "start": 8960
        },
        {
          "length": 20,
          "start": 10697
        },
        {
          "length": 20,
          "start": 11474
        },
        {
          "length": 20,
          "start": 12105
        },
        {
          "length": 20,
          "start": 12385
        },
        {
          "length": 20,
          "start": 13500
        },
        {
          "length": 20,
          "start": 13782
        },
        {
          "length": 20,
          "start": 14309
        }
      ]
    }
  }
}