{
  "_format": "hh-sol-artifact-1",
  "contractName": "ERC721Base",
  "sourceName": "contracts/ERC721Base.sol",
  "abi": [
    {
      "inputs": [
        {
          "internalType": "string",
          "name": "_name",
          "type": "string"
        },
        {
          "internalType": "string",
          "name": "_symbol",
          "type": "string"
        },
        {
          "internalType": "string",
          "name": "_contractURI",
          "type": "string"
        },
        {
          "internalType": "string",
          "name": "_tokenURIPrefix",
          "type": "string"
        },
        {
          "internalType": "uint96",
          "name": "_royaltyLimit",
          "type": "uint96"
        }
      ],
      "stateMutability": "nonpayable",
      "type": "constructor"
    },
    {
      "anonymous": false,
      "inputs": [
        {
          "indexed": true,
          "internalType": "address",
          "name": "owner",
          "type": "address"
        },
        {
          "indexed": true,
          "internalType": "address",
          "name": "approved",
          "type": "address"
        },
        {
          "indexed": true,
          "internalType": "uint256",
          "name": "tokenId",
          "type": "uint256"
        }
      ],
      "name": "Approval",
      "type": "event"
    },
    {
      "anonymous": false,
      "inputs": [
        {
          "indexed": true,
          "internalType": "address",
          "name": "owner",
          "type": "address"
        },
        {
          "indexed": true,
          "internalType": "address",
          "name": "operator",
          "type": "address"
        },
        {
          "indexed": false,
          "internalType": "bool",
          "name": "approved",
          "type": "bool"
        }
      ],
      "name": "ApprovalForAll",
      "type": "event"
    },
    {
      "anonymous": false,
      "inputs": [
        {
          "indexed": true,
          "internalType": "address",
          "name": "previousOwner",
          "type": "address"
        },
        {
          "indexed": true,
          "internalType": "address",
          "name": "newOwner",
          "type": "address"
        }
      ],
      "name": "OwnershipTransferred",
      "type": "event"
    },
    {
      "anonymous": false,
      "inputs": [
        {
          "indexed": true,
          "internalType": "address",
          "name": "from",
          "type": "address"
        },
        {
          "indexed": true,
          "internalType": "address",
          "name": "to",
          "type": "address"
        },
        {
          "indexed": true,
          "internalType": "uint256",
          "name": "tokenId",
          "type": "uint256"
        }
      ],
      "name": "Transfer",
      "type": "event"
    },
    {
      "stateMutability": "payable",
      "type": "fallback"
    },
    {
      "inputs": [
        {
          "internalType": "address",
          "name": "to",
          "type": "address"
        },
        {
          "internalType": "uint256",
          "name": "tokenId",
          "type": "uint256"
        }
      ],
      "name": "approve",
      "outputs": [],
      "stateMutability": "nonpayable",
      "type": "function"
    },
    {
      "inputs": [
        {
          "internalType": "address",
          "name": "owner",
          "type": "address"
        }
      ],
      "name": "balanceOf",
      "outputs": [
        {
          "internalType": "uint256",
          "name": "",
          "type": "uint256"
        }
      ],
      "stateMutability": "view",
      "type": "function"
    },
    {
      "inputs": [
        {
          "internalType": "uint256",
          "name": "tokenId",
          "type": "uint256"
        }
      ],
      "name": "burn",
      "outputs": [],
      "stateMutability": "nonpayable",
      "type": "function"
    },
    {
      "inputs": [],
      "name": "contractURI",
      "outputs": [
        {
          "internalType": "string",
          "name": "",
          "type": "string"
        }
      ],
      "stateMutability": "view",
      "type": "function"
    },
    {
      "inputs": [
        {
          "internalType": "uint256",
          "name": "tokenId",
          "type": "uint256"
        }
      ],
      "name": "getApproved",
      "outputs": [
        {
          "internalType": "address",
          "name": "",
          "type": "address"
        }
      ],
      "stateMutability": "view",
      "type": "function"
    },
    {
      "inputs": [
        {
          "internalType": "address",
          "name": "owner",
          "type": "address"
        },
        {
          "internalType": "address",
          "name": "operator",
          "type": "address"
        }
      ],
      "name": "isApprovedForAll",
      "outputs": [
        {
          "internalType": "bool",
          "name": "",
          "type": "bool"
        }
      ],
      "stateMutability": "view",
      "type": "function"
    },
    {
      "inputs": [
        {
          "internalType": "uint256",
          "name": "",
          "type": "uint256"
        }
      ],
      "name": "isNonceProcessed",
      "outputs": [
        {
          "internalType": "bool",
          "name": "",
          "type": "bool"
        }
      ],
      "stateMutability": "view",
      "type": "function"
    },
    {
      "inputs": [],
      "name": "name",
      "outputs": [
        {
          "internalType": "string",
          "name": "",
          "type": "string"
        }
      ],
      "stateMutability": "view",
      "type": "function"
    },
    {
      "inputs": [],
      "name": "openForAll",
      "outputs": [
        {
          "internalType": "bool",
          "name": "",
          "type": "bool"
        }
      ],
      "stateMutability": "view",
      "type": "function"
    },
    {
      "inputs": [],
      "name": "owner",
      "outputs": [
        {
          "internalType": "address",
          "name": "",
          "type": "address"
        }
      ],
      "stateMutability": "view",
      "type": "function"
    },
    {
      "inputs": [
        {
          "internalType": "uint256",
          "name": "tokenId",
          "type": "uint256"
        }
      ],
      "name": "ownerOf",
      "outputs": [
        {
          "internalType": "address",
          "name": "",
          "type": "address"
        }
      ],
      "stateMutability": "view",
      "type": "function"
    },
    {
      "inputs": [
        {
          "internalType": "address[]",
          "name": "users",
          "type": "address[]"
        }
      ],
      "name": "removeWhitelistUsers",
      "outputs": [],
      "stateMutability": "nonpayable",
      "type": "function"
    },
    {
      "inputs": [],
      "name": "renounceOwnership",
      "outputs": [],
      "stateMutability": "nonpayable",
      "type": "function"
    },
    {
      "inputs": [
        {
          "internalType": "uint256",
          "name": "_tokenId",
          "type": "uint256"
        },
        {
          "internalType": "uint256",
          "name": "_salePrice",
          "type": "uint256"
        }
      ],
      "name": "royaltyInfo",
      "outputs": [
        {
          "internalType": "address",
          "name": "",
          "type": "address"
        },
        {
          "internalType": "uint256",
          "name": "",
          "type": "uint256"
        }
      ],
      "stateMutability": "view",
      "type": "function"
    },
    {
      "inputs": [],
      "name": "royaltyLimit",
      "outputs": [
        {
          "internalType": "uint96",
          "name": "",
          "type": "uint96"
        }
      ],
      "stateMutability": "view",
      "type": "function"
    },
    {
      "inputs": [
        {
          "internalType": "address",
          "name": "from",
          "type": "address"
        },
        {
          "internalType": "address",
          "name": "to",
          "type": "address"
        },
        {
          "internalType": "uint256",
          "name": "tokenId",
          "type": "uint256"
        }
      ],
      "name": "safeTransferFrom",
      "outputs": [],
      "stateMutability": "nonpayable",
      "type": "function"
    },
    {
      "inputs": [
        {
          "internalType": "address",
          "name": "from",
          "type": "address"
        },
        {
          "internalType": "address",
          "name": "to",
          "type": "address"
        },
        {
          "internalType": "uint256",
          "name": "tokenId",
          "type": "uint256"
        },
        {
          "internalType": "bytes",
          "name": "data",
          "type": "bytes"
        }
      ],
      "name": "safeTransferFrom",
      "outputs": [],
      "stateMutability": "nonpayable",
      "type": "function"
    },
    {
      "inputs": [
        {
          "internalType": "address",
          "name": "operator",
          "type": "address"
        },
        {
          "internalType": "bool",
          "name": "approved",
          "type": "bool"
        }
      ],
      "name": "setApprovalForAll",
      "outputs": [],
      "stateMutability": "nonpayable",
      "type": "function"
    },
    {
      "inputs": [
        {
          "internalType": "string",
          "name": "_baseURI_",
          "type": "string"
        }
      ],
      "name": "setBaseURI",
      "outputs": [],
      "stateMutability": "nonpayable",
      "type": "function"
    },
    {
      "inputs": [
        {
          "internalType": "string",
          "name": "_contractURI",
          "type": "string"
        }
      ],
      "name": "setContractURI",
      "outputs": [],
      "stateMutability": "nonpayable",
      "type": "function"
    },
    {
      "inputs": [
        {
          "internalType": "uint96",
          "name": "_royaltyLimit",
          "type": "uint96"
        }
      ],
      "name": "setRoyaltyLimit",
      "outputs": [],
      "stateMutability": "nonpayable",
      "type": "function"
    },
    {
      "inputs": [
        {
          "internalType": "bytes4",
          "name": "interfaceId",
          "type": "bytes4"
        }
      ],
      "name": "supportsInterface",
      "outputs": [
        {
          "internalType": "bool",
          "name": "",
          "type": "bool"
        }
      ],
      "stateMutability": "view",
      "type": "function"
    },
    {
      "inputs": [],
      "name": "symbol",
      "outputs": [
        {
          "internalType": "string",
          "name": "",
          "type": "string"
        }
      ],
      "stateMutability": "view",
      "type": "function"
    },
    {
      "inputs": [],
      "name": "toggleOpenForAll",
      "outputs": [],
      "stateMutability": "nonpayable",
      "type": "function"
    },
    {
      "inputs": [
        {
          "internalType": "uint256",
          "name": "index",
          "type": "uint256"
        }
      ],
      "name": "tokenByIndex",
      "outputs": [
        {
          "internalType": "uint256",
          "name": "",
          "type": "uint256"
        }
      ],
      "stateMutability": "view",
      "type": "function"
    },
    {
      "inputs": [
        {
          "internalType": "address",
          "name": "owner",
          "type": "address"
        },
        {
          "internalType": "uint256",
          "name": "index",
          "type": "uint256"
        }
      ],
      "name": "tokenOfOwnerByIndex",
      "outputs": [
        {
          "internalType": "uint256",
          "name": "",
          "type": "uint256"
        }
      ],
      "stateMutability": "view",
      "type": "function"
    },
    {
      "inputs": [
        {
          "internalType": "uint256",
          "name": "tokenId",
          "type": "uint256"
        }
      ],
      "name": "tokenURI",
      "outputs": [
        {
          "internalType": "string",
          "name": "",
          "type": "string"
        }
      ],
      "stateMutability": "view",
      "type": "function"
    },
    {
      "inputs": [],
      "name": "totalSupply",
      "outputs": [
        {
          "internalType": "uint256",
          "name": "",
          "type": "uint256"
        }
      ],
      "stateMutability": "view",
      "type": "function"
    },
    {
      "inputs": [
        {
          "internalType": "address",
          "name": "from",
          "type": "address"
        },
        {
          "internalType": "address",
          "name": "to",
          "type": "address"
        },
        {
          "internalType": "uint256",
          "name": "tokenId",
          "type": "uint256"
        }
      ],
      "name": "transferFrom",
      "outputs": [],
      "stateMutability": "nonpayable",
      "type": "function"
    },
    {
      "inputs": [
        {
          "internalType": "address",
          "name": "newOwner",
          "type": "address"
        }
      ],
      "name": "transferOwnership",
      "outputs": [],
      "stateMutability": "nonpayable",
      "type": "function"
    },
    {
      "inputs": [
        {
          "internalType": "address[]",
          "name": "users",
          "type": "address[]"
        }
      ],
      "name": "whitelistUsers",
      "outputs": [],
      "stateMutability": "nonpayable",
      "type": "function"
    },
    {
      "inputs": [
        {
          "internalType": "address",
          "name": "",
          "type": "address"
        }
      ],
      "name": "whitelistedUsers",
      "outputs": [
        {
          "internalType": "bool",
          "name": "",
          "type": "bool"
        }
      ],
      "stateMutability": "view",
      "type": "function"
    },
    {
      "inputs": [],
      "name": "withdraw",
      "outputs": [],
      "stateMutability": "nonpayable",
      "type": "function"
    },
    {
      "inputs": [
        {
          "internalType": "address",
          "name": "_erc20",
          "type": "address"
        }
      ],
      "name": "withdrawERC20",
      "outputs": [],
      "stateMutability": "nonpayable",
      "type": "function"
    },
    {
      "stateMutability": "payable",
      "type": "receive"
    }
  ],
  "bytecode": "0x608060405260006010556013805460ff191690553480156200002057600080fd5b506040516200283a3803806200283a833981016040819052620000439162000324565b8451859085906200005c906002906020850190620001b1565b50805162000072906003906020840190620001b1565b5050506200008f620000896200015b60201b60201c565b6200015f565b6127106001600160601b0382161115620001045760405162461bcd60e51b815260206004820152602c60248201527f455243373231426173653a20526f79616c7479206c696d6974206d757374206260448201526b652062656c6f77203130302560a01b606482015260840160405180910390fd5b600d80546001600160a01b0316600160a01b6001600160601b0384160217905582516200013990600e906020860190620001b1565b5081516200014f90600f906020850190620001b1565b5050505050506200043d565b3390565b600d80546001600160a01b038381166001600160a01b0319831681179093556040519116919082907f8be0079c531659141344cd1fd0a4f28419497f9722a3daafe3b4186f6b6457e090600090a35050565b828054620001bf9062000401565b90600052602060002090601f016020900481019282620001e357600085556200022e565b82601f10620001fe57805160ff19168380011785556200022e565b828001600101855582156200022e579182015b828111156200022e57825182559160200191906001019062000211565b506200023c92915062000240565b5090565b5b808211156200023c576000815560010162000241565b634e487b7160e01b600052604160045260246000fd5b600082601f8301126200027f57600080fd5b81516001600160401b03808211156200029c576200029c62000257565b604051601f8301601f19908116603f01168101908282118183101715620002c757620002c762000257565b81604052838152602092508683858801011115620002e457600080fd5b600091505b83821015620003085785820183015181830184015290820190620002e9565b838211156200031a5760008385830101525b9695505050505050565b600080600080600060a086880312156200033d57600080fd5b85516001600160401b03808211156200035557600080fd5b6200036389838a016200026d565b965060208801519150808211156200037a57600080fd5b6200038889838a016200026d565b955060408801519150808211156200039f57600080fd5b620003ad89838a016200026d565b94506060880151915080821115620003c457600080fd5b50620003d3888289016200026d565b608088015190935090506001600160601b0381168114620003f357600080fd5b809150509295509295909350565b600181811c908216806200041657607f821691505b6020821081036200043757634e487b7160e01b600052602260045260246000fd5b50919050565b6123ed806200044d6000396000f3fe6080604052600436106101e55760003560e01c8063715018a611610101578063b88d4fde1161009a578063e985e9c51161006c578063e985e9c5146105cb578063edec5f2714610614578063f2fde38b14610634578063f4f3b20014610654578063f621cc481461067457005b8063b88d4fde1461055c578063c87b56dd1461057c578063c9dc5bc61461059c578063e8a3d485146105b657005b806395d89b41116100d357806395d89b41146104e75780639717e5c8146104fc578063a22cb4651461051c578063b2e131111461053c57005b8063715018a61461047f57806380dfe70a146104945780638da5cb5b146104a9578063938e3d7b146104c757005b80632f745c591161017e5780634f6ccce7116101505780634f6ccce7146103cf57806355f804b3146103ef5780636352211e1461040f5780636b3f4b3f1461042f57806370a082311461045f57005b80632f745c591461035a5780633ccfd60b1461037a57806342842e0e1461038f57806342966c68146103af57005b806318160ddd116101b757806318160ddd1461029d5780631fe9f030146102bc57806323b872dd146102fb5780632a55205a1461031b57005b806301ffc9a7146101ee57806306fdde0314610223578063081812fc14610245578063095ea7b31461027d57005b366101ec57005b005b3480156101fa57600080fd5b5061020e610209366004611d25565b6106a4565b60405190151581526020015b60405180910390f35b34801561022f57600080fd5b506102386106b5565b60405161021a9190611d9a565b34801561025157600080fd5b50610265610260366004611dad565b610747565b6040516001600160a01b03909116815260200161021a565b34801561028957600080fd5b506101ec610298366004611de2565b61076e565b3480156102a957600080fd5b50600a545b60405190815260200161021a565b3480156102c857600080fd5b50600d546102e390600160a01b90046001600160601b031681565b6040516001600160601b03909116815260200161021a565b34801561030757600080fd5b506101ec610316366004611e0c565b610888565b34801561032757600080fd5b5061033b610336366004611e48565b6108ba565b604080516001600160a01b03909316835260208301919091520161021a565b34801561036657600080fd5b506102ae610375366004611de2565b610966565b34801561038657600080fd5b506101ec6109fc565b34801561039b57600080fd5b506101ec6103aa366004611e0c565b610a33565b3480156103bb57600080fd5b506101ec6103ca366004611dad565b610a4e565b3480156103db57600080fd5b506102ae6103ea366004611dad565b610a7c565b3480156103fb57600080fd5b506101ec61040a366004611f09565b610b0f565b34801561041b57600080fd5b5061026561042a366004611dad565b610b2e565b34801561043b57600080fd5b5061020e61044a366004611dad565b60116020526000908152604090205460ff1681565b34801561046b57600080fd5b506102ae61047a366004611f52565b610b8e565b34801561048b57600080fd5b506101ec610c14565b3480156104a057600080fd5b506101ec610c28565b3480156104b557600080fd5b50600d546001600160a01b0316610265565b3480156104d357600080fd5b506101ec6104e2366004611f09565b610c44565b3480156104f357600080fd5b50610238610c5f565b34801561050857600080fd5b506101ec610517366004611f6d565b610c6e565b34801561052857600080fd5b506101ec610537366004611fa4565b610d0e565b34801561054857600080fd5b506101ec610557366004611fdb565b610d19565b34801561056857600080fd5b506101ec610577366004612088565b610d89565b34801561058857600080fd5b50610238610597366004611dad565b610dc1565b3480156105a857600080fd5b5060135461020e9060ff1681565b3480156105c257600080fd5b50610238610dcc565b3480156105d757600080fd5b5061020e6105e6366004612104565b6001600160a01b03918216600090815260076020908152604080832093909416825291909152205460ff1690565b34801561062057600080fd5b506101ec61062f366004611fdb565b610e5a565b34801561064057600080fd5b506101ec61064f366004611f52565b610eca565b34801561066057600080fd5b506101ec61066f366004611f52565b610f40565b34801561068057600080fd5b5061020e61068f366004611f52565b60126020526000908152604090205460ff1681565b60006106af8261102b565b92915050565b6060600280546106c490612137565b80601f01602080910402602001604051908101604052809291908181526020018280546106f090612137565b801561073d5780601f106107125761010080835404028352916020019161073d565b820191906000526020600020905b81548152906001019060200180831161072057829003601f168201915b5050505050905090565b600061075282611036565b506000908152600660205260409020546001600160a01b031690565b600061077982610b2e565b9050806001600160a01b0316836001600160a01b0316036107eb5760405162461bcd60e51b815260206004820152602160248201527f4552433732313a20617070726f76616c20746f2063757272656e74206f776e656044820152603960f91b60648201526084015b60405180910390fd5b336001600160a01b0382161480610807575061080781336105e6565b6108795760405162461bcd60e51b815260206004820152603e60248201527f4552433732313a20617070726f76652063616c6c6572206973206e6f7420746f60448201527f6b656e206f776e6572206e6f7220617070726f76656420666f7220616c6c000060648201526084016107e2565b6108838383611095565b505050565b610893335b82611103565b6108af5760405162461bcd60e51b81526004016107e290612171565b610883838383611182565b60008281526001602090815260408083208151808301909252546001600160a01b038116808352600160a01b9091046001600160601b031692820192909252829161092f5750604080518082019091526000546001600160a01b0381168252600160a01b90046001600160601b031660208201525b60208101516000906127109061094e906001600160601b0316876121d5565b610958919061220a565b915196919550909350505050565b600061097183610b8e565b82106109d35760405162461bcd60e51b815260206004820152602b60248201527f455243373231456e756d657261626c653a206f776e657220696e646578206f7560448201526a74206f6620626f756e647360a81b60648201526084016107e2565b506001600160a01b03919091166000908152600860209081526040808320938352929052205490565b610a04611329565b60405133904780156108fc02916000818181858888f19350505050158015610a30573d6000803e3d6000fd5b50565b61088383838360405180602001604052806000815250610d89565b610a573361088d565b610a735760405162461bcd60e51b81526004016107e290612171565b610a3081611383565b6000610a87600a5490565b8210610aea5760405162461bcd60e51b815260206004820152602c60248201527f455243373231456e756d657261626c653a20676c6f62616c20696e646578206f60448201526b7574206f6620626f756e647360a01b60648201526084016107e2565b600a8281548110610afd57610afd61221e565b90600052602060002001549050919050565b610b17611329565b8051610b2a90600f906020840190611c40565b5050565b6000818152600460205260408120546001600160a01b0316806106af5760405162461bcd60e51b8152602060048201526018602482015277115490cdcc8c4e881a5b9d985b1a59081d1bdad95b88125160421b60448201526064016107e2565b60006001600160a01b038216610bf85760405162461bcd60e51b815260206004820152602960248201527f4552433732313a2061646472657373207a65726f206973206e6f7420612076616044820152683634b21037bbb732b960b91b60648201526084016107e2565b506001600160a01b031660009081526005602052604090205490565b610c1c611329565b610c26600061138c565b565b610c30611329565b6013805460ff19811660ff90911615179055565b610c4c611329565b8051610b2a90600e906020840190611c40565b6060600380546106c490612137565b610c76611329565b6127106001600160601b0382161115610ce65760405162461bcd60e51b815260206004820152602c60248201527f455243373231426173653a20526f79616c7479206c696d6974206d757374206260448201526b652062656c6f77203130302560a01b60648201526084016107e2565b600d80546001600160601b03909216600160a01b026001600160a01b03909216919091179055565b610b2a3383836113de565b610d21611329565b60005b8151811015610b2a57600060126000848481518110610d4557610d4561221e565b6020908102919091018101516001600160a01b03168252810191909152604001600020805460ff191691151591909117905580610d8181612234565b915050610d24565b610d933383611103565b610daf5760405162461bcd60e51b81526004016107e290612171565b610dbb848484846114ac565b50505050565b60606106af826114df565b600e8054610dd990612137565b80601f0160208091040260200160405190810160405280929190818152602001828054610e0590612137565b8015610e525780601f10610e2757610100808354040283529160200191610e52565b820191906000526020600020905b815481529060010190602001808311610e3557829003601f168201915b505050505081565b610e62611329565b60005b8151811015610b2a57600160126000848481518110610e8657610e8661221e565b6020908102919091018101516001600160a01b03168252810191909152604001600020805460ff191691151591909117905580610ec281612234565b915050610e65565b610ed2611329565b6001600160a01b038116610f375760405162461bcd60e51b815260206004820152602660248201527f4f776e61626c653a206e6577206f776e657220697320746865207a65726f206160448201526564647265737360d01b60648201526084016107e2565b610a308161138c565b610f48611329565b6040516370a0823160e01b815230600482015281906001600160a01b0382169063a9059cbb90339083906370a0823190602401602060405180830381865afa158015610f98573d6000803e3d6000fd5b505050506040513d601f19601f82011682018060405250810190610fbc919061224d565b6040516001600160e01b031960e085901b1681526001600160a01b03909216600483015260248201526044016020604051808303816000875af1158015611007573d6000803e3d6000fd5b505050506040513d601f19601f820116820180604052508101906108839190612266565b60006106af826115da565b6000818152600460205260409020546001600160a01b0316610a305760405162461bcd60e51b8152602060048201526018602482015277115490cdcc8c4e881a5b9d985b1a59081d1bdad95b88125160421b60448201526064016107e2565b600081815260066020526040902080546001600160a01b0319166001600160a01b03841690811790915581906110ca82610b2e565b6001600160a01b03167f8c5be1e5ebec7d5bd14f71427d1e84f3dd0314c0f7b2291e5b200ac8c7c3b92560405160405180910390a45050565b60008061110f83610b2e565b9050806001600160a01b0316846001600160a01b0316148061115657506001600160a01b0380821660009081526007602090815260408083209388168352929052205460ff165b8061117a5750836001600160a01b031661116f84610747565b6001600160a01b0316145b949350505050565b826001600160a01b031661119582610b2e565b6001600160a01b0316146111f95760405162461bcd60e51b815260206004820152602560248201527f4552433732313a207472616e736665722066726f6d20696e636f72726563742060448201526437bbb732b960d91b60648201526084016107e2565b6001600160a01b03821661125b5760405162461bcd60e51b8152602060048201526024808201527f4552433732313a207472616e7366657220746f20746865207a65726f206164646044820152637265737360e01b60648201526084016107e2565b6112668383836115ff565b611271600082611095565b6001600160a01b038316600090815260056020526040812080546001929061129a908490612283565b90915550506001600160a01b03821660009081526005602052604081208054600192906112c890849061229a565b909155505060008181526004602052604080822080546001600160a01b0319166001600160a01b0386811691821790925591518493918716917fddf252ad1be2c89b69c2b068fc378daa952ba7f163c4a11628f55a4df523b3ef91a4505050565b600d546001600160a01b03163314610c265760405162461bcd60e51b815260206004820181905260248201527f4f776e61626c653a2063616c6c6572206973206e6f7420746865206f776e657260448201526064016107e2565b610a308161160a565b600d80546001600160a01b038381166001600160a01b0319831681179093556040519116919082907f8be0079c531659141344cd1fd0a4f28419497f9722a3daafe3b4186f6b6457e090600090a35050565b816001600160a01b0316836001600160a01b03160361143f5760405162461bcd60e51b815260206004820152601960248201527f4552433732313a20617070726f766520746f2063616c6c65720000000000000060448201526064016107e2565b6001600160a01b03838116600081815260076020908152604080832094871680845294825291829020805460ff191686151590811790915591519182527f17307eab39ab6107e8899845ad3d59bd9653f200f220920489ca2b5937696c31910160405180910390a3505050565b6114b7848484611182565b6114c38484848461164a565b610dbb5760405162461bcd60e51b81526004016107e2906122b2565b60606114ea82611036565b6000828152600c60205260408120805461150390612137565b80601f016020809104026020016040519081016040528092919081815260200182805461152f90612137565b801561157c5780601f106115515761010080835404028352916020019161157c565b820191906000526020600020905b81548152906001019060200180831161155f57829003601f168201915b50505050509050600061158d61174b565b9050805160000361159f575092915050565b8151156115d15780826040516020016115b9929190612304565b60405160208183030381529060405292505050919050565b61117a8461175a565b60006001600160e01b0319821663780e9d6360e01b14806106af57506106af826117c1565b610883838383611801565b611613816118b9565b6000818152600c60205260409020805461162c90612137565b159050610a30576000818152600c60205260408120610a3091611cc4565b60006001600160a01b0384163b1561174057604051630a85bd0160e11b81526001600160a01b0385169063150b7a029061168e903390899088908890600401612333565b6020604051808303816000875af19250505080156116c9575060408051601f3d908101601f191682019092526116c691810190612370565b60015b611726573d8080156116f7576040519150601f19603f3d011682016040523d82523d6000602084013e6116fc565b606091505b50805160000361171e5760405162461bcd60e51b81526004016107e2906122b2565b805181602001fd5b6001600160e01b031916630a85bd0160e11b14905061117a565b506001949350505050565b6060600f80546106c490612137565b606061176582611036565b600061176f61174b565b9050600081511161178f57604051806020016040528060008152506117ba565b80611799846118d3565b6040516020016117aa929190612304565b6040516020818303038152906040525b9392505050565b60006001600160e01b031982166380ac58cd60e01b14806117f257506001600160e01b03198216635b5e139f60e01b145b806106af57506106af826119d4565b6001600160a01b03831661185c5761185781600a80546000838152600b60205260408120829055600182018355919091527fc65a7bb8d6351c1cf70c95a316cc6a92839c986682d98bc35f958f4883f9d2a80155565b61187f565b816001600160a01b0316836001600160a01b03161461187f5761187f8382611a09565b6001600160a01b0382166118965761088381611aa6565b826001600160a01b0316826001600160a01b031614610883576108838282611b55565b6118c281611b99565b600090815260016020526040812055565b6060816000036118fa5750506040805180820190915260018152600360fc1b602082015290565b8160005b8115611924578061190e81612234565b915061191d9050600a8361220a565b91506118fe565b60008167ffffffffffffffff81111561193f5761193f611e6a565b6040519080825280601f01601f191660200182016040528015611969576020820181803683370190505b5090505b841561117a5761197e600183612283565b915061198b600a8661238d565b61199690603061229a565b60f81b8183815181106119ab576119ab61221e565b60200101906001600160f81b031916908160001a9053506119cd600a8661220a565b945061196d565b60006001600160e01b0319821663152a902d60e11b14806106af57506301ffc9a760e01b6001600160e01b03198316146106af565b60006001611a1684610b8e565b611a209190612283565b600083815260096020526040902054909150808214611a73576001600160a01b03841660009081526008602090815260408083208584528252808320548484528184208190558352600990915290208190555b5060009182526009602090815260408084208490556001600160a01b039094168352600881528383209183525290812055565b600a54600090611ab890600190612283565b6000838152600b6020526040812054600a8054939450909284908110611ae057611ae061221e565b9060005260206000200154905080600a8381548110611b0157611b0161221e565b6000918252602080832090910192909255828152600b9091526040808220849055858252812055600a805480611b3957611b396123a1565b6001900381819060005260206000200160009055905550505050565b6000611b6083610b8e565b6001600160a01b039093166000908152600860209081526040808320868452825280832085905593825260099052919091209190915550565b6000611ba482610b2e565b9050611bb2816000846115ff565b611bbd600083611095565b6001600160a01b0381166000908152600560205260408120805460019290611be6908490612283565b909155505060008281526004602052604080822080546001600160a01b0319169055518391906001600160a01b038416907fddf252ad1be2c89b69c2b068fc378daa952ba7f163c4a11628f55a4df523b3ef908390a45050565b828054611c4c90612137565b90600052602060002090601f016020900481019282611c6e5760008555611cb4565b82601f10611c8757805160ff1916838001178555611cb4565b82800160010185558215611cb4579182015b82811115611cb4578251825591602001919060010190611c99565b50611cc0929150611cfa565b5090565b508054611cd090612137565b6000825580601f10611ce0575050565b601f016020900490600052602060002090810190610a3091905b5b80821115611cc05760008155600101611cfb565b6001600160e01b031981168114610a3057600080fd5b600060208284031215611d3757600080fd5b81356117ba81611d0f565b60005b83811015611d5d578181015183820152602001611d45565b83811115610dbb5750506000910152565b60008151808452611d86816020860160208601611d42565b601f01601f19169290920160200192915050565b6020815260006117ba6020830184611d6e565b600060208284031215611dbf57600080fd5b5035919050565b80356001600160a01b0381168114611ddd57600080fd5b919050565b60008060408385031215611df557600080fd5b611dfe83611dc6565b946020939093013593505050565b600080600060608486031215611e2157600080fd5b611e2a84611dc6565b9250611e3860208501611dc6565b9150604084013590509250925092565b60008060408385031215611e5b57600080fd5b50508035926020909101359150565b634e487b7160e01b600052604160045260246000fd5b604051601f8201601f1916810167ffffffffffffffff81118282101715611ea957611ea9611e6a565b604052919050565b600067ffffffffffffffff831115611ecb57611ecb611e6a565b611ede601f8401601f1916602001611e80565b9050828152838383011115611ef257600080fd5b828260208301376000602084830101529392505050565b600060208284031215611f1b57600080fd5b813567ffffffffffffffff811115611f3257600080fd5b8201601f81018413611f4357600080fd5b61117a84823560208401611eb1565b600060208284031215611f6457600080fd5b6117ba82611dc6565b600060208284031215611f7f57600080fd5b81356001600160601b03811681146117ba57600080fd5b8015158114610a3057600080fd5b60008060408385031215611fb757600080fd5b611fc083611dc6565b91506020830135611fd081611f96565b809150509250929050565b60006020808385031215611fee57600080fd5b823567ffffffffffffffff8082111561200657600080fd5b818501915085601f83011261201a57600080fd5b81358181111561202c5761202c611e6a565b8060051b915061203d848301611e80565b818152918301840191848101908884111561205757600080fd5b938501935b8385101561207c5761206d85611dc6565b8252938501939085019061205c565b98975050505050505050565b6000806000806080858703121561209e57600080fd5b6120a785611dc6565b93506120b560208601611dc6565b925060408501359150606085013567ffffffffffffffff8111156120d857600080fd5b8501601f810187136120e957600080fd5b6120f887823560208401611eb1565b91505092959194509250565b6000806040838503121561211757600080fd5b61212083611dc6565b915061212e60208401611dc6565b90509250929050565b600181811c9082168061214b57607f821691505b60208210810361216b57634e487b7160e01b600052602260045260246000fd5b50919050565b6020808252602e908201527f4552433732313a2063616c6c6572206973206e6f7420746f6b656e206f776e6560408201526d1c881b9bdc88185c1c1c9bdd995960921b606082015260800190565b634e487b7160e01b600052601160045260246000fd5b60008160001904831182151516156121ef576121ef6121bf565b500290565b634e487b7160e01b600052601260045260246000fd5b600082612219576122196121f4565b500490565b634e487b7160e01b600052603260045260246000fd5b600060018201612246576122466121bf565b5060010190565b60006020828403121561225f57600080fd5b5051919050565b60006020828403121561227857600080fd5b81516117ba81611f96565b600082821015612295576122956121bf565b500390565b600082198211156122ad576122ad6121bf565b500190565b60208082526032908201527f4552433732313a207472616e7366657220746f206e6f6e20455243373231526560408201527131b2b4bb32b91034b6b83632b6b2b73a32b960711b606082015260800190565b60008351612316818460208801611d42565b83519083019061232a818360208801611d42565b01949350505050565b6001600160a01b038581168252841660208201526040810183905260806060820181905260009061236690830184611d6e565b9695505050505050565b60006020828403121561238257600080fd5b81516117ba81611d0f565b60008261239c5761239c6121f4565b500690565b634e487b7160e01b600052603160045260246000fdfea2646970667358221220a6171ebbe936434307af588e643c727e0436ebfa5b59bd198903e33efff5372964736f6c634300080d0033",
  "linkReferences": {},
  "deployedLinkReferences": {}
}