{
  "_format": "hh-sol-artifact-1",
  "contractName": "ERC721Mintable",
  "sourceName": "contracts/ERC721Mintable.sol",
  "abi": [
    {
      "inputs": [],
      "stateMutability": "nonpayable",
      "type": "constructor"
    },
    {
      "anonymous": false,
      "inputs": [
        {
          "indexed": false,
          "internalType": "address",
          "name": "previousAdmin",
          "type": "address"
        },
        {
          "indexed": false,
          "internalType": "address",
          "name": "newAdmin",
          "type": "address"
        }
      ],
      "name": "AdminChanged",
      "type": "event"
    },
    {
      "anonymous": false,
      "inputs": [
        {
          "indexed": true,
          "internalType": "address",
          "name": "owner",
          "type": "address"
        },
        {
          "indexed": true,
          "internalType": "address",
          "name": "approved",
          "type": "address"
        },
        {
          "indexed": true,
          "internalType": "uint256",
          "name": "tokenId",
          "type": "uint256"
        }
      ],
      "name": "Approval",
      "type": "event"
    },
    {
      "anonymous": false,
      "inputs": [
        {
          "indexed": true,
          "internalType": "address",
          "name": "owner",
          "type": "address"
        },
        {
          "indexed": true,
          "internalType": "address",
          "name": "operator",
          "type": "address"
        },
        {
          "indexed": false,
          "internalType": "bool",
          "name": "approved",
          "type": "bool"
        }
      ],
      "name": "ApprovalForAll",
      "type": "event"
    },
    {
      "anonymous": false,
      "inputs": [
        {
          "indexed": true,
          "internalType": "address",
          "name": "beacon",
          "type": "address"
        }
      ],
      "name": "BeaconUpgraded",
      "type": "event"
    },
    {
      "anonymous": false,
      "inputs": [
        {
          "indexed": false,
          "internalType": "uint8",
          "name": "version",
          "type": "uint8"
        }
      ],
      "name": "Initialized",
      "type": "event"
    },
    {
      "anonymous": false,
      "inputs": [
        {
          "indexed": true,
          "internalType": "address",
          "name": "previousOwner",
          "type": "address"
        },
        {
          "indexed": true,
          "internalType": "address",
          "name": "newOwner",
          "type": "address"
        }
      ],
      "name": "OwnershipTransferred",
      "type": "event"
    },
    {
      "anonymous": false,
      "inputs": [
        {
          "indexed": true,
          "internalType": "address",
          "name": "from",
          "type": "address"
        },
        {
          "indexed": true,
          "internalType": "address",
          "name": "to",
          "type": "address"
        },
        {
          "indexed": true,
          "internalType": "uint256",
          "name": "tokenId",
          "type": "uint256"
        }
      ],
      "name": "Transfer",
      "type": "event"
    },
    {
      "anonymous": false,
      "inputs": [
        {
          "indexed": true,
          "internalType": "address",
          "name": "implementation",
          "type": "address"
        }
      ],
      "name": "Upgraded",
      "type": "event"
    },
    {
      "stateMutability": "payable",
      "type": "fallback"
    },
    {
      "inputs": [
        {
          "internalType": "address[]",
          "name": "_addresses",
          "type": "address[]"
        }
      ],
      "name": "addEcosystemContracts",
      "outputs": [],
      "stateMutability": "nonpayable",
      "type": "function"
    },
    {
      "inputs": [
        {
          "internalType": "address",
          "name": "to",
          "type": "address"
        },
        {
          "internalType": "uint256",
          "name": "tokenId",
          "type": "uint256"
        }
      ],
      "name": "approve",
      "outputs": [],
      "stateMutability": "nonpayable",
      "type": "function"
    },
    {
      "inputs": [
        {
          "internalType": "address",
          "name": "owner",
          "type": "address"
        }
      ],
      "name": "balanceOf",
      "outputs": [
        {
          "internalType": "uint256",
          "name": "",
          "type": "uint256"
        }
      ],
      "stateMutability": "view",
      "type": "function"
    },
    {
      "inputs": [],
      "name": "broker",
      "outputs": [
        {
          "internalType": "address payable",
          "name": "",
          "type": "address"
        }
      ],
      "stateMutability": "view",
      "type": "function"
    },
    {
      "inputs": [],
      "name": "brokerage",
      "outputs": [
        {
          "internalType": "uint256",
          "name": "seller",
          "type": "uint256"
        },
        {
          "internalType": "uint256",
          "name": "buyer",
          "type": "uint256"
        }
      ],
      "stateMutability": "view",
      "type": "function"
    },
    {
      "inputs": [
        {
          "internalType": "uint256",
          "name": "tokenId",
          "type": "uint256"
        }
      ],
      "name": "burn",
      "outputs": [],
      "stateMutability": "nonpayable",
      "type": "function"
    },
    {
      "inputs": [],
      "name": "contractURI",
      "outputs": [
        {
          "internalType": "string",
          "name": "",
          "type": "string"
        }
      ],
      "stateMutability": "view",
      "type": "function"
    },
    {
      "inputs": [],
      "name": "decimalPrecision",
      "outputs": [
        {
          "internalType": "uint256",
          "name": "",
          "type": "uint256"
        }
      ],
      "stateMutability": "view",
      "type": "function"
    },
    {
      "inputs": [
        {
          "internalType": "string",
          "name": "tokenURI",
          "type": "string"
        },
        {
          "internalType": "uint96",
          "name": "_royalty",
          "type": "uint96"
        },
        {
          "internalType": "address",
          "name": "_to",
          "type": "address"
        },
        {
          "internalType": "address",
          "name": "_receiver",
          "type": "address"
        }
      ],
      "name": "delegatedMint",
      "outputs": [
        {
          "internalType": "uint256",
          "name": "",
          "type": "uint256"
        }
      ],
      "stateMutability": "nonpayable",
      "type": "function"
    },
    {
      "inputs": [
        {
          "internalType": "address",
          "name": "",
          "type": "address"
        }
      ],
      "name": "ecosystemContract",
      "outputs": [
        {
          "internalType": "bool",
          "name": "",
          "type": "bool"
        }
      ],
      "stateMutability": "view",
      "type": "function"
    },
    {
      "inputs": [
        {
          "internalType": "uint256",
          "name": "tokenId",
          "type": "uint256"
        }
      ],
      "name": "getApproved",
      "outputs": [
        {
          "internalType": "address",
          "name": "",
          "type": "address"
        }
      ],
      "stateMutability": "view",
      "type": "function"
    },
    {
      "inputs": [
        {
          "internalType": "string",
          "name": "_name",
          "type": "string"
        },
        {
          "internalType": "string",
          "name": "_symbol",
          "type": "string"
        },
        {
          "internalType": "string",
          "name": "_contractURI",
          "type": "string"
        },
        {
          "internalType": "string",
          "name": "_tokenURIPrefix",
          "type": "string"
        },
        {
          "internalType": "uint96",
          "name": "_royaltyLimit",
          "type": "uint96"
        },
        {
          "internalType": "uint256",
          "name": "_mintingCharge",
          "type": "uint256"
        },
        {
          "internalType": "address payable",
          "name": "_broker",
          "type": "address"
        },
        {
          "components": [
            {
              "internalType": "uint256",
              "name": "seller",
              "type": "uint256"
            },
            {
              "internalType": "uint256",
              "name": "buyer",
              "type": "uint256"
            }
          ],
          "internalType": "struct ERC721Mintable._brokerage",
          "name": "brokerage_",
          "type": "tuple"
        }
      ],
      "name": "initialize",
      "outputs": [],
      "stateMutability": "nonpayable",
      "type": "function"
    },
    {
      "inputs": [
        {
          "internalType": "address",
          "name": "owner",
          "type": "address"
        },
        {
          "internalType": "address",
          "name": "operator",
          "type": "address"
        }
      ],
      "name": "isApprovedForAll",
      "outputs": [
        {
          "internalType": "bool",
          "name": "",
          "type": "bool"
        }
      ],
      "stateMutability": "view",
      "type": "function"
    },
    {
      "inputs": [
        {
          "internalType": "uint256",
          "name": "",
          "type": "uint256"
        }
      ],
      "name": "isNonceProcessed",
      "outputs": [
        {
          "internalType": "bool",
          "name": "",
          "type": "bool"
        }
      ],
      "stateMutability": "view",
      "type": "function"
    },
    {
      "inputs": [
        {
          "internalType": "string",
          "name": "tokenURI",
          "type": "string"
        },
        {
          "internalType": "uint96",
          "name": "_royalty",
          "type": "uint96"
        },
        {
          "internalType": "address",
          "name": "_to",
          "type": "address"
        }
      ],
      "name": "mint",
      "outputs": [
        {
          "internalType": "uint256",
          "name": "",
          "type": "uint256"
        }
      ],
      "stateMutability": "payable",
      "type": "function"
    },
    {
      "inputs": [],
      "name": "mintingCharge",
      "outputs": [
        {
          "internalType": "uint256",
          "name": "",
          "type": "uint256"
        }
      ],
      "stateMutability": "view",
      "type": "function"
    },
    {
      "inputs": [],
      "name": "name",
      "outputs": [
        {
          "internalType": "string",
          "name": "",
          "type": "string"
        }
      ],
      "stateMutability": "view",
      "type": "function"
    },
    {
      "inputs": [],
      "name": "openForAll",
      "outputs": [
        {
          "internalType": "bool",
          "name": "",
          "type": "bool"
        }
      ],
      "stateMutability": "view",
      "type": "function"
    },
    {
      "inputs": [],
      "name": "owner",
      "outputs": [
        {
          "internalType": "address",
          "name": "",
          "type": "address"
        }
      ],
      "stateMutability": "view",
      "type": "function"
    },
    {
      "inputs": [
        {
          "internalType": "uint256",
          "name": "tokenId",
          "type": "uint256"
        }
      ],
      "name": "ownerOf",
      "outputs": [
        {
          "internalType": "address",
          "name": "",
          "type": "address"
        }
      ],
      "stateMutability": "view",
      "type": "function"
    },
    {
      "inputs": [],
      "name": "proxiableUUID",
      "outputs": [
        {
          "internalType": "bytes32",
          "name": "",
          "type": "bytes32"
        }
      ],
      "stateMutability": "view",
      "type": "function"
    },
    {
      "inputs": [
        {
          "internalType": "address[]",
          "name": "_addresses",
          "type": "address[]"
        }
      ],
      "name": "removeEcosystemContracts",
      "outputs": [],
      "stateMutability": "nonpayable",
      "type": "function"
    },
    {
      "inputs": [
        {
          "internalType": "address[]",
          "name": "users",
          "type": "address[]"
        }
      ],
      "name": "removeWhitelistUsers",
      "outputs": [],
      "stateMutability": "nonpayable",
      "type": "function"
    },
    {
      "inputs": [],
      "name": "renounceOwnership",
      "outputs": [],
      "stateMutability": "nonpayable",
      "type": "function"
    },
    {
      "inputs": [
        {
          "internalType": "uint256",
          "name": "_tokenId",
          "type": "uint256"
        },
        {
          "internalType": "uint256",
          "name": "_salePrice",
          "type": "uint256"
        }
      ],
      "name": "royaltyInfo",
      "outputs": [
        {
          "internalType": "address",
          "name": "",
          "type": "address"
        },
        {
          "internalType": "uint256",
          "name": "",
          "type": "uint256"
        }
      ],
      "stateMutability": "view",
      "type": "function"
    },
    {
      "inputs": [],
      "name": "royaltyLimit",
      "outputs": [
        {
          "internalType": "uint96",
          "name": "",
          "type": "uint96"
        }
      ],
      "stateMutability": "view",
      "type": "function"
    },
    {
      "inputs": [
        {
          "internalType": "address",
          "name": "from",
          "type": "address"
        },
        {
          "internalType": "address",
          "name": "to",
          "type": "address"
        },
        {
          "internalType": "uint256",
          "name": "tokenId",
          "type": "uint256"
        }
      ],
      "name": "safeTransferFrom",
      "outputs": [],
      "stateMutability": "nonpayable",
      "type": "function"
    },
    {
      "inputs": [
        {
          "internalType": "address",
          "name": "from",
          "type": "address"
        },
        {
          "internalType": "address",
          "name": "to",
          "type": "address"
        },
        {
          "internalType": "uint256",
          "name": "tokenId",
          "type": "uint256"
        },
        {
          "internalType": "bytes",
          "name": "data",
          "type": "bytes"
        }
      ],
      "name": "safeTransferFrom",
      "outputs": [],
      "stateMutability": "nonpayable",
      "type": "function"
    },
    {
      "inputs": [
        {
          "internalType": "address",
          "name": "operator",
          "type": "address"
        },
        {
          "internalType": "bool",
          "name": "approved",
          "type": "bool"
        }
      ],
      "name": "setApprovalForAll",
      "outputs": [],
      "stateMutability": "nonpayable",
      "type": "function"
    },
    {
      "inputs": [
        {
          "internalType": "string",
          "name": "_baseURI_",
          "type": "string"
        }
      ],
      "name": "setBaseURI",
      "outputs": [],
      "stateMutability": "nonpayable",
      "type": "function"
    },
    {
      "inputs": [
        {
          "internalType": "address payable",
          "name": "_broker",
          "type": "address"
        }
      ],
      "name": "setBroker",
      "outputs": [],
      "stateMutability": "nonpayable",
      "type": "function"
    },
    {
      "inputs": [
        {
          "components": [
            {
              "internalType": "uint256",
              "name": "seller",
              "type": "uint256"
            },
            {
              "internalType": "uint256",
              "name": "buyer",
              "type": "uint256"
            }
          ],
          "internalType": "struct ERC721Mintable._brokerage",
          "name": "brokerage_",
          "type": "tuple"
        }
      ],
      "name": "setBrokerage",
      "outputs": [],
      "stateMutability": "nonpayable",
      "type": "function"
    },
    {
      "inputs": [
        {
          "internalType": "string",
          "name": "_contractURI",
          "type": "string"
        }
      ],
      "name": "setContractURI",
      "outputs": [],
      "stateMutability": "nonpayable",
      "type": "function"
    },
    {
      "inputs": [
        {
          "internalType": "uint256",
          "name": "_mintingCharge",
          "type": "uint256"
        }
      ],
      "name": "setMintingCharge",
      "outputs": [],
      "stateMutability": "nonpayable",
      "type": "function"
    },
    {
      "inputs": [
        {
          "internalType": "uint96",
          "name": "_royaltyLimit",
          "type": "uint96"
        }
      ],
      "name": "setRoyaltyLimit",
      "outputs": [],
      "stateMutability": "nonpayable",
      "type": "function"
    },
    {
      "inputs": [
        {
          "internalType": "bytes4",
          "name": "interfaceId",
          "type": "bytes4"
        }
      ],
      "name": "supportsInterface",
      "outputs": [
        {
          "internalType": "bool",
          "name": "",
          "type": "bool"
        }
      ],
      "stateMutability": "view",
      "type": "function"
    },
    {
      "inputs": [],
      "name": "symbol",
      "outputs": [
        {
          "internalType": "string",
          "name": "",
          "type": "string"
        }
      ],
      "stateMutability": "view",
      "type": "function"
    },
    {
      "inputs": [],
      "name": "toggleOpenForAll",
      "outputs": [],
      "stateMutability": "nonpayable",
      "type": "function"
    },
    {
      "inputs": [
        {
          "internalType": "uint256",
          "name": "index",
          "type": "uint256"
        }
      ],
      "name": "tokenByIndex",
      "outputs": [
        {
          "internalType": "uint256",
          "name": "",
          "type": "uint256"
        }
      ],
      "stateMutability": "view",
      "type": "function"
    },
    {
      "inputs": [
        {
          "internalType": "address",
          "name": "owner",
          "type": "address"
        },
        {
          "internalType": "uint256",
          "name": "index",
          "type": "uint256"
        }
      ],
      "name": "tokenOfOwnerByIndex",
      "outputs": [
        {
          "internalType": "uint256",
          "name": "",
          "type": "uint256"
        }
      ],
      "stateMutability": "view",
      "type": "function"
    },
    {
      "inputs": [
        {
          "internalType": "uint256",
          "name": "tokenId",
          "type": "uint256"
        }
      ],
      "name": "tokenURI",
      "outputs": [
        {
          "internalType": "string",
          "name": "",
          "type": "string"
        }
      ],
      "stateMutability": "view",
      "type": "function"
    },
    {
      "inputs": [],
      "name": "totalSupply",
      "outputs": [
        {
          "internalType": "uint256",
          "name": "",
          "type": "uint256"
        }
      ],
      "stateMutability": "view",
      "type": "function"
    },
    {
      "inputs": [
        {
          "internalType": "address",
          "name": "from",
          "type": "address"
        },
        {
          "internalType": "address",
          "name": "to",
          "type": "address"
        },
        {
          "internalType": "uint256",
          "name": "tokenId",
          "type": "uint256"
        }
      ],
      "name": "transferFrom",
      "outputs": [],
      "stateMutability": "nonpayable",
      "type": "function"
    },
    {
      "inputs": [
        {
          "internalType": "address",
          "name": "newOwner",
          "type": "address"
        }
      ],
      "name": "transferOwnership",
      "outputs": [],
      "stateMutability": "nonpayable",
      "type": "function"
    },
    {
      "inputs": [
        {
          "internalType": "address",
          "name": "newImplementation",
          "type": "address"
        }
      ],
      "name": "upgradeTo",
      "outputs": [],
      "stateMutability": "nonpayable",
      "type": "function"
    },
    {
      "inputs": [
        {
          "internalType": "address",
          "name": "newImplementation",
          "type": "address"
        },
        {
          "internalType": "bytes",
          "name": "data",
          "type": "bytes"
        }
      ],
      "name": "upgradeToAndCall",
      "outputs": [],
      "stateMutability": "payable",
      "type": "function"
    },
    {
      "inputs": [
        {
          "internalType": "address[]",
          "name": "users",
          "type": "address[]"
        }
      ],
      "name": "whitelistUsers",
      "outputs": [],
      "stateMutability": "nonpayable",
      "type": "function"
    },
    {
      "inputs": [
        {
          "internalType": "address",
          "name": "",
          "type": "address"
        }
      ],
      "name": "whitelistedUsers",
      "outputs": [
        {
          "internalType": "bool",
          "name": "",
          "type": "bool"
        }
      ],
      "stateMutability": "view",
      "type": "function"
    },
    {
      "inputs": [],
      "name": "withdraw",
      "outputs": [],
      "stateMutability": "nonpayable",
      "type": "function"
    },
    {
      "inputs": [
        {
          "internalType": "address",
          "name": "_erc20",
          "type": "address"
        }
      ],
      "name": "withdrawERC20",
      "outputs": [],
      "stateMutability": "nonpayable",
      "type": "function"
    },
    {
      "stateMutability": "payable",
      "type": "receive"
    }
  ],
  "bytecode": "0x60a0604052306080523480156200001557600080fd5b50600054610100900460ff1615808015620000375750600054600160ff909116105b8062000067575062000054306200014160201b6200196c1760201c565b15801562000067575060005460ff166001145b620000cf5760405162461bcd60e51b815260206004820152602e60248201527f496e697469616c697a61626c653a20636f6e747261637420697320616c72656160448201526d191e481a5b9a5d1a585b1a5e995960921b606482015260840160405180910390fd5b6000805460ff191660011790558015620000f3576000805461ff0019166101001790555b80156200013a576000805461ff0019169055604051600181527f7f26b83ff96e1f2b6a682f133852f6798a09c465da95921460cefb38474024989060200160405180910390a15b5062000150565b6001600160a01b03163b151590565b608051613b1e6200018860003960008181610cbc01528181610cfc01528181610edf01528181610f1f01526110470152613b1e6000f3fe6080604052600436106102af5760003560e01c806370a0823111610166578063bf0d0213116100d3578063e985e9c51161008f578063f2fde38b1161006c578063f2fde38b146108c8578063f4f3b200146108e8578063f621cc4814610908578063ffdac8561461093957005b8063e985e9c51461083e578063eccdc7ff14610888578063edec5f27146108a857005b8063bf0d021314610799578063c4efa665146107b9578063c87b56dd146107ce578063c9dc5bc6146107ee578063e1606d1114610809578063e8a3d4851461082957005b806395d89b411161012257806395d89b41146106e35780639717e5c8146106f8578063a22cb46514610718578063abff011014610738578063b2e1311114610759578063b88d4fde1461077957005b806370a082311461063a578063715018a61461065a57806380dfe70a1461066f5780638da5cb5b146106845780638df85576146106a3578063938e3d7b146106c357005b80633ccfd60b1161021c5780634f6ccce7116101d85780635e0b8845116101b55780635e0b8845146105985780636352211e146105c957806364eae764146105e95780636b3f4b3f1461060957005b80634f6ccce71461054357806352d1902d1461056357806355f804b31461057857005b80633ccfd60b146104895780633fbf444e1461049e57806342842e0e146104d057806342966c68146104f057806345d3d21e146105105780634f1ef2861461053057005b806323b872dd1161026b57806323b872dd146103c05780632a55205a146103e05780632f745c591461041f5780633148a0f51461043f5780633659cfe6146104565780633ca5528a1461047657005b806301ffc9a7146102b857806306fdde03146102ed578063081812fc1461030f578063095ea7b31461034757806318160ddd146103675780631fe9f0301461038757005b366102b657005b005b3480156102c457600080fd5b506102d86102d3366004613076565b610959565b60405190151581526020015b60405180910390f35b3480156102f957600080fd5b5061030261096a565b6040516102e491906130eb565b34801561031b57600080fd5b5061032f61032a3660046130fe565b6109fc565b6040516001600160a01b0390911681526020016102e4565b34801561035357600080fd5b506102b661036236600461312c565b610a23565b34801561037357600080fd5b5061012f545b6040519081526020016102e4565b34801561039357600080fd5b50610227546103a8906001600160601b031681565b6040516001600160601b0390911681526020016102e4565b3480156103cc57600080fd5b506102b66103db366004613158565b610b3d565b3480156103ec57600080fd5b506104006103fb366004613199565b610b6f565b604080516001600160a01b0390931683526020830191909152016102e4565b34801561042b57600080fd5b5061037961043a36600461312c565b610c1b565b34801561044b57600080fd5b5061037961022e5481565b34801561046257600080fd5b506102b66104713660046131bb565b610cb2565b6103796104843660046132ab565b610d91565b34801561049557600080fd5b506102b6610e4a565b3480156104aa57600080fd5b5061023154610232546104bb919082565b604080519283526020830191909152016102e4565b3480156104dc57600080fd5b506102b66104eb366004613158565b610e7e565b3480156104fc57600080fd5b506102b661050b3660046130fe565b610e99565b34801561051c57600080fd5b506102b661052b3660046130fe565b610ec7565b6102b661053e36600461330d565b610ed5565b34801561054f57600080fd5b5061037961055e3660046130fe565b610fa5565b34801561056f57600080fd5b5061037961103a565b34801561058457600080fd5b506102b661059336600461335d565b6110ed565b3480156105a457600080fd5b506102d86105b33660046131bb565b6102306020526000908152604090205460ff1681565b3480156105d557600080fd5b5061032f6105e43660046130fe565b611109565b3480156105f557600080fd5b506102b6610604366004613392565b611169565b34801561061557600080fd5b506102d86106243660046130fe565b61022b6020526000908152604090205460ff1681565b34801561064657600080fd5b506103796106553660046131bb565b6111da565b34801561066657600080fd5b506102b6611260565b34801561067b57600080fd5b506102b6611274565b34801561069057600080fd5b506101f5546001600160a01b031661032f565b3480156106af57600080fd5b506102b66106be36600461345c565b611291565b3480156106cf57600080fd5b506102b66106de36600461335d565b611338565b3480156106ef57600080fd5b50610302611354565b34801561070457600080fd5b506102b6610713366004613478565b611363565b34801561072457600080fd5b506102b66107333660046134a1565b6113be565b34801561074457600080fd5b5061022f5461032f906001600160a01b031681565b34801561076557600080fd5b506102b6610774366004613392565b6113c9565b34801561078557600080fd5b506102b66107943660046134da565b61143a565b3480156107a557600080fd5b506102b66107b43660046131bb565b611472565b3480156107c557600080fd5b50610379606481565b3480156107da57600080fd5b506103026107e93660046130fe565b61149d565b3480156107fa57600080fd5b5061022d546102d89060ff1681565b34801561081557600080fd5b50610379610824366004613551565b6114a8565b34801561083557600080fd5b5061030261153d565b34801561084a57600080fd5b506102d86108593660046135c4565b6001600160a01b0391821660009081526101006020908152604080832093909416825291909152205460ff1690565b34801561089457600080fd5b506102b66108a33660046135f2565b6115cc565b3480156108b457600080fd5b506102b66108c3366004613392565b611729565b3480156108d457600080fd5b506102b66108e33660046131bb565b61179a565b3480156108f457600080fd5b506102b66109033660046131bb565b611810565b34801561091457600080fd5b506102d86109233660046131bb565b61022c6020526000908152604090205460ff1681565b34801561094557600080fd5b506102b6610954366004613392565b6118fb565b60006109648261197b565b92915050565b606060fb8054610979906136dc565b80601f01602080910402602001604051908101604052809291908181526020018280546109a5906136dc565b80156109f25780601f106109c7576101008083540402835291602001916109f2565b820191906000526020600020905b8154815290600101906020018083116109d557829003601f168201915b5050505050905090565b6000610a0782611986565b50600090815260ff60205260409020546001600160a01b031690565b6000610a2e82611109565b9050806001600160a01b0316836001600160a01b031603610aa05760405162461bcd60e51b815260206004820152602160248201527f4552433732313a20617070726f76616c20746f2063757272656e74206f776e656044820152603960f91b60648201526084015b60405180910390fd5b336001600160a01b0382161480610abc5750610abc8133610859565b610b2e5760405162461bcd60e51b815260206004820152603e60248201527f4552433732313a20617070726f76652063616c6c6572206973206e6f7420746f60448201527f6b656e206f776e6572206e6f7220617070726f76656420666f7220616c6c00006064820152608401610a97565b610b3883836119e5565b505050565b610b48335b82611a53565b610b645760405162461bcd60e51b8152600401610a9790613710565b610b38838383611ad2565b600082815260ca602090815260408083208151808301909252546001600160a01b038116808352600160a01b9091046001600160601b0316928201929092528291610be457506040805180820190915260c9546001600160a01b0381168252600160a01b90046001600160601b031660208201525b602081015160009061271090610c03906001600160601b031687613774565b610c0d91906137a9565b915196919550909350505050565b6000610c26836111da565b8210610c885760405162461bcd60e51b815260206004820152602b60248201527f455243373231456e756d657261626c653a206f776e657220696e646578206f7560448201526a74206f6620626f756e647360a81b6064820152608401610a97565b506001600160a01b0391909116600090815261012d60209081526040808320938352929052205490565b6001600160a01b037f0000000000000000000000000000000000000000000000000000000000000000163003610cfa5760405162461bcd60e51b8152600401610a97906137bd565b7f00000000000000000000000000000000000000000000000000000000000000006001600160a01b0316610d43600080516020613aa2833981519152546001600160a01b031690565b6001600160a01b031614610d695760405162461bcd60e51b8152600401610a9790613809565b610d7281611c79565b60408051600080825260208201909252610d8e91839190611c81565b50565b600061022e54341015610df75760405162461bcd60e51b815260206004820152602860248201527f4552433732314d696e7461626c653a204d696e74696e672063686172676573206044820152671c995c5d5a5c995960c21b6064820152608401610a97565b6000610e04838587611dec565b61022f546040519192506001600160a01b0316903480156108fc02916000818181858888f19350505050158015610e3f573d6000803e3d6000fd5b5090505b9392505050565b610e52611f62565b60405133904780156108fc02916000818181858888f19350505050158015610d8e573d6000803e3d6000fd5b610b388383836040518060200160405280600081525061143a565b610ea233610b42565b610ebe5760405162461bcd60e51b8152600401610a9790613710565b610d8e81611fbd565b610ecf611f62565b61022e55565b6001600160a01b037f0000000000000000000000000000000000000000000000000000000000000000163003610f1d5760405162461bcd60e51b8152600401610a97906137bd565b7f00000000000000000000000000000000000000000000000000000000000000006001600160a01b0316610f66600080516020613aa2833981519152546001600160a01b031690565b6001600160a01b031614610f8c5760405162461bcd60e51b8152600401610a9790613809565b610f9582611c79565b610fa182826001611c81565b5050565b6000610fb161012f5490565b82106110145760405162461bcd60e51b815260206004820152602c60248201527f455243373231456e756d657261626c653a20676c6f62616c20696e646578206f60448201526b7574206f6620626f756e647360a01b6064820152608401610a97565b61012f828154811061102857611028613855565b90600052602060002001549050919050565b6000306001600160a01b037f000000000000000000000000000000000000000000000000000000000000000016146110da5760405162461bcd60e51b815260206004820152603860248201527f555550535570677261646561626c653a206d757374206e6f742062652063616c60448201527f6c6564207468726f7567682064656c656761746563616c6c00000000000000006064820152608401610a97565b50600080516020613aa283398151915290565b6110f5611f62565b8051610fa190610229906020840190612f91565b600081815260fd60205260408120546001600160a01b0316806109645760405162461bcd60e51b8152602060048201526018602482015277115490cdcc8c4e881a5b9d985b1a59081d1bdad95b88125160421b6044820152606401610a97565b611171611f62565b60005b8151811015610fa1576001610230600084848151811061119657611196613855565b6020908102919091018101516001600160a01b03168252810191909152604001600020805460ff1916911515919091179055806111d28161386b565b915050611174565b60006001600160a01b0382166112445760405162461bcd60e51b815260206004820152602960248201527f4552433732313a2061646472657373207a65726f206973206e6f7420612076616044820152683634b21037bbb732b960b91b6064820152608401610a97565b506001600160a01b0316600090815260fe602052604090205490565b611268611f62565b6112726000611fc6565b565b61127c611f62565b61022d805460ff19811660ff90911615179055565b611299611f62565b6112a4606480613774565b8160200135111580156112c257506112bd606480613774565b813511155b6113285760405162461bcd60e51b815260206004820152603160248201527f4552433732314d696e7461626c653a2042726f6b65726167652063616e2774206044820152706265206d6f7265207468616e203130302560781b6064820152608401610a97565b8035610231556020013561023255565b611340611f62565b8051610fa190610228906020840190612f91565b606060fc8054610979906136dc565b61136b611f62565b6127106001600160601b03821611156113965760405162461bcd60e51b8152600401610a9790613884565b61022780546bffffffffffffffffffffffff19166001600160601b0392909216919091179055565b610fa1338383612019565b6113d1611f62565b60005b8151811015610fa157600061022c60008484815181106113f6576113f6613855565b6020908102919091018101516001600160a01b03168252810191909152604001600020805460ff1916911515919091179055806114328161386b565b9150506113d4565b6114443383611a53565b6114605760405162461bcd60e51b8152600401610a9790613710565b61146c848484846120e8565b50505050565b61147a611f62565b61022f80546001600160a01b0319166001600160a01b0392909216919091179055565b60606109648261211b565b336000908152610230602052604081205460ff166115185760405162461bcd60e51b815260206004820152602760248201527f4552433732314d696e7461626c653a20496e7465726e616c20636f6e747261636044820152667473206f6e6c7960c81b6064820152608401610a97565b6000611525848688611dec565b9050611532848483611ad2565b90505b949350505050565b610228805461154b906136dc565b80601f0160208091040260200160405190810160405280929190818152602001828054611577906136dc565b80156115c45780601f10611599576101008083540402835291602001916115c4565b820191906000526020600020905b8154815290600101906020018083116115a757829003601f168201915b505050505081565b600054610100900460ff16158080156115ec5750600054600160ff909116105b806116065750303b158015611606575060005460ff166001145b6116695760405162461bcd60e51b815260206004820152602e60248201527f496e697469616c697a61626c653a20636f6e747261637420697320616c72656160448201526d191e481a5b9a5d1a585b1a5e995960921b6064820152608401610a97565b6000805460ff19166001179055801561168c576000805461ff0019166101001790555b6116998989898989612217565b61022e84905561022f80546001600160a01b0319166001600160a01b03851617905561022d805460ff19166001179055813561023155602082013561023255801561171e576000805461ff0019169055604051600181527f7f26b83ff96e1f2b6a682f133852f6798a09c465da95921460cefb38474024989060200160405180910390a15b505050505050505050565b611731611f62565b60005b8151811015610fa157600161022c600084848151811061175657611756613855565b6020908102919091018101516001600160a01b03168252810191909152604001600020805460ff1916911515919091179055806117928161386b565b915050611734565b6117a2611f62565b6001600160a01b0381166118075760405162461bcd60e51b815260206004820152602660248201527f4f776e61626c653a206e6577206f776e657220697320746865207a65726f206160448201526564647265737360d01b6064820152608401610a97565b610d8e81611fc6565b611818611f62565b6040516370a0823160e01b815230600482015281906001600160a01b0382169063a9059cbb90339083906370a0823190602401602060405180830381865afa158015611868573d6000803e3d6000fd5b505050506040513d601f19601f8201168201806040525081019061188c91906138d0565b6040516001600160e01b031960e085901b1681526001600160a01b03909216600483015260248201526044016020604051808303816000875af11580156118d7573d6000803e3d6000fd5b505050506040513d601f19601f82011682018060405250810190610b3891906138e9565b611903611f62565b60005b8151811015610fa1576000610230600084848151811061192857611928613855565b6020908102919091018101516001600160a01b03168252810191909152604001600020805460ff1916911515919091179055806119648161386b565b915050611906565b6001600160a01b03163b151590565b6000610964826122f3565b600081815260fd60205260409020546001600160a01b0316610d8e5760405162461bcd60e51b8152602060048201526018602482015277115490cdcc8c4e881a5b9d985b1a59081d1bdad95b88125160421b6044820152606401610a97565b600081815260ff6020526040902080546001600160a01b0319166001600160a01b0384169081179091558190611a1a82611109565b6001600160a01b03167f8c5be1e5ebec7d5bd14f71427d1e84f3dd0314c0f7b2291e5b200ac8c7c3b92560405160405180910390a45050565b600080611a5f83611109565b9050806001600160a01b0316846001600160a01b03161480611aa757506001600160a01b038082166000908152610100602090815260408083209388168352929052205460ff165b806115355750836001600160a01b0316611ac0846109fc565b6001600160a01b031614949350505050565b826001600160a01b0316611ae582611109565b6001600160a01b031614611b495760405162461bcd60e51b815260206004820152602560248201527f4552433732313a207472616e736665722066726f6d20696e636f72726563742060448201526437bbb732b960d91b6064820152608401610a97565b6001600160a01b038216611bab5760405162461bcd60e51b8152602060048201526024808201527f4552433732313a207472616e7366657220746f20746865207a65726f206164646044820152637265737360e01b6064820152608401610a97565b611bb6838383612318565b611bc16000826119e5565b6001600160a01b038316600090815260fe60205260408120805460019290611bea908490613906565b90915550506001600160a01b038216600090815260fe60205260408120805460019290611c1890849061391d565b9091555050600081815260fd602052604080822080546001600160a01b0319166001600160a01b0386811691821790925591518493918716917fddf252ad1be2c89b69c2b068fc378daa952ba7f163c4a11628f55a4df523b3ef91a4505050565b610d8e611f62565b7f4910fdfa16fed3260ed0e7147f7cc6da11a60208b5b9406d12a635614ffd91435460ff1615611cb457610b3883612323565b826001600160a01b03166352d1902d6040518163ffffffff1660e01b8152600401602060405180830381865afa925050508015611d0e575060408051601f3d908101601f19168201909252611d0b918101906138d0565b60015b611d715760405162461bcd60e51b815260206004820152602e60248201527f45524331393637557067726164653a206e657720696d706c656d656e7461746960448201526d6f6e206973206e6f74205555505360901b6064820152608401610a97565b600080516020613aa28339815191528114611de05760405162461bcd60e51b815260206004820152602960248201527f45524331393637557067726164653a20756e737570706f727465642070726f786044820152681a58589b195555525160ba1b6064820152608401610a97565b50610b388383836123bf565b6001600160a01b038316600090815261022c6020526040812054849060ff1680611e395750806001600160a01b0316611e2e6101f5546001600160a01b031690565b6001600160a01b0316145b80611e47575061022d5460ff165b611e9f5760405162461bcd60e51b815260206004820152602360248201527f455243373231426173653a2057686974656c6973746564207573657273206f6e604482015262363c9760e91b6064820152608401610a97565b610227546001600160601b039081169085161115611f175760405162461bcd60e51b815260206004820152602f60248201527f455243373231426173653a20526f79616c7479206d7573742062652062656c6f60448201526e1dc81c9bde585b1d1e481b1a5b5a5d608a1b6064820152608401610a97565b61022a8054906000611f288361386b565b9190505550611f3a8561022a546123e4565b611f4861022a548686612532565b611f5561022a5484612640565b505061022a549392505050565b6101f5546001600160a01b031633146112725760405162461bcd60e51b815260206004820181905260248201527f4f776e61626c653a2063616c6c6572206973206e6f7420746865206f776e65726044820152606401610a97565b610d8e816126db565b6101f580546001600160a01b038381166001600160a01b0319831681179093556040519116919082907f8be0079c531659141344cd1fd0a4f28419497f9722a3daafe3b4186f6b6457e090600090a35050565b816001600160a01b0316836001600160a01b03160361207a5760405162461bcd60e51b815260206004820152601960248201527f4552433732313a20617070726f766520746f2063616c6c6572000000000000006044820152606401610a97565b6001600160a01b0383811660008181526101006020908152604080832094871680845294825291829020805460ff191686151590811790915591519182527f17307eab39ab6107e8899845ad3d59bd9653f200f220920489ca2b5937696c31910160405180910390a3505050565b6120f3848484611ad2565b6120ff8484848461271d565b61146c5760405162461bcd60e51b8152600401610a9790613935565b606061212682611986565b60008281526101c3602052604081208054612140906136dc565b80601f016020809104026020016040519081016040528092919081815260200182805461216c906136dc565b80156121b95780601f1061218e576101008083540402835291602001916121b9565b820191906000526020600020905b81548152906001019060200180831161219c57829003601f168201915b5050505050905060006121ca61281b565b905080516000036121dc575092915050565b81511561220e5780826040516020016121f6929190613987565b60405160208183030381529060405292505050919050565b6115358461282b565b600054610100900460ff1661223e5760405162461bcd60e51b8152600401610a97906139b6565b612246612891565b61225085856128c0565b6122586128f1565b6122606128f1565b6122686128f1565b6122706128f1565b6127106001600160601b038216111561229b5760405162461bcd60e51b8152600401610a9790613884565b61022780546bffffffffffffffffffffffff19166001600160601b03831617905582516122d090610228906020860190612f91565b5081516122e590610229906020850190612f91565b5050600061022a5550505050565b60006001600160e01b0319821663780e9d6360e01b1480610964575061096482612918565b610b38838383612958565b6001600160a01b0381163b6123905760405162461bcd60e51b815260206004820152602d60248201527f455243313936373a206e657720696d706c656d656e746174696f6e206973206e60448201526c1bdd08184818dbdb9d1c9858dd609a1b6064820152608401610a97565b600080516020613aa283398151915280546001600160a01b0319166001600160a01b0392909216919091179055565b6123c883612a12565b6000825111806123d55750805b15610b385761146c8383612a52565b6001600160a01b03821661243a5760405162461bcd60e51b815260206004820181905260248201527f4552433732313a206d696e7420746f20746865207a65726f20616464726573736044820152606401610a97565b600081815260fd60205260409020546001600160a01b03161561249f5760405162461bcd60e51b815260206004820152601c60248201527f4552433732313a20746f6b656e20616c7265616479206d696e746564000000006044820152606401610a97565b6124ab60008383612318565b6001600160a01b038216600090815260fe602052604081208054600192906124d490849061391d565b9091555050600081815260fd602052604080822080546001600160a01b0319166001600160a01b03861690811790915590518392907fddf252ad1be2c89b69c2b068fc378daa952ba7f163c4a11628f55a4df523b3ef908290a45050565b6127106001600160601b03821611156125a05760405162461bcd60e51b815260206004820152602a60248201527f455243323938313a20726f79616c7479206665652077696c6c206578636565646044820152692073616c65507269636560b01b6064820152608401610a97565b6001600160a01b0382166125f65760405162461bcd60e51b815260206004820152601b60248201527f455243323938313a20496e76616c696420706172616d657465727300000000006044820152606401610a97565b6040805180820182526001600160a01b0393841681526001600160601b039283166020808301918252600096875260ca90529190942093519051909116600160a01b029116179055565b600082815260fd60205260409020546001600160a01b03166126bb5760405162461bcd60e51b815260206004820152602e60248201527f45524337323155524953746f726167653a2055524920736574206f66206e6f6e60448201526d32bc34b9ba32b73a103a37b5b2b760911b6064820152608401610a97565b60008281526101c3602090815260409091208251610b3892840190612f91565b6126e481612b46565b60008181526101c36020526040902080546126fe906136dc565b159050610d8e5760008181526101c360205260408120610d8e91613015565b60006001600160a01b0384163b1561281357604051630a85bd0160e11b81526001600160a01b0385169063150b7a0290612761903390899088908890600401613a01565b6020604051808303816000875af192505050801561279c575060408051601f3d908101601f1916820190925261279991810190613a3e565b60015b6127f9573d8080156127ca576040519150601f19603f3d011682016040523d82523d6000602084013e6127cf565b606091505b5080516000036127f15760405162461bcd60e51b8152600401610a9790613935565b805181602001fd5b6001600160e01b031916630a85bd0160e11b149050611535565b506001611535565b60606102298054610979906136dc565b606061283682611986565b600061284061281b565b905060008151116128605760405180602001604052806000815250610e43565b8061286a84612b60565b60405160200161287b929190613987565b6040516020818303038152906040529392505050565b600054610100900460ff166128b85760405162461bcd60e51b8152600401610a97906139b6565b611272612c61565b600054610100900460ff166128e75760405162461bcd60e51b8152600401610a97906139b6565b610fa18282612c91565b600054610100900460ff166112725760405162461bcd60e51b8152600401610a97906139b6565b60006001600160e01b031982166380ac58cd60e01b148061294957506001600160e01b03198216635b5e139f60e01b145b80610964575061096482612cdf565b6001600160a01b0383166129b5576129b08161012f8054600083815261013060205260408120829055600182018355919091527f232da9e50dad2971456a78fb5cd6ff6b75019984d6e918139ce990999420f9790155565b6129d8565b816001600160a01b0316836001600160a01b0316146129d8576129d88382612d14565b6001600160a01b0382166129ef57610b3881612db6565b826001600160a01b0316826001600160a01b031614610b3857610b388282612e6b565b612a1b81612323565b6040516001600160a01b038216907fbc7cd75a20ee27fd9adebab32041f755214dbc6bffa90cc0225b39da2e5c2d3b90600090a250565b60606001600160a01b0383163b612aba5760405162461bcd60e51b815260206004820152602660248201527f416464726573733a2064656c65676174652063616c6c20746f206e6f6e2d636f6044820152651b9d1c9858dd60d21b6064820152608401610a97565b600080846001600160a01b031684604051612ad59190613a5b565b600060405180830381855af49150503d8060008114612b10576040519150601f19603f3d011682016040523d82523d6000602084013e612b15565b606091505b5091509150612b3d8282604051806060016040528060278152602001613ac260279139612eb1565b95945050505050565b612b4f81612eea565b600090815260ca6020526040812055565b606081600003612b875750506040805180820190915260018152600360fc1b602082015290565b8160005b8115612bb15780612b9b8161386b565b9150612baa9050600a836137a9565b9150612b8b565b60008167ffffffffffffffff811115612bcc57612bcc6131d8565b6040519080825280601f01601f191660200182016040528015612bf6576020820181803683370190505b5090505b841561153557612c0b600183613906565b9150612c18600a86613a77565b612c2390603061391d565b60f81b818381518110612c3857612c38613855565b60200101906001600160f81b031916908160001a905350612c5a600a866137a9565b9450612bfa565b600054610100900460ff16612c885760405162461bcd60e51b8152600401610a97906139b6565b61127233611fc6565b600054610100900460ff16612cb85760405162461bcd60e51b8152600401610a97906139b6565b8151612ccb9060fb906020850190612f91565b508051610b389060fc906020840190612f91565b60006001600160e01b0319821663152a902d60e11b148061096457506301ffc9a760e01b6001600160e01b0319831614610964565b60006001612d21846111da565b612d2b9190613906565b600083815261012e6020526040902054909150808214612d81576001600160a01b038416600090815261012d60209081526040808320858452825280832054848452818420819055835261012e90915290208190555b50600091825261012e602090815260408084208490556001600160a01b03909416835261012d81528383209183525290812055565b61012f54600090612dc990600190613906565b6000838152610130602052604081205461012f8054939450909284908110612df357612df3613855565b906000526020600020015490508061012f8381548110612e1557612e15613855565b6000918252602080832090910192909255828152610130909152604080822084905585825281205561012f805480612e4f57612e4f613a8b565b6001900381819060005260206000200160009055905550505050565b6000612e76836111da565b6001600160a01b03909316600090815261012d60209081526040808320868452825280832085905593825261012e9052919091209190915550565b60608315612ec0575081610e43565b825115612ed05782518084602001fd5b8160405162461bcd60e51b8152600401610a9791906130eb565b6000612ef582611109565b9050612f0381600084612318565b612f0e6000836119e5565b6001600160a01b038116600090815260fe60205260408120805460019290612f37908490613906565b9091555050600082815260fd602052604080822080546001600160a01b0319169055518391906001600160a01b038416907fddf252ad1be2c89b69c2b068fc378daa952ba7f163c4a11628f55a4df523b3ef908390a45050565b828054612f9d906136dc565b90600052602060002090601f016020900481019282612fbf5760008555613005565b82601f10612fd857805160ff1916838001178555613005565b82800160010185558215613005579182015b82811115613005578251825591602001919060010190612fea565b5061301192915061304b565b5090565b508054613021906136dc565b6000825580601f10613031575050565b601f016020900490600052602060002090810190610d8e91905b5b80821115613011576000815560010161304c565b6001600160e01b031981168114610d8e57600080fd5b60006020828403121561308857600080fd5b8135610e4381613060565b60005b838110156130ae578181015183820152602001613096565b8381111561146c5750506000910152565b600081518084526130d7816020860160208601613093565b601f01601f19169290920160200192915050565b602081526000610e4360208301846130bf565b60006020828403121561311057600080fd5b5035919050565b6001600160a01b0381168114610d8e57600080fd5b6000806040838503121561313f57600080fd5b823561314a81613117565b946020939093013593505050565b60008060006060848603121561316d57600080fd5b833561317881613117565b9250602084013561318881613117565b929592945050506040919091013590565b600080604083850312156131ac57600080fd5b50508035926020909101359150565b6000602082840312156131cd57600080fd5b8135610e4381613117565b634e487b7160e01b600052604160045260246000fd5b604051601f8201601f1916810167ffffffffffffffff81118282101715613217576132176131d8565b604052919050565b600082601f83011261323057600080fd5b813567ffffffffffffffff81111561324a5761324a6131d8565b61325d601f8201601f19166020016131ee565b81815284602083860101111561327257600080fd5b816020850160208301376000918101602001919091529392505050565b80356001600160601b03811681146132a657600080fd5b919050565b6000806000606084860312156132c057600080fd5b833567ffffffffffffffff8111156132d757600080fd5b6132e38682870161321f565b9350506132f26020850161328f565b9150604084013561330281613117565b809150509250925092565b6000806040838503121561332057600080fd5b823561332b81613117565b9150602083013567ffffffffffffffff81111561334757600080fd5b6133538582860161321f565b9150509250929050565b60006020828403121561336f57600080fd5b813567ffffffffffffffff81111561338657600080fd5b6115358482850161321f565b600060208083850312156133a557600080fd5b823567ffffffffffffffff808211156133bd57600080fd5b818501915085601f8301126133d157600080fd5b8135818111156133e3576133e36131d8565b8060051b91506133f48483016131ee565b818152918301840191848101908884111561340e57600080fd5b938501935b83851015613438578435925061342883613117565b8282529385019390850190613413565b98975050505050505050565b60006040828403121561345657600080fd5b50919050565b60006040828403121561346e57600080fd5b610e438383613444565b60006020828403121561348a57600080fd5b610e438261328f565b8015158114610d8e57600080fd5b600080604083850312156134b457600080fd5b82356134bf81613117565b915060208301356134cf81613493565b809150509250929050565b600080600080608085870312156134f057600080fd5b84356134fb81613117565b9350602085013561350b81613117565b925060408501359150606085013567ffffffffffffffff81111561352e57600080fd5b61353a8782880161321f565b91505092959194509250565b80356132a681613117565b6000806000806080858703121561356757600080fd5b843567ffffffffffffffff81111561357e57600080fd5b61358a8782880161321f565b9450506135996020860161328f565b925060408501356135a981613117565b915060608501356135b981613117565b939692955090935050565b600080604083850312156135d757600080fd5b82356135e281613117565b915060208301356134cf81613117565b600080600080600080600080610120898b03121561360f57600080fd5b883567ffffffffffffffff8082111561362757600080fd5b6136338c838d0161321f565b995060208b013591508082111561364957600080fd5b6136558c838d0161321f565b985060408b013591508082111561366b57600080fd5b6136778c838d0161321f565b975060608b013591508082111561368d57600080fd5b5061369a8b828c0161321f565b9550506136a960808a0161328f565b935060a089013592506136be60c08a01613546565b91506136cd8a60e08b01613444565b90509295985092959890939650565b600181811c908216806136f057607f821691505b60208210810361345657634e487b7160e01b600052602260045260246000fd5b6020808252602e908201527f4552433732313a2063616c6c6572206973206e6f7420746f6b656e206f776e6560408201526d1c881b9bdc88185c1c1c9bdd995960921b606082015260800190565b634e487b7160e01b600052601160045260246000fd5b600081600019048311821515161561378e5761378e61375e565b500290565b634e487b7160e01b600052601260045260246000fd5b6000826137b8576137b8613793565b500490565b6020808252602c908201527f46756e6374696f6e206d7573742062652063616c6c6564207468726f7567682060408201526b19195b1959d85d1958d85b1b60a21b606082015260800190565b6020808252602c908201527f46756e6374696f6e206d7573742062652063616c6c6564207468726f7567682060408201526b6163746976652070726f787960a01b606082015260800190565b634e487b7160e01b600052603260045260246000fd5b60006001820161387d5761387d61375e565b5060010190565b6020808252602c908201527f455243373231426173653a20526f79616c7479206c696d6974206d757374206260408201526b652062656c6f77203130302560a01b606082015260800190565b6000602082840312156138e257600080fd5b5051919050565b6000602082840312156138fb57600080fd5b8151610e4381613493565b6000828210156139185761391861375e565b500390565b600082198211156139305761393061375e565b500190565b60208082526032908201527f4552433732313a207472616e7366657220746f206e6f6e20455243373231526560408201527131b2b4bb32b91034b6b83632b6b2b73a32b960711b606082015260800190565b60008351613999818460208801613093565b8351908301906139ad818360208801613093565b01949350505050565b6020808252602b908201527f496e697469616c697a61626c653a20636f6e7472616374206973206e6f74206960408201526a6e697469616c697a696e6760a81b606082015260800190565b6001600160a01b0385811682528416602082015260408101839052608060608201819052600090613a34908301846130bf565b9695505050505050565b600060208284031215613a5057600080fd5b8151610e4381613060565b60008251613a6d818460208701613093565b9190910192915050565b600082613a8657613a86613793565b500690565b634e487b7160e01b600052603160045260246000fdfe360894a13ba1a3210667c828492db98dca3e2076cc3735a920a3ca505d382bbc416464726573733a206c6f772d6c6576656c2064656c65676174652063616c6c206661696c6564a26469706673582212200905ca0ca3a244a369cd8f1582fbd42689960057fb400d265b012db16cc5092a64736f6c634300080d0033",
  "linkReferences": {},
  "deployedLinkReferences": {}
}